{
  "contractName": "Eirbmon",
  "abi": [
    {
      "inputs": [],
      "payable": false,
      "stateMutability": "nonpayable",
      "type": "constructor"
    },
    {
      "anonymous": false,
      "inputs": [
        {
          "indexed": false,
          "internalType": "string",
          "name": "message",
          "type": "string"
        }
      ],
      "name": "SendEvent",
      "type": "event"
    },
    {
      "constant": true,
      "inputs": [
        {
          "internalType": "uint256",
          "name": "",
          "type": "uint256"
        }
      ],
      "name": "_Eirbmons",
      "outputs": [
        {
          "internalType": "uint256",
          "name": "id",
          "type": "uint256"
        },
        {
          "internalType": "string",
          "name": "name",
          "type": "string"
        },
        {
          "internalType": "address",
          "name": "owner",
          "type": "address"
        },
        {
          "internalType": "uint256",
          "name": "level",
          "type": "uint256"
        },
        {
          "internalType": "string",
          "name": "field",
          "type": "string"
        },
        {
          "internalType": "string",
          "name": "atk",
          "type": "string"
        },
        {
          "internalType": "uint256",
          "name": "hp",
          "type": "uint256"
        }
      ],
      "payable": false,
      "stateMutability": "view",
      "type": "function"
    },
    {
      "constant": true,
      "inputs": [
        {
          "internalType": "address",
          "name": "",
          "type": "address"
        }
      ],
      "name": "_registeredAccounts",
      "outputs": [
        {
          "internalType": "bool",
          "name": "",
          "type": "bool"
        }
      ],
      "payable": false,
      "stateMutability": "view",
      "type": "function"
    },
    {
      "constant": true,
      "inputs": [],
      "name": "eirbmonsCount",
      "outputs": [
        {
          "internalType": "uint256",
          "name": "",
          "type": "uint256"
        }
      ],
      "payable": false,
      "stateMutability": "view",
      "type": "function"
    },
    {
      "constant": true,
      "inputs": [],
      "name": "registeredCount",
      "outputs": [
        {
          "internalType": "uint256",
          "name": "",
          "type": "uint256"
        }
      ],
      "payable": false,
      "stateMutability": "view",
      "type": "function"
    },
    {
      "constant": true,
      "inputs": [],
      "name": "rnd",
      "outputs": [
        {
          "internalType": "uint256",
          "name": "",
          "type": "uint256"
        }
      ],
      "payable": false,
      "stateMutability": "view",
      "type": "function"
    },
    {
      "constant": false,
      "inputs": [
        {
          "internalType": "string",
          "name": "name",
          "type": "string"
        },
        {
          "internalType": "address",
          "name": "owner",
          "type": "address"
        },
        {
          "internalType": "string",
          "name": "field",
          "type": "string"
        },
        {
          "internalType": "string",
          "name": "atk",
          "type": "string"
        },
        {
          "internalType": "uint256",
          "name": "hp",
          "type": "uint256"
        }
      ],
      "name": "addEirbmonToChain",
      "outputs": [],
      "payable": false,
      "stateMutability": "nonpayable",
      "type": "function"
    },
    {
      "constant": false,
      "inputs": [],
      "name": "initAccount",
      "outputs": [],
      "payable": false,
      "stateMutability": "nonpayable",
      "type": "function"
    },
    {
      "constant": true,
      "inputs": [
        {
          "internalType": "string[]",
          "name": "valueArray",
          "type": "string[]"
        },
        {
          "internalType": "uint256[]",
          "name": "weightArray",
          "type": "uint256[]"
        },
        {
          "internalType": "uint256",
          "name": "randNameWeight",
          "type": "uint256"
        }
      ],
      "name": "getValueFromRand",
      "outputs": [
        {
          "internalType": "string",
          "name": "",
          "type": "string"
        }
      ],
      "payable": false,
      "stateMutability": "pure",
      "type": "function"
    },
    {
      "constant": true,
      "inputs": [
        {
          "internalType": "uint256[]",
          "name": "_array",
          "type": "uint256[]"
        }
      ],
      "name": "sumArray",
      "outputs": [
        {
          "internalType": "uint256",
          "name": "",
          "type": "uint256"
        }
      ],
      "payable": false,
      "stateMutability": "pure",
      "type": "function"
    },
    {
      "constant": true,
      "inputs": [],
      "name": "getEirbmonCount",
      "outputs": [
        {
          "internalType": "uint256",
          "name": "",
          "type": "uint256"
        }
      ],
      "payable": false,
      "stateMutability": "view",
      "type": "function"
    },
    {
      "constant": true,
      "inputs": [
        {
          "internalType": "address",
          "name": "owner",
          "type": "address"
        }
      ],
      "name": "getEirbmon",
      "outputs": [
        {
          "components": [
            {
              "internalType": "uint256",
              "name": "id",
              "type": "uint256"
            },
            {
              "internalType": "string",
              "name": "name",
              "type": "string"
            },
            {
              "internalType": "address",
              "name": "owner",
              "type": "address"
            },
            {
              "internalType": "uint256",
              "name": "level",
              "type": "uint256"
            },
            {
              "internalType": "string",
              "name": "field",
              "type": "string"
            },
            {
              "internalType": "string",
              "name": "atk",
              "type": "string"
            },
            {
              "internalType": "uint256",
              "name": "hp",
              "type": "uint256"
            }
          ],
          "internalType": "struct Eirbmon._Eirbmon[]",
          "name": "",
          "type": "tuple[]"
        }
      ],
      "payable": false,
      "stateMutability": "view",
      "type": "function"
    },
    {
      "constant": true,
      "inputs": [
        {
          "internalType": "uint256",
          "name": "_EirbmonId",
          "type": "uint256"
        }
      ],
      "name": "isExisted",
      "outputs": [
        {
          "internalType": "bool",
          "name": "",
          "type": "bool"
        }
      ],
      "payable": false,
      "stateMutability": "view",
      "type": "function"
    },
    {
      "constant": true,
      "inputs": [
        {
          "internalType": "uint256",
          "name": "_EirbmonId",
          "type": "uint256"
        }
      ],
      "name": "isOrphan",
      "outputs": [
        {
          "internalType": "bool",
          "name": "",
          "type": "bool"
        }
      ],
      "payable": false,
      "stateMutability": "view",
      "type": "function"
    },
    {
      "constant": true,
      "inputs": [],
      "name": "getBlockNumber",
      "outputs": [
        {
          "internalType": "uint256",
          "name": "",
          "type": "uint256"
        }
      ],
      "payable": false,
      "stateMutability": "view",
      "type": "function"
    },
    {
      "constant": false,
      "inputs": [
        {
          "internalType": "uint256",
          "name": "_EirbmonId",
          "type": "uint256"
        }
      ],
      "name": "catchEirbmon",
      "outputs": [
        {
          "internalType": "bytes32",
          "name": "",
          "type": "bytes32"
        }
      ],
      "payable": false,
      "stateMutability": "nonpayable",
      "type": "function"
    },
    {
      "constant": false,
      "inputs": [
        {
          "internalType": "uint256",
          "name": "idEirbmon",
          "type": "uint256"
        },
        {
          "internalType": "address",
          "name": "newOwner",
          "type": "address"
        },
        {
          "internalType": "address",
          "name": "oldOwner",
          "type": "address"
        }
      ],
      "name": "changeEirbmonOwner",
      "outputs": [],
      "payable": false,
      "stateMutability": "nonpayable",
      "type": "function"
    },
    {
      "constant": false,
      "inputs": [
        {
          "internalType": "uint256",
          "name": "idEirbmon1",
          "type": "uint256"
        },
        {
          "internalType": "address",
          "name": "owner1",
          "type": "address"
        },
        {
          "internalType": "uint256",
          "name": "idEirbmon2",
          "type": "uint256"
        },
        {
          "internalType": "address",
          "name": "owner2",
          "type": "address"
        }
      ],
      "name": "transferEirbmon",
      "outputs": [],
      "payable": false,
      "stateMutability": "nonpayable",
      "type": "function"
    }
  ],
  "bytecode": "0x6080604052600160005560405180608001604052806040518060400160405280600781526020017f726f756c6164650000000000000000000000000000000000000000000000000081525081526020016040518060400160405280600d81526020017f706574697465206269c3a872650000000000000000000000000000000000000081525081526020016040518060400160405280600681526020017f627261737365000000000000000000000000000000000000000000000000000081525081526020016040518060400160405280600a81526020017f726174747261706167650000000000000000000000000000000000000000000081525081525060019060046200011092919062000f1f565b506040518060800160405280600a60ff168152602001600660ff168152602001600360ff168152602001600160ff1681525060029060046200015492919062000f86565b506040518060c001604052806040518060400160405280600381526020017f525349000000000000000000000000000000000000000000000000000000000081525081526020016040518060400160405280600381526020017f534545000000000000000000000000000000000000000000000000000000000081525081526020016040518060400160405280600481526020017f456c65630000000000000000000000000000000000000000000000000000000081525081526020016040518060400160405280600781526020017f4d61746d6563610000000000000000000000000000000000000000000000000081525081526020016040518060400160405280600481526020017f496e666f0000000000000000000000000000000000000000000000000000000081525081526020016040518060400160405280600781526020017f54656c65636f6d000000000000000000000000000000000000000000000000008152508152506003906006620002d292919062000fdd565b506040518060c00160405280600a60ff168152602001600860ff168152602001600660ff168152602001600460ff168152602001600260ff168152602001600160ff1681525060049060066200032a92919062001044565b5060405180608001604052806040518060400160405280600481526020017f6e6f6d310000000000000000000000000000000000000000000000000000000081525081526020016040518060400160405280600481526020017f6e6f6d320000000000000000000000000000000000000000000000000000000081525081526020016040518060400160405280600481526020017f6e6f6d330000000000000000000000000000000000000000000000000000000081525081526020016040518060400160405280600481526020017f6e6f6d340000000000000000000000000000000000000000000000000000000081525081525060059060046200043292919062000f1f565b506040518060800160405280600a60ff168152602001600660ff168152602001600360ff168152602001600160ff1681525060069060046200047692919062000f86565b50600060075560006008553480156200048e57600080fd5b50620005446040518060400160405280600781526020017f50696b6163687500000000000000000000000000000000000000000000000000815250336040518060400160405280600781526020017f74656c65636f6d000000000000000000000000000000000000000000000000008152506040518060400160405280600781526020017f726f756c6164650000000000000000000000000000000000000000000000000081525060646200077b60201b60201c565b620005f96040518060400160405280600781526020017f526f75636f756c00000000000000000000000000000000000000000000000000815250336040518060400160405280600481526020017f656c6563000000000000000000000000000000000000000000000000000000008152506040518060400160405280600d81526020017f706574697465206269c3a872650000000000000000000000000000000000000081525060646200077b60201b60201c565b620006af6040518060400160405280600781526020017f526f75636f756c0000000000000000000000000000000000000000000000000081525060006040518060400160405280600481526020017f696e666f000000000000000000000000000000000000000000000000000000008152506040518060400160405280600d81526020017f706574697465206269c3a872650000000000000000000000000000000000000081525060646200077b60201b60201c565b620007656040518060400160405280600781526020017f50696b616368750000000000000000000000000000000000000000000000000081525060006040518060400160405280600381526020017f53454500000000000000000000000000000000000000000000000000000000008152506040518060400160405280600d81526020017f706574697465206269c3a872650000000000000000000000000000000000000081525060646200077b60201b60201c565b62000775620008ba60201b60201c565b620011c7565b6007600081548092919060010191905055506040518060e0016040528060075481526020018681526020018573ffffffffffffffffffffffffffffffffffffffff1681526020016000815260200184815260200183815260200182815250600960006007548152602001908152602001600020600082015181600001556020820151816001019080519060200190620008169291906200109b565b5060408201518160020160006101000a81548173ffffffffffffffffffffffffffffffffffffffff021916908373ffffffffffffffffffffffffffffffffffffffff160217905550606082015181600301556080820151816004019080519060200190620008869291906200109b565b5060a0820151816005019080519060200190620008a59291906200109b565b5060c082015181600601559050505050505050565b600060016200092160028054806020026020016040519081016040528092919081815260200182805480156200091057602002820191906000526020600020905b815481526020019060010190808311620008fb575b505050505062000e6b60201b60201c565b6b010000000000000000000000600143034060001c816200093e57fe5b04816200094757fe5b06019050606062000a996001805480602002602001604051908101604052809291908181526020016000905b8282101562000a35578382906000526020600020018054600181600116156101000203166002900480601f01602080910402602001604051908101604052809291908181526020018280546001816001161561010002031660029004801562000a205780601f10620009f45761010080835404028352916020019162000a20565b820191906000526020600020905b81548152906001019060200180831162000a0257829003601f168201915b50505050508152602001906001019062000973565b50505050600280548060200260200160405190810160405280929190818152602001828054801562000a8757602002820191906000526020600020905b81548152602001906001019080831162000a72575b50505050508462000eb060201b60201c565b9050600062000b00600480548060200260200160405190810160405280929190818152602001828054801562000aef57602002820191906000526020600020905b81548152602001906001019080831162000ada575b505050505062000e6b60201b60201c565b760100000000000000000000000000000000000000000000600143034060001c8162000b2857fe5b048162000b3157fe5b069050606062000c826003805480602002602001604051908101604052809291908181526020016000905b8282101562000c1e578382906000526020600020018054600181600116156101000203166002900480601f01602080910402602001604051908101604052809291908181526020018280546001816001161561010002031660029004801562000c095780601f1062000bdd5761010080835404028352916020019162000c09565b820191906000526020600020905b81548152906001019060200180831162000beb57829003601f168201915b50505050508152602001906001019062000b5c565b50505050600480548060200260200160405190810160405280929190818152602001828054801562000c7057602002820191906000526020600020905b81548152602001906001019080831162000c5b575b50505050508462000eb060201b60201c565b9050600062000ce9600680548060200260200160405190810160405280929190818152602001828054801562000cd857602002820191906000526020600020905b81548152602001906001019080831162000cc3575b505050505062000e6b60201b60201c565b600143034060001c8162000cf957fe5b069050606062000e4a6005805480602002602001604051908101604052809291908181526020016000905b8282101562000de6578382906000526020600020018054600181600116156101000203166002900480601f01602080910402602001604051908101604052809291908181526020018280546001816001161561010002031660029004801562000dd15780601f1062000da55761010080835404028352916020019162000dd1565b820191906000526020600020905b81548152906001019060200180831162000db357829003601f168201915b50505050508152602001906001019062000d24565b50505050600680548060200260200160405190810160405280929190818152602001828054801562000e3857602002820191906000526020600020905b81548152602001906001019080831162000e23575b50505050508462000eb060201b60201c565b905062000e63816000858860646200077b60201b60201c565b505050505050565b6000806000905060005b835181101562000ea65783818151811062000e8c57fe5b602002602001015182019150808060010191505062000e75565b5080915050919050565b6060600080905060008090505b845181101562000f155784818151811062000ed457fe5b60200260200101518201915081841162000f075785818151811062000ef557fe5b60200260200101519250505062000f18565b808060010191505062000ebd565b50505b9392505050565b82805482825590600052602060002090810192821562000f73579160200282015b8281111562000f7257825182908051906020019062000f619291906200109b565b509160200191906001019062000f40565b5b50905062000f82919062001122565b5090565b82805482825590600052602060002090810192821562000fca579160200282015b8281111562000fc9578251829060ff1690559160200191906001019062000fa7565b5b50905062000fd9919062001153565b5090565b82805482825590600052602060002090810192821562001031579160200282015b82811115620010305782518290805190602001906200101f9291906200109b565b509160200191906001019062000ffe565b5b50905062001040919062001122565b5090565b82805482825590600052602060002090810192821562001088579160200282015b8281111562001087578251829060ff1690559160200191906001019062001065565b5b50905062001097919062001153565b5090565b828054600181600116156101000203166002900490600052602060002090601f016020900481019282601f10620010de57805160ff19168380011785556200110f565b828001600101855582156200110f579182015b828111156200110e578251825591602001919060010190620010f1565b5b5090506200111e919062001153565b5090565b6200115091905b808211156200114c57600081816200114291906200117b565b5060010162001129565b5090565b90565b6200117891905b80821115620011745760008160009055506001016200115a565b5090565b90565b50805460018160011615610100020316600290046000825580601f10620011a35750620011c4565b601f016020900490600052602060002090810190620011c3919062001153565b5b50565b611ec280620011d76000396000f3fe608060405234801561001057600080fd5b506004361061010a5760003560e01c80637532bd5f116100a2578063cbb3abd111610071578063cbb3abd1146102cb578063e1ba8bba14610301578063e95388cb14610331578063fec1439c1461034d578063fff39a511461036b5761010a565b80637532bd5f1461023157806380aa3ee61461024d578063819308a71461027d578063c80f760c146102ad5761010a565b806342cbb15c116100de57806342cbb15c146101a95780634c12569d146101c75780634ec1ce21146101f75780635c824d7a146102015761010a565b80621931d01461010f5780631e2aea061461013f578063210ff9bb1461016f57806332834b481461018d575b600080fd5b61012960048036036101249190810190611632565b610389565b6040516101369190611b2d565b60405180910390f35b610159600480360361015491908101906116da565b610712565b6040516101669190611bc7565b60405180910390f35b610177610754565b6040516101849190611bc7565b60405180910390f35b6101a760048036036101a2919081019061171b565b61075a565b005b6101b1610893565b6040516101be9190611bc7565b60405180910390f35b6101e160048036036101dc919081019061165b565b61089b565b6040516101ee9190611b85565b60405180910390f35b6101ff610904565b005b61021b60048036036102169190810190611632565b610a62565b6040516102289190611b4f565b60405180910390f35b61024b60048036036102469190810190611852565b610a82565b005b610267600480360361026291908101906117da565b610a9e565b6040516102749190611b4f565b60405180910390f35b610297600480360361029291908101906117da565b610b0c565b6040516102a49190611b6a565b60405180910390f35b6102b5610b6c565b6040516102c29190611bc7565b60405180910390f35b6102e560048036036102e091908101906117da565b610b72565b6040516102f89796959493929190611be2565b60405180910390f35b61031b600480360361031691908101906117da565b610d9c565b6040516103289190611b4f565b60405180910390f35b61034b60048036036103469190810190611803565b610dab565b005b610355610e05565b6040516103629190611bc7565b60405180910390f35b610373610e0b565b6040516103809190611bc7565b60405180910390f35b6060600a60008373ffffffffffffffffffffffffffffffffffffffff1673ffffffffffffffffffffffffffffffffffffffff16815260200190815260200160002060009054906101000a900460ff166103e157600080fd5b6060600080905060008090505b600754811015610707578473ffffffffffffffffffffffffffffffffffffffff166009600083815260200190815260200160002060020160009054906101000a900473ffffffffffffffffffffffffffffffffffffffff1673ffffffffffffffffffffffffffffffffffffffff1614156106fa57600960008281526020019081526020016000206040518060e001604052908160008201548152602001600182018054600181600116156101000203166002900480601f0160208091040260200160405190810160405280929190818152602001828054600181600116156101000203166002900480156105235780601f106104f857610100808354040283529160200191610523565b820191906000526020600020905b81548152906001019060200180831161050657829003601f168201915b505050505081526020016002820160009054906101000a900473ffffffffffffffffffffffffffffffffffffffff1673ffffffffffffffffffffffffffffffffffffffff1673ffffffffffffffffffffffffffffffffffffffff16815260200160038201548152602001600482018054600181600116156101000203166002900480601f0160208091040260200160405190810160405280929190818152602001828054600181600116156101000203166002900480156106255780601f106105fa57610100808354040283529160200191610625565b820191906000526020600020905b81548152906001019060200180831161060857829003601f168201915b50505050508152602001600582018054600181600116156101000203166002900480601f0160208091040260200160405190810160405280929190818152602001828054600181600116156101000203166002900480156106c75780601f1061069c576101008083540402835291602001916106c7565b820191906000526020600020905b8154815290600101906020018083116106aa57829003601f168201915b505050505081526020016006820154815250508383815181106106e657fe5b602002602001018190525081806001019250505b80806001019150506103ee565b508192505050919050565b6000806000905060005b835181101561074a5783818151811061073157fe5b602002602001015182019150808060010191505061071c565b5080915050919050565b60085481565b6007600081548092919060010191905055506040518060e0016040528060075481526020018681526020018573ffffffffffffffffffffffffffffffffffffffff16815260200160008152602001848152602001838152602001828152506009600060075481526020019081526020016000206000820151816000015560208201518160010190805190602001906107f39291906113c4565b5060408201518160020160006101000a81548173ffffffffffffffffffffffffffffffffffffffff021916908373ffffffffffffffffffffffffffffffffffffffff1602179055506060820151816003015560808201518160040190805190602001906108619291906113c4565b5060a082015181600501908051906020019061087e9291906113c4565b5060c082015181600601559050505050505050565b600043905090565b6060600080905060008090505b84518110156108fa578481815181106108bd57fe5b6020026020010151820191508184116108ed578581815181106108dc57fe5b6020026020010151925050506108fd565b80806001019150506108a8565b50505b9392505050565b600a60003373ffffffffffffffffffffffffffffffffffffffff1673ffffffffffffffffffffffffffffffffffffffff16815260200190815260200160002060009054906101000a900460ff161561095b57600080fd5b6001600a60003373ffffffffffffffffffffffffffffffffffffffff1673ffffffffffffffffffffffffffffffffffffffff16815260200190815260200160002060006101000a81548160ff021916908315150217905550610a606040518060400160405280600481526020017f6e6f6d3100000000000000000000000000000000000000000000000000000000815250336040518060400160405280600381526020017f52534900000000000000000000000000000000000000000000000000000000008152506040518060400160405280600781526020017f726f756c61646500000000000000000000000000000000000000000000000000815250602861075a565b565b600a6020528060005260406000206000915054906101000a900460ff1681565b610a8d828483610dab565b610a98848285610dab565b50505050565b60008073ffffffffffffffffffffffffffffffffffffffff166009600084815260200190815260200160002060020160009054906101000a900473ffffffffffffffffffffffffffffffffffffffff1673ffffffffffffffffffffffffffffffffffffffff16149050919050565b6000610b1782610d9c565b610b2057600080fd5b610b28610e15565b610b32338361136b565b7f01929b1546ac5c8cbd09f19de437245776c852d26202ac70ef8ede5dbb2e29b3604051610b5f90611ba7565b60405180910390a1919050565b60075481565b6009602052806000526040600020600091509050806000015490806001018054600181600116156101000203166002900480601f016020809104026020016040519081016040528092919081815260200182805460018160011615610100020316600290048015610c245780601f10610bf957610100808354040283529160200191610c24565b820191906000526020600020905b815481529060010190602001808311610c0757829003601f168201915b5050505050908060020160009054906101000a900473ffffffffffffffffffffffffffffffffffffffff1690806003015490806004018054600181600116156101000203166002900480601f016020809104026020016040519081016040528092919081815260200182805460018160011615610100020316600290048015610cee5780601f10610cc357610100808354040283529160200191610cee565b820191906000526020600020905b815481529060010190602001808311610cd157829003601f168201915b505050505090806005018054600181600116156101000203166002900480601f016020809104026020016040519081016040528092919081815260200182805460018160011615610100020316600290048015610d8c5780601f10610d6157610100808354040283529160200191610d8c565b820191906000526020600020905b815481529060010190602001808311610d6f57829003601f168201915b5050505050908060060154905087565b60006007548211159050919050565b816009600085815260200190815260200160002060020160006101000a81548173ffffffffffffffffffffffffffffffffffffffff021916908373ffffffffffffffffffffffffffffffffffffffff160217905550505050565b60005481565b6000600754905090565b60006001610e726002805480602002602001604051908101604052809291908181526020018280548015610e6857602002820191906000526020600020905b815481526020019060010190808311610e54575b5050505050610712565b6b010000000000000000000000600143034060001c81610e8e57fe5b0481610e9657fe5b060190506060610fd86001805480602002602001604051908101604052809291908181526020016000905b82821015610f7d578382906000526020600020018054600181600116156101000203166002900480601f016020809104026020016040519081016040528092919081815260200182805460018160011615610100020316600290048015610f695780601f10610f3e57610100808354040283529160200191610f69565b820191906000526020600020905b815481529060010190602001808311610f4c57829003601f168201915b505050505081526020019060010190610ec1565b505050506002805480602002602001604051908101604052809291908181526020018280548015610fcd57602002820191906000526020600020905b815481526020019060010190808311610fb9575b50505050508461089b565b90506000611035600480548060200260200160405190810160405280929190818152602001828054801561102b57602002820191906000526020600020905b815481526020019060010190808311611017575b5050505050610712565b760100000000000000000000000000000000000000000000600143034060001c8161105c57fe5b048161106457fe5b06905060606111a56003805480602002602001604051908101604052809291908181526020016000905b8282101561114a578382906000526020600020018054600181600116156101000203166002900480601f0160208091040260200160405190810160405280929190818152602001828054600181600116156101000203166002900480156111365780601f1061110b57610100808354040283529160200191611136565b820191906000526020600020905b81548152906001019060200180831161111957829003601f168201915b50505050508152602001906001019061108e565b50505050600480548060200260200160405190810160405280929190818152602001828054801561119a57602002820191906000526020600020905b815481526020019060010190808311611186575b50505050508461089b565b9050600061120260068054806020026020016040519081016040528092919081815260200182805480156111f857602002820191906000526020600020905b8154815260200190600101908083116111e4575b5050505050610712565b600143034060001c8161121157fe5b06905060606113526005805480602002602001604051908101604052809291908181526020016000905b828210156112f7578382906000526020600020018054600181600116156101000203166002900480601f0160208091040260200160405190810160405280929190818152602001828054600181600116156101000203166002900480156112e35780601f106112b8576101008083540402835291602001916112e3565b820191906000526020600020905b8154815290600101906020018083116112c657829003601f168201915b50505050508152602001906001019061123b565b50505050600680548060200260200160405190810160405280929190818152602001828054801561134757602002820191906000526020600020905b815481526020019060010190808311611333575b50505050508461089b565b90506113638160008588606461075a565b505050505050565b816009600083815260200190815260200160002060020160006101000a81548173ffffffffffffffffffffffffffffffffffffffff021916908373ffffffffffffffffffffffffffffffffffffffff1602179055505050565b828054600181600116156101000203166002900490600052602060002090601f016020900481019282601f1061140557805160ff1916838001178555611433565b82800160010185558215611433579182015b82811115611432578251825591602001919060010190611417565b5b5090506114409190611444565b5090565b61146691905b8082111561146257600081600090555060010161144a565b5090565b90565b60008135905061147881611e51565b92915050565b600082601f83011261148f57600080fd5b81356114a261149d82611c93565b611c66565b9150818183526020840193506020810190508360005b838110156114e857813586016114ce8882611575565b8452602084019350602083019250506001810190506114b8565b5050505092915050565b600082601f83011261150357600080fd5b813561151661151182611cbb565b611c66565b9150818183526020840193506020810190508385602084028201111561153b57600080fd5b60005b8381101561156b5781611551888261161d565b84526020840193506020830192505060018101905061153e565b5050505092915050565b600082601f83011261158657600080fd5b813561159961159482611ce3565b611c66565b915080825260208301602083018583830111156115b557600080fd5b6115c0838284611dfe565b50505092915050565b600082601f8301126115da57600080fd5b81356115ed6115e882611d0f565b611c66565b9150808252602083016020830185838301111561160957600080fd5b611614838284611dfe565b50505092915050565b60008135905061162c81611e68565b92915050565b60006020828403121561164457600080fd5b600061165284828501611469565b91505092915050565b60008060006060848603121561167057600080fd5b600084013567ffffffffffffffff81111561168a57600080fd5b6116968682870161147e565b935050602084013567ffffffffffffffff8111156116b357600080fd5b6116bf868287016114f2565b92505060406116d08682870161161d565b9150509250925092565b6000602082840312156116ec57600080fd5b600082013567ffffffffffffffff81111561170657600080fd5b611712848285016114f2565b91505092915050565b600080600080600060a0868803121561173357600080fd5b600086013567ffffffffffffffff81111561174d57600080fd5b611759888289016115c9565b955050602061176a88828901611469565b945050604086013567ffffffffffffffff81111561178757600080fd5b611793888289016115c9565b935050606086013567ffffffffffffffff8111156117b057600080fd5b6117bc888289016115c9565b92505060806117cd8882890161161d565b9150509295509295909350565b6000602082840312156117ec57600080fd5b60006117fa8482850161161d565b91505092915050565b60008060006060848603121561181857600080fd5b60006118268682870161161d565b935050602061183786828701611469565b925050604061184886828701611469565b9150509250925092565b6000806000806080858703121561186857600080fd5b60006118768782880161161d565b945050602061188787828801611469565b93505060406118988782880161161d565b92505060606118a987828801611469565b91505092959194509250565b60006118c18383611a65565b905092915050565b6118d281611dac565b82525050565b6118e181611dac565b82525050565b60006118f282611d4b565b6118fc8185611d79565b93508360208202850161190e85611d3b565b8060005b8581101561194a578484038952815161192b85826118b5565b945061193683611d6c565b925060208a01995050600181019050611912565b50829750879550505050505092915050565b61196581611dbe565b82525050565b61197481611dca565b82525050565b600061198582611d61565b61198f8185611d9b565b935061199f818560208601611e0d565b6119a881611e40565b840191505092915050565b60006119be82611d56565b6119c88185611d8a565b93506119d8818560208601611e0d565b6119e181611e40565b840191505092915050565b60006119f782611d56565b611a018185611d9b565b9350611a11818560208601611e0d565b611a1a81611e40565b840191505092915050565b6000611a32600783611d9b565b91507f63617463686564000000000000000000000000000000000000000000000000006000830152602082019050919050565b600060e083016000830151611a7d6000860182611b0f565b5060208301518482036020860152611a9582826119b3565b9150506040830151611aaa60408601826118c9565b506060830151611abd6060860182611b0f565b5060808301518482036080860152611ad582826119b3565b91505060a083015184820360a0860152611aef82826119b3565b91505060c0830151611b0460c0860182611b0f565b508091505092915050565b611b1881611df4565b82525050565b611b2781611df4565b82525050565b60006020820190508181036000830152611b4781846118e7565b905092915050565b6000602082019050611b64600083018461195c565b92915050565b6000602082019050611b7f600083018461196b565b92915050565b60006020820190508181036000830152611b9f818461197a565b905092915050565b60006020820190508181036000830152611bc081611a25565b9050919050565b6000602082019050611bdc6000830184611b1e565b92915050565b600060e082019050611bf7600083018a611b1e565b8181036020830152611c0981896119ec565b9050611c1860408301886118d8565b611c256060830187611b1e565b8181036080830152611c3781866119ec565b905081810360a0830152611c4b81856119ec565b9050611c5a60c0830184611b1e565b98975050505050505050565b6000604051905081810181811067ffffffffffffffff82111715611c8957600080fd5b8060405250919050565b600067ffffffffffffffff821115611caa57600080fd5b602082029050602081019050919050565b600067ffffffffffffffff821115611cd257600080fd5b602082029050602081019050919050565b600067ffffffffffffffff821115611cfa57600080fd5b601f19601f8301169050602081019050919050565b600067ffffffffffffffff821115611d2657600080fd5b601f19601f8301169050602081019050919050565b6000819050602082019050919050565b600081519050919050565b600081519050919050565b600081519050919050565b6000602082019050919050565b600082825260208201905092915050565b600082825260208201905092915050565b600082825260208201905092915050565b6000611db782611dd4565b9050919050565b60008115159050919050565b6000819050919050565b600073ffffffffffffffffffffffffffffffffffffffff82169050919050565b6000819050919050565b82818337600083830152505050565b60005b83811015611e2b578082015181840152602081019050611e10565b83811115611e3a576000848401525b50505050565b6000601f19601f8301169050919050565b611e5a81611dac565b8114611e6557600080fd5b50565b611e7181611df4565b8114611e7c57600080fd5b5056fea365627a7a723158203b8ee9b8f9fb8ca4fbed1be5ee45fc23b3bd0410c85e1b525e6e27dd7f7dcdff6c6578706572696d656e74616cf564736f6c634300050c0040",
  "source": "pragma solidity ^0.5.8;\npragma experimental ABIEncoderV2;\n\n\ncontract Eirbmon{\n\n    struct _Eirbmon {\n        uint id;\n        string name;\n        address owner;\n        uint level;\n        string field;\n        string atk;\n        uint hp;\n    }\n    event SendEvent(string message);\n \n    uint public rnd = 1;\n\n    string[] private allAtk = [\"roulade\",\"petite bire\",\"brasse\",\"rattrapage\"];\n    uint[] private allAtkWeight = [0xa,0x6,0x3,0x1]; // poids entre 1 et 10 avec 1=> trs rare\n\n    string[] private allField = [\"RSI\",\"SEE\",\"Elec\",\"Matmeca\",\"Info\",\"Telecom\"];\n    uint[] private allFieldWeight = [0xa,0x8,0x6,0x4,0x2,0x1]; // poids entre 1 et 10 avec 1=> trs rare\n \n    string[] private allName = [\"nom1\",\"nom2\",\"nom3\",\"nom4\"];\n    uint[] private allNameWeight = [0xa,0x6,0x3,0x1]; // poids entre 1 et 10 avec 1=> trs rare\n\n    uint public eirbmonsCount = 0;\n    uint public registeredCount = 0;\n\n\n    mapping(uint => _Eirbmon) public _Eirbmons;\n    mapping(address => bool) public _registeredAccounts;\n\n    constructor () public {\n        addEirbmonToChain(\"Pikachu\",msg.sender,\"telecom\",\"roulade\",100);\n        addEirbmonToChain(\"Roucoul\",msg.sender,\"elec\",\"petite bire\",100);\n        addEirbmonToChain(\"Roucoul\",0x0000000000000000000000000000000000000000,\"info\",\"petite bire\",100);\n        addEirbmonToChain(\"Pikachu\",0x0000000000000000000000000000000000000000,\"SEE\",\"petite bire\",100);\n        generateAnNewEirbmon();\n    }\n\n    // ajoute un Eirbmon  la chaine\n    function  addEirbmonToChain(string memory name,address owner, string memory field, string memory atk, uint hp) public {\n        eirbmonsCount++;\n        _Eirbmons[eirbmonsCount] = _Eirbmon(eirbmonsCount,name,owner,0,field,atk,hp);\n    }\n \n    function initAccount() public {\n        require(!_registeredAccounts[msg.sender]);\n        _registeredAccounts[msg.sender] = true;\n        addEirbmonToChain(\"nom1\",msg.sender,\"RSI\",\"roulade\",40);\n    }\n\n    // gnre un nouvel Eirbmon random\n    function generateAnNewEirbmon() private {\n        // gnre un nombre entre 1 et la somme des poids  partir des 44 premiers nombres hex du hash\n        uint randAtkWeight = uint(uint(blockhash(block.number-1))/((0xf+1)**22))%sumArray(allAtkWeight)+1;\n        string memory selectedAtk = getValueFromRand(allAtk,allAtkWeight,randAtkWeight);\n\n        uint randFieldWeight = uint(uint(blockhash(block.number-1))/((0xf+1)**44))%sumArray(allFieldWeight);\n        string memory selectedField = getValueFromRand(allField,allFieldWeight,randFieldWeight);\n\n        uint randNameWeight = uint(uint(blockhash(block.number-1)))%sumArray(allNameWeight);\n        string memory selectedName = getValueFromRand(allName,allNameWeight,randNameWeight);\n\n        addEirbmonToChain(selectedName,0x0000000000000000000000000000000000000000,selectedField,selectedAtk,100);\n    }\n\n    // renvoie la valeur associ au nombre random pass en arguments en prenant en compte les poids de chaque valeur \n    function getValueFromRand(string[] memory valueArray,uint[] memory weightArray,uint randNameWeight) public pure returns(string memory) {\n        uint sum = 0x0;\n        for(uint i = 0;i < weightArray.length;i++){\n            sum += weightArray[i];\n            if(randNameWeight <= sum){\n                return valueArray[i];\n            }\n        }\n    }\n\n    //Fait la somme de tous les lments d'un tableau \n    function sumArray(uint[] memory _array) public pure returns(uint) {\n        uint sum = 0x0;\n         for(uint i;i < _array.length;i++){\n            sum += _array[i];\n        }\n        return sum;\n    }\n\n\n    // renvoie le nombre d'Eirbmon total\n    function getEirbmonCount() public view returns(uint)  {\n        return eirbmonsCount;\n    }\n\n    // renvoie les Eirbmons d'un compte\n    //attention  ne pas utiliser cet appel dans les fonctions de type write.\n    function getEirbmon(address owner) public view returns(_Eirbmon[] memory )  {\n            require(_registeredAccounts[owner]);\n            _Eirbmon[] memory ownerEirbmons;\n            uint j = 0;\n            for(uint i = 0; i < eirbmonsCount; i++){\n               if(_Eirbmons[i].owner == owner){\n                   ownerEirbmons[j] = _Eirbmons[i];\n                   j++;\n               }\n            }\n            return ownerEirbmons;\n    }\n\n    function isExisted(uint _EirbmonId) public view returns (bool){\n        return _EirbmonId<=eirbmonsCount;\n    }\n    function isOrphan(uint _EirbmonId) public view returns (bool){\n        return _Eirbmons[_EirbmonId].owner == 0x0000000000000000000000000000000000000000;\n    }\n\n    function getBlockNumber() public view returns(uint){\n        return block.number;\n    }\n    \n    function appropriateEirbmonToOwner(address owner,uint _EirbmonId) private {\n          //  require (_registeredAccounts[owner],\"Sender does not exist\");\n            _Eirbmons[_EirbmonId].owner = owner;\n    }\n\n    function catchEirbmon(uint _EirbmonId) public returns  (bytes32) {\n            require(isExisted(_EirbmonId));\n           // require(isOrphan(_EirbmonId));\n            generateAnNewEirbmon();\n            appropriateEirbmonToOwner(msg.sender,_EirbmonId);\n            emit SendEvent(\"catched\");\n    }\n\n\n     //Change the owner of an Eirbmon  \n    function changeEirbmonOwner(uint idEirbmon,address newOwner,address oldOwner ) public {\n        // require (_registeredAccounts[oldOwner],\"Sender does not exist\");\n       // require (oldOwner == _Eirbmons[idEirbmon].owner,\"Sender is not the owner\");\n        // require (_registeredAccounts[newOwner],\"Receiver does not exist\");\n        _Eirbmons[idEirbmon].owner = newOwner;\n    }\n\n    // tranfer an 2 Eirbmons\n      function transferEirbmon(uint idEirbmon1,address owner1,uint idEirbmon2,address owner2 ) public {\n          changeEirbmonOwner(idEirbmon2,owner1,owner2);\n          changeEirbmonOwner(idEirbmon1,owner2,owner1);\n    }\n\n}\n\n\n// lorsque le joueur commence, il a les choix entre 3 eirbmons, \n// lorsqu'il en choisit 1, il en devient le proprio et cela cr alors 1 nouvel Eirbmon\n// qui dpend : du hash du block prcdent, de l'adresse du joueur fois id de l'eirbmon modulo 10, et le 3e chiffre et la multi des 2 premiers modulo 10\n",
  "sourcePath": "/home/jcdeville/Bureau/Eirbmon/Blockchain/contracts/Eirbmon.sol",
  "compiler": {
    "name": "solc",
    "version": "0.5.12+commit.7709ece9.Emscripten.clang"
  },
  "schemaVersion": "3.0.19",
  "updatedAt": "2019-12-08T09:19:57.991Z",
  "networkType": "ethereum",
  "devdoc": {
    "methods": {}
  },
  "userdoc": {
    "methods": {}
  }
}