{
  "contractName": "Eirbmon",
  "abi": [
    {
      "inputs": [],
      "payable": false,
      "stateMutability": "nonpayable",
      "type": "constructor"
    },
    {
      "anonymous": false,
      "inputs": [
        {
          "indexed": false,
          "internalType": "string",
          "name": "message",
          "type": "string"
        }
      ],
      "name": "SendEvent",
      "type": "event"
    },
    {
      "constant": true,
      "inputs": [
        {
          "internalType": "uint256",
          "name": "",
          "type": "uint256"
        }
      ],
      "name": "_Eirbmons",
      "outputs": [
        {
          "internalType": "uint256",
          "name": "id",
          "type": "uint256"
        },
        {
          "internalType": "string",
          "name": "name",
          "type": "string"
        },
        {
          "internalType": "address payable",
          "name": "owner",
          "type": "address"
        },
        {
          "internalType": "uint256",
          "name": "evolve",
          "type": "uint256"
        },
        {
          "internalType": "string",
          "name": "field",
          "type": "string"
        },
        {
          "internalType": "uint256",
          "name": "hp",
          "type": "uint256"
        },
        {
          "internalType": "uint256",
          "name": "canBeExhangedTo",
          "type": "uint256"
        },
        {
          "internalType": "uint256",
          "name": "price",
          "type": "uint256"
        },
        {
          "internalType": "bool",
          "name": "canBeSelled",
          "type": "bool"
        },
        {
          "internalType": "uint256",
          "name": "value",
          "type": "uint256"
        },
        {
          "internalType": "uint256",
          "name": "birthDate",
          "type": "uint256"
        }
      ],
      "payable": false,
      "stateMutability": "view",
      "type": "function"
    },
    {
      "constant": true,
      "inputs": [
        {
          "internalType": "address",
          "name": "",
          "type": "address"
        }
      ],
      "name": "_registeredAccounts",
      "outputs": [
        {
          "internalType": "bool",
          "name": "",
          "type": "bool"
        }
      ],
      "payable": false,
      "stateMutability": "view",
      "type": "function"
    },
    {
      "constant": true,
      "inputs": [],
      "name": "eirbmonsCount",
      "outputs": [
        {
          "internalType": "uint256",
          "name": "",
          "type": "uint256"
        }
      ],
      "payable": false,
      "stateMutability": "view",
      "type": "function"
    },
    {
      "constant": true,
      "inputs": [],
      "name": "registeredCount",
      "outputs": [
        {
          "internalType": "uint256",
          "name": "",
          "type": "uint256"
        }
      ],
      "payable": false,
      "stateMutability": "view",
      "type": "function"
    },
    {
      "constant": false,
      "inputs": [
        {
          "internalType": "string",
          "name": "name",
          "type": "string"
        },
        {
          "internalType": "address payable",
          "name": "owner",
          "type": "address"
        },
        {
          "internalType": "string",
          "name": "field",
          "type": "string"
        },
        {
          "internalType": "uint256",
          "name": "atk1",
          "type": "uint256"
        },
        {
          "internalType": "uint256",
          "name": "atk2",
          "type": "uint256"
        },
        {
          "internalType": "uint256",
          "name": "atk3",
          "type": "uint256"
        },
        {
          "internalType": "uint256",
          "name": "hp",
          "type": "uint256"
        },
        {
          "internalType": "uint256",
          "name": "value",
          "type": "uint256"
        }
      ],
      "name": "addEirbmonToChain",
      "outputs": [],
      "payable": false,
      "stateMutability": "nonpayable",
      "type": "function"
    },
    {
      "constant": false,
      "inputs": [],
      "name": "initAccount",
      "outputs": [],
      "payable": false,
      "stateMutability": "nonpayable",
      "type": "function"
    },
    {
      "constant": true,
      "inputs": [
        {
          "internalType": "uint256[]",
          "name": "weightArray",
          "type": "uint256[]"
        },
        {
          "internalType": "uint256",
          "name": "randNameWeight",
          "type": "uint256"
        }
      ],
      "name": "getValueFromRand",
      "outputs": [
        {
          "internalType": "uint256",
          "name": "",
          "type": "uint256"
        }
      ],
      "payable": false,
      "stateMutability": "pure",
      "type": "function"
    },
    {
      "constant": true,
      "inputs": [],
      "name": "getEirbmonCount",
      "outputs": [
        {
          "internalType": "uint256",
          "name": "",
          "type": "uint256"
        }
      ],
      "payable": false,
      "stateMutability": "view",
      "type": "function"
    },
    {
      "constant": true,
      "inputs": [
        {
          "internalType": "address",
          "name": "owner",
          "type": "address"
        }
      ],
      "name": "getEirbmon",
      "outputs": [
        {
          "components": [
            {
              "internalType": "uint256",
              "name": "id",
              "type": "uint256"
            },
            {
              "internalType": "string",
              "name": "name",
              "type": "string"
            },
            {
              "internalType": "address payable",
              "name": "owner",
              "type": "address"
            },
            {
              "internalType": "uint256",
              "name": "evolve",
              "type": "uint256"
            },
            {
              "internalType": "string",
              "name": "field",
              "type": "string"
            },
            {
              "internalType": "uint256[3]",
              "name": "atk",
              "type": "uint256[3]"
            },
            {
              "internalType": "uint256",
              "name": "hp",
              "type": "uint256"
            },
            {
              "internalType": "uint256",
              "name": "canBeExhangedTo",
              "type": "uint256"
            },
            {
              "internalType": "uint256",
              "name": "price",
              "type": "uint256"
            },
            {
              "internalType": "bool",
              "name": "canBeSelled",
              "type": "bool"
            },
            {
              "internalType": "uint256",
              "name": "value",
              "type": "uint256"
            },
            {
              "internalType": "uint256",
              "name": "birthDate",
              "type": "uint256"
            }
          ],
          "internalType": "struct Eirbmon._Eirbmon[]",
          "name": "",
          "type": "tuple[]"
        }
      ],
      "payable": false,
      "stateMutability": "view",
      "type": "function"
    },
    {
      "constant": true,
      "inputs": [
        {
          "internalType": "uint256",
          "name": "_eirbmonId",
          "type": "uint256"
        }
      ],
      "name": "getAtks",
      "outputs": [
        {
          "internalType": "uint256[3]",
          "name": "",
          "type": "uint256[3]"
        }
      ],
      "payable": false,
      "stateMutability": "view",
      "type": "function"
    },
    {
      "constant": true,
      "inputs": [
        {
          "internalType": "uint256",
          "name": "_EirbmonId",
          "type": "uint256"
        }
      ],
      "name": "isExisted",
      "outputs": [
        {
          "internalType": "bool",
          "name": "",
          "type": "bool"
        }
      ],
      "payable": false,
      "stateMutability": "view",
      "type": "function"
    },
    {
      "constant": true,
      "inputs": [
        {
          "internalType": "uint256",
          "name": "_EirbmonId",
          "type": "uint256"
        }
      ],
      "name": "isOrphan",
      "outputs": [
        {
          "internalType": "bool",
          "name": "",
          "type": "bool"
        }
      ],
      "payable": false,
      "stateMutability": "view",
      "type": "function"
    },
    {
      "constant": false,
      "inputs": [
        {
          "internalType": "uint256",
          "name": "_EirbmonId",
          "type": "uint256"
        }
      ],
      "name": "catchEirbmon",
      "outputs": [
        {
          "internalType": "bytes32",
          "name": "",
          "type": "bytes32"
        }
      ],
      "payable": false,
      "stateMutability": "nonpayable",
      "type": "function"
    },
    {
      "constant": false,
      "inputs": [
        {
          "internalType": "uint256",
          "name": "myEirbmonId",
          "type": "uint256"
        },
        {
          "internalType": "uint256",
          "name": "hisEirbmonId",
          "type": "uint256"
        }
      ],
      "name": "exchangeMyEirbmonTo",
      "outputs": [],
      "payable": false,
      "stateMutability": "nonpayable",
      "type": "function"
    },
    {
      "constant": false,
      "inputs": [
        {
          "internalType": "uint256",
          "name": "eirbmonId",
          "type": "uint256"
        }
      ],
      "name": "ableSaleEirbmon",
      "outputs": [],
      "payable": false,
      "stateMutability": "nonpayable",
      "type": "function"
    },
    {
      "constant": false,
      "inputs": [
        {
          "internalType": "uint256",
          "name": "eirbmonId",
          "type": "uint256"
        },
        {
          "internalType": "uint256",
          "name": "price",
          "type": "uint256"
        }
      ],
      "name": "saleEirbmon",
      "outputs": [],
      "payable": false,
      "stateMutability": "nonpayable",
      "type": "function"
    },
    {
      "constant": false,
      "inputs": [
        {
          "internalType": "uint256",
          "name": "eirbmonId",
          "type": "uint256"
        }
      ],
      "name": "byEirbmon",
      "outputs": [],
      "payable": true,
      "stateMutability": "payable",
      "type": "function"
    },
    {
      "constant": true,
      "inputs": [
        {
          "internalType": "uint256",
          "name": "Id",
          "type": "uint256"
        }
      ],
      "name": "getEirbmonAge",
      "outputs": [
        {
          "internalType": "uint256",
          "name": "time",
          "type": "uint256"
        }
      ],
      "payable": false,
      "stateMutability": "view",
      "type": "function"
    },
    {
      "constant": true,
      "inputs": [
        {
          "internalType": "uint256",
          "name": "id",
          "type": "uint256"
        }
      ],
      "name": "getAtk",
      "outputs": [
        {
          "internalType": "uint256[3]",
          "name": "",
          "type": "uint256[3]"
        }
      ],
      "payable": false,
      "stateMutability": "view",
      "type": "function"
    },
    {
      "constant": true,
      "inputs": [
        {
          "internalType": "uint256",
          "name": "sumArray",
          "type": "uint256"
        },
        {
          "internalType": "string[]",
          "name": "valueArray",
          "type": "string[]"
        },
        {
          "internalType": "uint256[]",
          "name": "weightArray",
          "type": "uint256[]"
        },
        {
          "internalType": "string",
          "name": "research",
          "type": "string"
        }
      ],
      "name": "getValueFromWeight",
      "outputs": [
        {
          "internalType": "uint256",
          "name": "",
          "type": "uint256"
        }
      ],
      "payable": false,
      "stateMutability": "pure",
      "type": "function"
    },
    {
      "constant": true,
      "inputs": [
        {
          "internalType": "uint256",
          "name": "_EirbmonId",
          "type": "uint256"
        }
      ],
      "name": "getValue",
      "outputs": [
        {
          "internalType": "uint256",
          "name": "",
          "type": "uint256"
        }
      ],
      "payable": false,
      "stateMutability": "view",
      "type": "function"
    },
    {
      "constant": false,
      "inputs": [
        {
          "internalType": "uint256",
          "name": "eirbmonId",
          "type": "uint256"
        },
        {
          "internalType": "string",
          "name": "evolutionName",
          "type": "string"
        }
      ],
      "name": "evolveEirbmon",
      "outputs": [],
      "payable": false,
      "stateMutability": "nonpayable",
      "type": "function"
    }
  ],
  "bytecode": "0x6080604052604051806101400160405280600160ff168152602001600260ff168152602001600360ff168152602001600460ff168152602001600560ff168152602001600660ff168152602001600760ff168152602001600860ff168152602001600960ff168152602001600a60ff16815250600090600a6200008492919062000b78565b506040518060c001604052806040518060400160405280600381526020017f525349000000000000000000000000000000000000000000000000000000000081525081526020016040518060400160405280600381526020017f534545000000000000000000000000000000000000000000000000000000000081525081526020016040518060400160405280600481526020017f456c65630000000000000000000000000000000000000000000000000000000081525081526020016040518060400160405280600781526020017f4d61746d6563610000000000000000000000000000000000000000000000000081525081526020016040518060400160405280600481526020017f496e666f0000000000000000000000000000000000000000000000000000000081525081526020016040518060400160405280600781526020017f54656c65636f6d0000000000000000000000000000000000000000000000000081525081525060019060066200020292919062000bcf565b506040518060c00160405280600a60ff168152602001600860ff168152602001600660ff168152602001600460ff168152602001600260ff168152602001600160ff1681525060029060066200025a92919062000c36565b50601f60035560405180608001604052806040518060400160405280600781526020017f526f75636f756c0000000000000000000000000000000000000000000000000081525081526020016040518060400160405280600981526020017f53616c616d65636865000000000000000000000000000000000000000000000081525081526020016040518060400160405280600881526020017f436172617075636500000000000000000000000000000000000000000000000081525081526020016040518060400160405280600781526020017f50696b616368750000000000000000000000000000000000000000000000000081525081525060049060046200036792919062000c8d565b506040518060800160405280600a60ff168152602001600660ff168152602001600360ff168152602001600160ff168152506005906004620003ab92919062000cf4565b50601460065560006007556000600855348015620003c857600080fd5b50620004506040518060400160405280600781526020017f50696b6163687500000000000000000000000000000000000000000000000000815250336040518060400160405280600781526020017f54656c65636f6d000000000000000000000000000000000000000000000000008152506001600260036064603b620004fd60201b60201c565b620004d76040518060400160405280600781526020017f526f75636f756c00000000000000000000000000000000000000000000000000815250336040518060400160405280600481526020017f496e666f0000000000000000000000000000000000000000000000000000000081525060016002600360646026620004fd60201b60201c565b620004e7620006c460201b60201c565b620004f7620006c460201b60201c565b62000ebc565b60076000815480929190600101919050555060405180610180016040528060075481526020018981526020018873ffffffffffffffffffffffffffffffffffffffff168152602001600081526020018781526020016040518060600160405280888152602001878152602001868152508152602001838152602001600081526020016000815260200160001515815260200182815260200142815250600960006007548152602001908152602001600020600082015181600001556020820151816001019080519060200190620005d692919062000d4b565b5060408201518160020160006101000a81548173ffffffffffffffffffffffffffffffffffffffff021916908373ffffffffffffffffffffffffffffffffffffffff1602179055506060820151816003015560808201518160040190805190602001906200064692919062000d4b565b5060a0820151816005019060036200066092919062000dd2565b5060c0820151816008015560e0820151816009015561010082015181600a015561012082015181600b0160006101000a81548160ff02191690831515021790555061014082015181600c015561016082015181600d01559050505050505050505050565b6000620006f6602d62100000600143034060001c81620006e057fe5b0481620006e957fe5b0662000ac160201b60201c565b905060006200072d602d65010000000000600143034060001c816200071757fe5b04816200072057fe5b0662000ac160201b60201c565b9050600062000767602d68010000000000000000600143034060001c816200075157fe5b04816200075a57fe5b0662000ac160201b60201c565b905060006001600354700100000000000000000000000000000000600143034060001c816200079257fe5b04816200079b57fe5b060190506000620008056002805480602002602001604051908101604052809291908181526020018280548015620007f357602002820191906000526020600020905b815481526020019060010190808311620007de575b50505050508362000b1e60201b60201c565b9050600060016006547801000000000000000000000000000000000000000000000000600143034060001c816200083857fe5b04816200084157fe5b060190506000620008ab60058054806020026020016040519081016040528092919081815260200182805480156200089957602002820191906000526020600020905b81548152602001906001019080831162000884575b50505050508362000b1e60201b60201c565b90506000600a608c600143034060001c81620008c357fe5b060190506000600a60028681548110620008d957fe5b9060005260206000200154600b036003540281620008f357fe5b04600a600585815481106200090457fe5b9060005260206000200154600b0360065402816200091e57fe5b04600784816200092a57fe5b04898b8d0101010101905062000ab6600484815481106200094757fe5b906000526020600020018054600181600116156101000203166002900480601f016020809104026020016040519081016040528092919081815260200182805460018160011615610100020316600290048015620009e95780601f10620009bd57610100808354040283529160200191620009e9565b820191906000526020600020905b815481529060010190602001808311620009cb57829003601f168201915b5050505050600060018881548110620009fe57fe5b906000526020600020018054600181600116156101000203166002900480601f01602080910402602001604051908101604052809291908181526020018280546001816001161561010002031660029004801562000aa05780601f1062000a745761010080835404028352916020019162000aa0565b820191906000526020600020905b81548152906001019060200180831162000a8257829003601f168201915b50505050508c8c8c8888620004fd60201b60201c565b505050505050505050565b6000806000905060008090505b602d81101562000b16576000818154811062000ae657fe5b90600052602060002001548201915081841162000b0857809250505062000b19565b808060010191505062000ace565b50505b919050565b6000806000905060008090505b845181101562000b6f5784818151811062000b4257fe5b60200260200101518201915081841162000b6157809250505062000b72565b808060010191505062000b2b565b50505b92915050565b82805482825590600052602060002090810192821562000bbc579160200282015b8281111562000bbb578251829060ff1690559160200191906001019062000b99565b5b50905062000bcb919062000e17565b5090565b82805482825590600052602060002090810192821562000c23579160200282015b8281111562000c2257825182908051906020019062000c1192919062000d4b565b509160200191906001019062000bf0565b5b50905062000c32919062000e3f565b5090565b82805482825590600052602060002090810192821562000c7a579160200282015b8281111562000c79578251829060ff1690559160200191906001019062000c57565b5b50905062000c89919062000e17565b5090565b82805482825590600052602060002090810192821562000ce1579160200282015b8281111562000ce057825182908051906020019062000ccf92919062000d4b565b509160200191906001019062000cae565b5b50905062000cf0919062000e3f565b5090565b82805482825590600052602060002090810192821562000d38579160200282015b8281111562000d37578251829060ff1690559160200191906001019062000d15565b5b50905062000d47919062000e17565b5090565b828054600181600116156101000203166002900490600052602060002090601f016020900481019282601f1062000d8e57805160ff191683800117855562000dbf565b8280016001018555821562000dbf579182015b8281111562000dbe57825182559160200191906001019062000da1565b5b50905062000dce919062000e17565b5090565b826003810192821562000e04579160200282015b8281111562000e0357825182559160200191906001019062000de6565b5b50905062000e13919062000e17565b5090565b62000e3c91905b8082111562000e3857600081600090555060010162000e1e565b5090565b90565b62000e6d91905b8082111562000e69576000818162000e5f919062000e70565b5060010162000e46565b5090565b90565b50805460018160011615610100020316600290046000825580601f1062000e98575062000eb9565b601f01602090049060005260206000209081019062000eb8919062000e17565b5b50565b6137228062000ecc6000396000f3fe6080604052600436106101345760003560e01c8063819308a7116100ab578063c80f760c1161006f578063c80f760c14610460578063cbb3abd11461048b578063d4a14712146104d2578063e1ba8bba146104fb578063edcacf3814610538578063fff39a511461057557610134565b8063819308a714610378578063853a5c54146103b55780638a939e6a146103f2578063976d56c71461040e578063c54160bc1461043757610134565b8063210ff9bb116100fd578063210ff9bb14610242578063407a1b901461026d5780634ec1ce21146102aa57806354835809146102c15780635c824d7a146102fe57806380aa3ee61461033b57610134565b80621931d0146101395780630abc5de5146101765780630ff4c9161461019f5780631f9e2723146101dc578063203f075314610205575b600080fd5b34801561014557600080fd5b50610160600480360361015b91908101906128e1565b6105a0565b60405161016d91906131d1565b60405180910390f35b34801561018257600080fd5b5061019d60048036036101989190810190612b68565b610910565b005b3480156101ab57600080fd5b506101c660048036036101c19190810190612a40565b610942565b6040516101d39190613364565b60405180910390f35b3480156101e857600080fd5b5061020360048036036101fe9190810190612b14565b610dd2565b005b34801561021157600080fd5b5061022c60048036036102279190810190612a40565b61109b565b6040516102399190613364565b60405180910390f35b34801561024e57600080fd5b506102576110bd565b6040516102649190613364565b60405180910390f35b34801561027957600080fd5b50610294600480360361028f9190810190612a40565b6110c3565b6040516102a191906131f3565b60405180910390f35b3480156102b657600080fd5b506102bf611124565b005b3480156102cd57600080fd5b506102e860048036036102e39190810190612a69565b61125c565b6040516102f59190613364565b60405180910390f35b34801561030a57600080fd5b50610325600480360361032091908101906128e1565b611316565b604051610332919061320e565b60405180910390f35b34801561034757600080fd5b50610362600480360361035d9190810190612a40565b611336565b60405161036f919061320e565b60405180910390f35b34801561038457600080fd5b5061039f600480360361039a9190810190612a40565b6113a4565b6040516103ac9190613229565b60405180910390f35b3480156103c157600080fd5b506103dc60048036036103d7919081019061290a565b611482565b6040516103e99190613364565b60405180910390f35b61040c60048036036104079190810190612a40565b6114d7565b005b34801561041a57600080fd5b5061043560048036036104309190810190612a40565b61183c565b005b34801561044357600080fd5b5061045e6004803603610459919081019061295e565b61197d565b005b34801561046c57600080fd5b50610475611b3e565b6040516104829190613364565b60405180910390f35b34801561049757600080fd5b506104b260048036036104ad9190810190612a40565b611b44565b6040516104c99b9a9998979695949392919061337f565b60405180910390f35b3480156104de57600080fd5b506104f960048036036104f49190810190612b68565b611cfb565b005b34801561050757600080fd5b50610522600480360361051d9190810190612a40565b611edd565b60405161052f919061320e565b60405180910390f35b34801561054457600080fd5b5061055f600480360361055a9190810190612a40565b611eec565b60405161056c91906131f3565b60405180910390f35b34801561058157600080fd5b5061058a611f4d565b6040516105979190613364565b60405180910390f35b6060600a60008373ffffffffffffffffffffffffffffffffffffffff1673ffffffffffffffffffffffffffffffffffffffff16815260200190815260200160002060009054906101000a900460ff166105f857600080fd5b6060600080905060008090505b600754811015610905578473ffffffffffffffffffffffffffffffffffffffff166009600083815260200190815260200160002060020160009054906101000a900473ffffffffffffffffffffffffffffffffffffffff1673ffffffffffffffffffffffffffffffffffffffff1614156108f857600960008281526020019081526020016000206040518061018001604052908160008201548152602001600182018054600181600116156101000203166002900480601f01602080910402602001604051908101604052809291908181526020018280546001816001161561010002031660029004801561073b5780601f106107105761010080835404028352916020019161073b565b820191906000526020600020905b81548152906001019060200180831161071e57829003601f168201915b505050505081526020016002820160009054906101000a900473ffffffffffffffffffffffffffffffffffffffff1673ffffffffffffffffffffffffffffffffffffffff1673ffffffffffffffffffffffffffffffffffffffff16815260200160038201548152602001600482018054600181600116156101000203166002900480601f01602080910402602001604051908101604052809291908181526020018280546001816001161561010002031660029004801561083d5780601f106108125761010080835404028352916020019161083d565b820191906000526020600020905b81548152906001019060200180831161082057829003601f168201915b5050505050815260200160058201600380602002604051908101604052809291908260038015610882576020028201915b81548152602001906001019080831161086e575b505050505081526020016008820154815260200160098201548152602001600a8201548152602001600b820160009054906101000a900460ff16151515158152602001600c8201548152602001600d820154815250508383815181106108e457fe5b602002602001018190525081806001019250505b8080600101915050610605565b508192505050919050565b6109198261183c565b80670de0b6b3a76400000260096000848152602001908152602001600020600a01819055505050565b6000600760096000848152602001908152602001600020600801548161096457fe5b04610b526003546001805480602002602001604051908101604052809291908181526020016000905b82821015610a49578382906000526020600020018054600181600116156101000203166002900480601f016020809104026020016040519081016040528092919081815260200182805460018160011615610100020316600290048015610a355780601f10610a0a57610100808354040283529160200191610a35565b820191906000526020600020905b815481529060010190602001808311610a1857829003601f168201915b50505050508152602001906001019061098d565b505050506002805480602002602001604051908101604052809291908181526020018280548015610a9957602002820191906000526020600020905b815481526020019060010190808311610a85575b5050505050600960008881526020019081526020016000206004018054600181600116156101000203166002900480601f016020809104026020016040519081016040528092919081815260200182805460018160011615610100020316600290048015610b485780601f10610b1d57610100808354040283529160200191610b48565b820191906000526020600020905b815481529060010190602001808311610b2b57829003601f168201915b505050505061125c565b610d3f6006546004805480602002602001604051908101604052809291908181526020016000905b82821015610c36578382906000526020600020018054600181600116156101000203166002900480601f016020809104026020016040519081016040528092919081815260200182805460018160011615610100020316600290048015610c225780601f10610bf757610100808354040283529160200191610c22565b820191906000526020600020905b815481529060010190602001808311610c0557829003601f168201915b505050505081526020019060010190610b7a565b505050506005805480602002602001604051908101604052809291908181526020018280548015610c8657602002820191906000526020600020905b815481526020019060010190808311610c72575b5050505050600960008981526020019081526020016000206001018054600181600116156101000203166002900480601f016020809104026020016040519081016040528092919081815260200182805460018160011615610100020316600290048015610d355780601f10610d0a57610100808354040283529160200191610d35565b820191906000526020600020905b815481529060010190602001808311610d1857829003601f168201915b505050505061125c565b60096000868152602001908152602001600020600501600260038110610d6157fe5b015460096000878152602001908152602001600020600501600160038110610d8557fe5b015460096000888152602001908152602001600020600501600060038110610da957fe5b01546002600960008a815260200190815260200160002060030154020101010101019050919050565b3373ffffffffffffffffffffffffffffffffffffffff166009600084815260200190815260200160002060020160009054906101000a900473ffffffffffffffffffffffffffffffffffffffff1673ffffffffffffffffffffffffffffffffffffffff1614610e76576040517f08c379a0000000000000000000000000000000000000000000000000000000008152600401610e6d90613264565b60405180910390fd5b80600960008481526020019081526020016000206001019080519060200190610ea092919061257c565b5060016009600084815260200190815260200160002060030154016009600084815260200190815260200160002060030181905550610f06600260096000858152602001908152602001600020600501600160038110610efc57fe5b0154016009611f57565b60096000848152602001908152602001600020600501600160038110610f2857fe5b0181905550610f5e600260096000858152602001908152602001600020600501600260038110610f5457fe5b0154016009611f57565b60096000848152602001908152602001600020600501600260038110610f8057fe5b0181905550610fb6600260096000858152602001908152602001600020600501600060038110610fac57fe5b0154016009611f57565b60096000848152602001908152602001600020600501600060038110610fd857fe5b01819055506028600960008481526020019081526020016000206003015402600960008481526020019081526020016000206008015401600960008481526020019081526020016000206008018190555060006009600084815260200190815260200160002060090181905550600060096000848152602001908152602001600020600b0160006101000a81548160ff02191690831515021790555061107d82610942565b60096000848152602001908152602001600020600c01819055505050565b600060096000838152602001908152602001600020600d015442039050919050565b60085481565b6110cb6125fc565b60096000838152602001908152602001600020600501600380602002604051908101604052809291908260038015611118576020028201915b815481526020019060010190808311611104575b50505050509050919050565b600a60003373ffffffffffffffffffffffffffffffffffffffff1673ffffffffffffffffffffffffffffffffffffffff16815260200190815260200160002060009054906101000a900460ff161561117b57600080fd5b6001600a60003373ffffffffffffffffffffffffffffffffffffffff1673ffffffffffffffffffffffffffffffffffffffff16815260200190815260200160002060006101000a81548160ff0219169083151502179055506112526040518060400160405280600781526020017f526f75636f756c00000000000000000000000000000000000000000000000000815250336040518060400160405280600381526020017f52534900000000000000000000000000000000000000000000000000000000008152506001600260036028600461197d565b61125a611f70565b565b600080600090505b845181101561130c578260405160200161127e91906131ba565b604051602081830303815290604052805190602001208582815181106112a057fe5b60200260200101516040516020016112b891906131a3565b6040516020818303038152906040528051906020012014156112ff57600a8482815181106112e257fe5b6020026020010151600b038702816112f657fe5b0491505061130e565b8080600101915050611264565b505b949350505050565b600a6020528060005260406000206000915054906101000a900460ff1681565b60008073ffffffffffffffffffffffffffffffffffffffff166009600084815260200190815260200160002060020160009054906101000a900473ffffffffffffffffffffffffffffffffffffffff1673ffffffffffffffffffffffffffffffffffffffff16149050919050565b60006113af82611edd565b6113ee576040517f08c379a00000000000000000000000000000000000000000000000000000000081526004016113e5906132e4565b60405180910390fd5b6113f782611336565b611436576040517f08c379a000000000000000000000000000000000000000000000000000000000815260040161142d90613244565b60405180910390fd5b61143e611f70565b611448338361231f565b7f01929b1546ac5c8cbd09f19de437245776c852d26202ac70ef8ede5dbb2e29b3604051611475906132c4565b60405180910390a1919050565b6000806000905060008090505b84518110156114ce578481815181106114a457fe5b6020026020010151820191508184116114c15780925050506114d1565b808060010191505061148f565b50505b92915050565b60096000828152602001908152602001600020600b0160009054906101000a900460ff1661153a576040517f08c379a000000000000000000000000000000000000000000000000000000000815260040161153190613284565b60405180910390fd5b3373ffffffffffffffffffffffffffffffffffffffff166009600083815260200190815260200160002060020160009054906101000a900473ffffffffffffffffffffffffffffffffffffffff1673ffffffffffffffffffffffffffffffffffffffff1614156115df576040517f08c379a00000000000000000000000000000000000000000000000000000000081526004016115d690613344565b60405180910390fd5b3460096000838152602001908152602001600020600a015410611637576040517f08c379a000000000000000000000000000000000000000000000000000000000815260040161162e90613284565b60405180910390fd5b600a60003373ffffffffffffffffffffffffffffffffffffffff1673ffffffffffffffffffffffffffffffffffffffff16815260200190815260200160002060009054906101000a900460ff166116c3576040517f08c379a00000000000000000000000000000000000000000000000000000000081526004016116ba906132a4565b60405180910390fd5b6009600082815260200190815260200160002060020160009054906101000a900473ffffffffffffffffffffffffffffffffffffffff1673ffffffffffffffffffffffffffffffffffffffff166108fc60096000848152602001908152602001600020600a01549081150290604051600060405180830381858888f19350505050158015611755573d6000803e3d6000fd5b503373ffffffffffffffffffffffffffffffffffffffff166108fc60096000848152602001908152602001600020600a015434039081150290604051600060405180830381858888f193505050501580156117b4573d6000803e3d6000fd5b50336009600083815260200190815260200160002060020160006101000a81548173ffffffffffffffffffffffffffffffffffffffff021916908373ffffffffffffffffffffffffffffffffffffffff160217905550600060096000838152602001908152602001600020600b0160006101000a81548160ff02191690831515021790555050565b61184581611edd565b611884576040517f08c379a000000000000000000000000000000000000000000000000000000000815260040161187b906132e4565b60405180910390fd5b6009600082815260200190815260200160002060020160009054906101000a900473ffffffffffffffffffffffffffffffffffffffff1673ffffffffffffffffffffffffffffffffffffffff163373ffffffffffffffffffffffffffffffffffffffff1614611928576040517f08c379a000000000000000000000000000000000000000000000000000000000815260040161191f90613324565b60405180910390fd5b600160096000838152602001908152602001600020600b0160006101000a81548160ff02191690831515021790555061196081610942565b60096000838152602001908152602001600020600a018190555050565b60076000815480929190600101919050555060405180610180016040528060075481526020018981526020018873ffffffffffffffffffffffffffffffffffffffff168152602001600081526020018781526020016040518060600160405280888152602001878152602001868152508152602001838152602001600081526020016000815260200160001515815260200182815260200142815250600960006007548152602001908152602001600020600082015181600001556020820151816001019080519060200190611a5492919061261e565b5060408201518160020160006101000a81548173ffffffffffffffffffffffffffffffffffffffff021916908373ffffffffffffffffffffffffffffffffffffffff160217905550606082015181600301556080820151816004019080519060200190611ac292919061261e565b5060a082015181600501906003611ada92919061269e565b5060c0820151816008015560e0820151816009015561010082015181600a015561012082015181600b0160006101000a81548160ff02191690831515021790555061014082015181600c015561016082015181600d01559050505050505050505050565b60075481565b6009602052806000526040600020600091509050806000015490806001018054600181600116156101000203166002900480601f016020809104026020016040519081016040528092919081815260200182805460018160011615610100020316600290048015611bf65780601f10611bcb57610100808354040283529160200191611bf6565b820191906000526020600020905b815481529060010190602001808311611bd957829003601f168201915b5050505050908060020160009054906101000a900473ffffffffffffffffffffffffffffffffffffffff1690806003015490806004018054600181600116156101000203166002900480601f016020809104026020016040519081016040528092919081815260200182805460018160011615610100020316600290048015611cc05780601f10611c9557610100808354040283529160200191611cc0565b820191906000526020600020905b815481529060010190602001808311611ca357829003601f168201915b50505050509080600801549080600901549080600a01549080600b0160009054906101000a900460ff169080600c01549080600d015490508b565b600a60003373ffffffffffffffffffffffffffffffffffffffff1673ffffffffffffffffffffffffffffffffffffffff16815260200190815260200160002060009054906101000a900460ff16611d87576040517f08c379a0000000000000000000000000000000000000000000000000000000008152600401611d7e906132a4565b60405180910390fd5b6009600083815260200190815260200160002060020160009054906101000a900473ffffffffffffffffffffffffffffffffffffffff1673ffffffffffffffffffffffffffffffffffffffff163373ffffffffffffffffffffffffffffffffffffffff1614611e2b576040517f08c379a0000000000000000000000000000000000000000000000000000000008152600401611e2290613324565b60405180910390fd5b611e3481611336565b15611e74576040517f08c379a0000000000000000000000000000000000000000000000000000000008152600401611e6b90613304565b60405180910390fd5b8160096000838152602001908152602001600020600901541415611ebd5760006009600083815260200190815260200160002060090181905550611eb88282612404565b611ed9565b8060096000848152602001908152602001600020600901819055505b5050565b60006007548211159050919050565b611ef46125fc565b60096000838152602001908152602001600020600501600380602002604051908101604052809291908260038015611f41576020028201915b815481526020019060010190808311611f2d575b50505050509050919050565b6000600754905090565b6000818310611f665781611f68565b825b905092915050565b6000611f98602d62100000600143034060001c81611f8a57fe5b0481611f9257fe5b06612524565b90506000611fc5602d65010000000000600143034060001c81611fb757fe5b0481611fbf57fe5b06612524565b90506000611ff5602d68010000000000000000600143034060001c81611fe757fe5b0481611fef57fe5b06612524565b905060006001600354700100000000000000000000000000000000600143034060001c8161201f57fe5b048161202757fe5b060190506000612087600280548060200260200160405190810160405280929190818152602001828054801561207c57602002820191906000526020600020905b815481526020019060010190808311612068575b505050505083611482565b9050600060016006547801000000000000000000000000000000000000000000000000600143034060001c816120b957fe5b04816120c157fe5b060190506000612121600580548060200260200160405190810160405280929190818152602001828054801561211657602002820191906000526020600020905b815481526020019060010190808311612102575b505050505083611482565b90506000600a608c600143034060001c8161213857fe5b060190506000600a6002868154811061214d57fe5b9060005260206000200154600b03600354028161216657fe5b04600a6005858154811061217657fe5b9060005260206000200154600b03600654028161218f57fe5b046007848161219a57fe5b04898b8d01010101019050612314600484815481106121b557fe5b906000526020600020018054600181600116156101000203166002900480601f0160208091040260200160405190810160405280929190818152602001828054600181600116156101000203166002900480156122535780601f1061222857610100808354040283529160200191612253565b820191906000526020600020905b81548152906001019060200180831161223657829003601f168201915b505050505060006001888154811061226757fe5b906000526020600020018054600181600116156101000203166002900480601f0160208091040260200160405190810160405280929190818152602001828054600181600116156101000203166002900480156123055780601f106122da57610100808354040283529160200191612305565b820191906000526020600020905b8154815290600101906020018083116122e857829003601f168201915b50505050508c8c8c888861197d565b505050505050505050565b600a60008373ffffffffffffffffffffffffffffffffffffffff1673ffffffffffffffffffffffffffffffffffffffff16815260200190815260200160002060009054906101000a900460ff166123ab576040517f08c379a00000000000000000000000000000000000000000000000000000000081526004016123a2906132a4565b60405180910390fd5b816009600083815260200190815260200160002060020160006101000a81548173ffffffffffffffffffffffffffffffffffffffff021916908373ffffffffffffffffffffffffffffffffffffffff1602179055505050565b60006009600084815260200190815260200160002060020160009054906101000a900473ffffffffffffffffffffffffffffffffffffffff1690506009600083815260200190815260200160002060020160009054906101000a900473ffffffffffffffffffffffffffffffffffffffff166009600085815260200190815260200160002060020160006101000a81548173ffffffffffffffffffffffffffffffffffffffff021916908373ffffffffffffffffffffffffffffffffffffffff160217905550806009600084815260200190815260200160002060020160006101000a81548173ffffffffffffffffffffffffffffffffffffffff021916908373ffffffffffffffffffffffffffffffffffffffff160217905550505050565b6000806000905060008090505b602d811015612574576000818154811061254757fe5b906000526020600020015482019150818411612567578092505050612577565b8080600101915050612531565b50505b919050565b828054600181600116156101000203166002900490600052602060002090601f016020900481019282601f106125bd57805160ff19168380011785556125eb565b828001600101855582156125eb579182015b828111156125ea5782518255916020019190600101906125cf565b5b5090506125f891906126de565b5090565b6040518060600160405280600390602082028038833980820191505090505090565b828054600181600116156101000203166002900490600052602060002090601f016020900481019282601f1061265f57805160ff191683800117855561268d565b8280016001018555821561268d579182015b8281111561268c578251825591602001919060010190612671565b5b50905061269a91906126de565b5090565b82600381019282156126cd579160200282015b828111156126cc5782518255916020019190600101906126b1565b5b5090506126da91906126de565b5090565b61270091905b808211156126fc5760008160009055506001016126e4565b5090565b90565b6000813590506127128161369a565b92915050565b600081359050612727816136b1565b92915050565b600082601f83011261273e57600080fd5b813561275161274c82613465565b613438565b9150818183526020840193506020810190508360005b83811015612797578135860161277d8882612824565b845260208401935060208301925050600181019050612767565b5050505092915050565b600082601f8301126127b257600080fd5b81356127c56127c08261348d565b613438565b915081818352602084019350602081019050838560208402820111156127ea57600080fd5b60005b8381101561281a578161280088826128cc565b8452602084019350602083019250506001810190506127ed565b5050505092915050565b600082601f83011261283557600080fd5b8135612848612843826134b5565b613438565b9150808252602083016020830185838301111561286457600080fd5b61286f838284613647565b50505092915050565b600082601f83011261288957600080fd5b813561289c612897826134e1565b613438565b915080825260208301602083018583830111156128b857600080fd5b6128c3838284613647565b50505092915050565b6000813590506128db816136c8565b92915050565b6000602082840312156128f357600080fd5b600061290184828501612703565b91505092915050565b6000806040838503121561291d57600080fd5b600083013567ffffffffffffffff81111561293757600080fd5b612943858286016127a1565b9250506020612954858286016128cc565b9150509250929050565b600080600080600080600080610100898b03121561297b57600080fd5b600089013567ffffffffffffffff81111561299557600080fd5b6129a18b828c01612878565b98505060206129b28b828c01612718565b975050604089013567ffffffffffffffff8111156129cf57600080fd5b6129db8b828c01612878565b96505060606129ec8b828c016128cc565b95505060806129fd8b828c016128cc565b94505060a0612a0e8b828c016128cc565b93505060c0612a1f8b828c016128cc565b92505060e0612a308b828c016128cc565b9150509295985092959890939650565b600060208284031215612a5257600080fd5b6000612a60848285016128cc565b91505092915050565b60008060008060808587031215612a7f57600080fd5b6000612a8d878288016128cc565b945050602085013567ffffffffffffffff811115612aaa57600080fd5b612ab68782880161272d565b935050604085013567ffffffffffffffff811115612ad357600080fd5b612adf878288016127a1565b925050606085013567ffffffffffffffff811115612afc57600080fd5b612b0887828801612878565b91505092959194509250565b60008060408385031215612b2757600080fd5b6000612b35858286016128cc565b925050602083013567ffffffffffffffff811115612b5257600080fd5b612b5e85828601612878565b9150509250929050565b60008060408385031215612b7b57600080fd5b6000612b89858286016128cc565b9250506020612b9a858286016128cc565b9150509250929050565b6000612bb08383613078565b905092915050565b6000612bc48383613185565b60208301905092915050565b612bd9816135f5565b82525050565b612be8816135f5565b82525050565b6000612bf982613531565b612c03818561358f565b935083602082028501612c158561350d565b8060005b85811015612c515784840389528151612c328582612ba4565b9450612c3d83613568565b925060208a01995050600181019050612c19565b50829750879550505050505092915050565b612c6c81613547565b612c7681846135ab565b9250612c8182613527565b8060005b83811015612cb2578151612c998782612bb8565b9650612ca483613582565b925050600181019050612c85565b505050505050565b612cc38161353c565b612ccd81846135a0565b9250612cd88261351d565b8060005b83811015612d09578151612cf08782612bb8565b9650612cfb83613575565b925050600181019050612cdc565b505050505050565b612d1a81613607565b82525050565b612d2981613607565b82525050565b612d3881613613565b82525050565b6000612d498261355d565b612d5381856135d8565b9350612d63818560208601613656565b80840191505092915050565b6000612d7a82613552565b612d8481856135b6565b9350612d94818560208601613656565b612d9d81613689565b840191505092915050565b6000612db382613552565b612dbd81856135c7565b9350612dcd818560208601613656565b612dd681613689565b840191505092915050565b6000612dec82613552565b612df681856135d8565b9350612e06818560208601613656565b80840191505092915050565b6000612e1f601e836135c7565b91507f74686520656972626d6f6e20796f752077616e74206973206f727068616e00006000830152602082019050919050565b6000612e5f6018836135c7565b91507f54686520456972626d6f6e206973206e6f7420796f75727300000000000000006000830152602082019050919050565b6000612e9f601c836135c7565b91507f7468697320656972626d6f6e2063616e27742062652073656c6c6564000000006000830152602082019050919050565b6000612edf6015836135c7565b91507f53656e64657220646f6573206e6f7420657869737400000000000000000000006000830152602082019050919050565b6000612f1f6007836135c7565b91507f63617463686564000000000000000000000000000000000000000000000000006000830152602082019050919050565b6000612f5f6016836135c7565b91507f656972626d6f6e20646f6573206e6f74206578697374000000000000000000006000830152602082019050919050565b6000612f9f602a836135c7565b91507f74686520656972626d6f6e20796f752077616e7420746f2065786368616e676560008301527f206973206f727068616e000000000000000000000000000000000000000000006020830152604082019050919050565b60006130056017836135c7565b91507f53656e646572206973206e6f7420746865206f776e65720000000000000000006000830152602082019050919050565b6000613045601a836135c7565b91507f596f752063616e27742062796520796f757220456972626d6f6e0000000000006000830152602082019050919050565b60006101c0830160008301516130916000860182613185565b50602083015184820360208601526130a98282612d6f565b91505060408301516130be6040860182612bd0565b5060608301516130d16060860182613185565b50608083015184820360808601526130e98282612d6f565b91505060a08301516130fe60a0860182612cba565b5060c0830151613112610100860182613185565b5060e0830151613126610120860182613185565b5061010083015161313b610140860182613185565b50610120830151613150610160860182612d11565b50610140830151613165610180860182613185565b5061016083015161317a6101a0860182613185565b508091505092915050565b61318e8161363d565b82525050565b61319d8161363d565b82525050565b60006131af8284612de1565b915081905092915050565b60006131c68284612d3e565b915081905092915050565b600060208201905081810360008301526131eb8184612bee565b905092915050565b60006060820190506132086000830184612c63565b92915050565b60006020820190506132236000830184612d20565b92915050565b600060208201905061323e6000830184612d2f565b92915050565b6000602082019050818103600083015261325d81612e12565b9050919050565b6000602082019050818103600083015261327d81612e52565b9050919050565b6000602082019050818103600083015261329d81612e92565b9050919050565b600060208201905081810360008301526132bd81612ed2565b9050919050565b600060208201905081810360008301526132dd81612f12565b9050919050565b600060208201905081810360008301526132fd81612f52565b9050919050565b6000602082019050818103600083015261331d81612f92565b9050919050565b6000602082019050818103600083015261333d81612ff8565b9050919050565b6000602082019050818103600083015261335d81613038565b9050919050565b60006020820190506133796000830184613194565b92915050565b600061016082019050613395600083018e613194565b81810360208301526133a7818d612da8565b90506133b6604083018c612bdf565b6133c3606083018b613194565b81810360808301526133d5818a612da8565b90506133e460a0830189613194565b6133f160c0830188613194565b6133fe60e0830187613194565b61340c610100830186612d20565b61341a610120830185613194565b613428610140830184613194565b9c9b505050505050505050505050565b6000604051905081810181811067ffffffffffffffff8211171561345b57600080fd5b8060405250919050565b600067ffffffffffffffff82111561347c57600080fd5b602082029050602081019050919050565b600067ffffffffffffffff8211156134a457600080fd5b602082029050602081019050919050565b600067ffffffffffffffff8211156134cc57600080fd5b601f19601f8301169050602081019050919050565b600067ffffffffffffffff8211156134f857600080fd5b601f19601f8301169050602081019050919050565b6000819050602082019050919050565b6000819050919050565b6000819050919050565b600081519050919050565b600060039050919050565b600060039050919050565b600081519050919050565b600081519050919050565b6000602082019050919050565b6000602082019050919050565b6000602082019050919050565b600082825260208201905092915050565b600081905092915050565b600081905092915050565b600082825260208201905092915050565b600082825260208201905092915050565b600081905092915050565b60006135ee8261361d565b9050919050565b60006136008261361d565b9050919050565b60008115159050919050565b6000819050919050565b600073ffffffffffffffffffffffffffffffffffffffff82169050919050565b6000819050919050565b82818337600083830152505050565b60005b83811015613674578082015181840152602081019050613659565b83811115613683576000848401525b50505050565b6000601f19601f8301169050919050565b6136a3816135e3565b81146136ae57600080fd5b50565b6136ba816135f5565b81146136c557600080fd5b50565b6136d18161363d565b81146136dc57600080fd5b5056fea365627a7a723158209a03d1b24d288bfc803f9ace6e308f407186acea5f86dbe5a446802f165568c36c6578706572696d656e74616cf564736f6c634300050c0040",
  "source": "pragma solidity ^0.5.8;\npragma experimental ABIEncoderV2;\n\n\ncontract Eirbmon{\n\n    struct _Eirbmon {\n        uint id;\n        string name;\n        address payable owner;\n        uint evolve;\n        string field;\n        uint[3] atk;\n        uint hp;\n        uint canBeExhangedTo;\n        uint price;\n        bool canBeSelled;\n        uint value;\n        uint256 birthDate;\n    }\n    event SendEvent(string message);\n \n\n    uint[] private allAtkWeight = [0x1,0x2,0x3,0x4,0x5,0x6,0x7,0x8,0x9,0xa]; // poids entre 1 et 10 avec 1=> trs rare\n\n    string[] private allField = [\"RSI\",\"SEE\",\"Elec\",\"Matmeca\",\"Info\",\"Telecom\"];\n    uint[] private allFieldWeight = [0xa,0x8,0x6,0x4,0x2,0x1]; // poids entre 1 et 10 avec 1=> trs rare\n    uint sumFieldWeight = 31;\n\n    string[] private allName = [\"Roucoul\",\"Salameche\",\"Carapuce\",\"Pikachu\"];\n    uint[] private allNameWeight = [0xa,0x6,0x3,0x1]; // poids entre 1 et 10 avec 1=> trs rare\n    uint sumNameWeight = 20;\n\n    uint public eirbmonsCount = 0;\n    uint public registeredCount = 0;\n\n\n    mapping(uint => _Eirbmon) public _Eirbmons;\n    mapping(address => bool) public _registeredAccounts;\n\n    constructor () public {\n        addEirbmonToChain(\"Pikachu\",msg.sender,\"Telecom\",1,2,3,100,19+30+10);\n        addEirbmonToChain(\"Roucoul\",msg.sender,\"Info\",1,2,3,100,0+28+10);\n        generateAnNewEirbmon();\n        generateAnNewEirbmon();\n    }\n\n    // ajoute un Eirbmon  la chaine\n    function  addEirbmonToChain(string memory name,address payable owner, string memory field, uint atk1, uint atk2, uint atk3, uint hp,uint value) public {\n        eirbmonsCount++;\n        _Eirbmons[eirbmonsCount] = _Eirbmon(eirbmonsCount,name,owner,0,field,[atk1,atk2,atk3],hp,0,0,false,value,now);\n   }\n \n    function initAccount() public {\n        require(!_registeredAccounts[msg.sender]);\n        _registeredAccounts[msg.sender] = true;\n        addEirbmonToChain(\"Roucoul\",msg.sender,\"RSI\",1,2,3,40,0+0+4);\n         generateAnNewEirbmon();\n    }\n\n    \n    // gnre un nouvel Eirbmon random\n    function generateAnNewEirbmon() private {\n        // gnre un nombre entre 1 et la somme des poids  partir des 44 premiers nombres hex du hash\n        // uint randAtkWeight = uint(uint(blockhash(block.number-1))/((0xf+1)**16))%sumArray(allAtkWeight)+1;\n        // string memory selectedAtk = getValueFromRand(allAtk,allAtkWeight,randAtkWeight);\n\n        uint atk1 = chooseAtk(uint(uint(blockhash(block.number-1))/((0xf+1)**5))%0x2D);\n        uint atk2 = chooseAtk(uint(uint(blockhash(block.number-1))/((0xf+1)**10))%0x2D);\n        uint atk3 = chooseAtk(uint(uint(blockhash(block.number-1))/((0xf+1)**16))%0x2D);\n\n        uint randFieldWeight = uint(uint(blockhash(block.number-1))/((0xf+1)**32))%sumFieldWeight+1;\n        uint selectedField = getValueFromRand(allFieldWeight,randFieldWeight);\n\n\n        uint randNameWeight = uint(uint(blockhash(block.number-1))/((0xf+1)**48))%sumNameWeight+1;\n        uint selectedName = getValueFromRand(allNameWeight,randNameWeight);\n\n        uint randHp = uint(uint(blockhash(block.number-1))%0x8C + 10);\n\n\n        uint value = atk1 + atk2 + atk3 + randHp/7 + sumNameWeight*(11-allNameWeight[selectedName])/10 + sumFieldWeight*(11-allFieldWeight[selectedField])/10;\n\n        addEirbmonToChain(allName[selectedName],0x0000000000000000000000000000000000000000,allField[selectedField],atk1,atk2,atk3,randHp,value);\n    }\n\n    function chooseAtk(uint randNumber) private returns (uint){\n            uint sum = 0x0;\n            for(uint i = 0;i < 45;i++){\n                sum += allAtkWeight[i];\n                if(randNumber <= sum){\n                    return i;\n                }\n            }\n        }\n\n    // renvoie la valeur associ au nombre random pass en arguments en prenant en compte les poids de chaque valeur \n    function getValueFromRand(uint[] memory weightArray,uint randNameWeight) public pure returns(uint) {\n        uint sum = 0x0;\n        for(uint i = 0;i < weightArray.length;i++){\n            sum += weightArray[i];\n            if(randNameWeight <= sum){\n                return i;\n            }\n        }\n    }\n\n\n    // renvoie le nombre d'Eirbmon total\n    function getEirbmonCount() public view returns(uint)  {\n        return eirbmonsCount;\n    }\n\n    // renvoie les Eirbmons d'un compte\n    //attention  ne pas utiliser cet appel dans les fonctions de type write.\n    function getEirbmon(address owner) public view returns(_Eirbmon[] memory )  {\n            require(_registeredAccounts[owner]);\n            _Eirbmon[] memory ownerEirbmons;\n            uint j = 0;\n            for(uint i = 0; i < eirbmonsCount; i++){\n               if(_Eirbmons[i].owner == owner){\n                   ownerEirbmons[j] = _Eirbmons[i];\n                   j++;\n               }\n            }\n            return ownerEirbmons;\n    }\n    function getAtks(uint _eirbmonId) public view returns (uint[3] memory) {\n        return _Eirbmons[_eirbmonId].atk;\n    }\n\n    function isExisted(uint _EirbmonId) public view returns (bool){\n        return _EirbmonId<=eirbmonsCount;\n    }\n    function isOrphan(uint _EirbmonId) public view returns (bool){\n        return _Eirbmons[_EirbmonId].owner == 0x0000000000000000000000000000000000000000;\n    }\n    \n    function appropriateEirbmonToOwner(address payable owner,uint _EirbmonId) private {\n            require (_registeredAccounts[owner],\"Sender does not exist\");\n            _Eirbmons[_EirbmonId].owner = owner;\n    }\n\n    function catchEirbmon(uint _EirbmonId) public returns  (bytes32) {\n            require(isExisted(_EirbmonId),\"eirbmon does not exist\");\n            require(isOrphan(_EirbmonId),\"the eirbmon you want is orphan\");\n            generateAnNewEirbmon();\n            appropriateEirbmonToOwner(msg.sender,_EirbmonId);\n            emit SendEvent(\"catched\");\n    }\n\n\n     //Change the owner of an Eirbmon  \n    function exchangeMyEirbmonTo(uint myEirbmonId,uint hisEirbmonId ) public {\n         require (_registeredAccounts[msg.sender],\"Sender does not exist\");\n         require (msg.sender == _Eirbmons[myEirbmonId].owner,\"Sender is not the owner\");\n         require (!isOrphan(hisEirbmonId),\"the eirbmon you want to exchange is orphan\");\n         //Si l'autre joueur a accept de'changer son eirbmon avec le \n         if(_Eirbmons[hisEirbmonId].canBeExhangedTo==myEirbmonId){\n            _Eirbmons[hisEirbmonId].canBeExhangedTo = 0;\n            changeEirbmons(myEirbmonId,hisEirbmonId);\n        }\n        //Sinon on est le premier  dclarer d'avoir accpter un change d'eirbmons\n        else{\n           _Eirbmons[myEirbmonId].canBeExhangedTo = hisEirbmonId;\n            }\n    }\n\n    // changer les proprtaires des eirbmons\n      function changeEirbmons(uint idEirbmon1,uint idEirbmon2) private {\n            address payable owner1 = _Eirbmons[idEirbmon1].owner;\n            _Eirbmons[idEirbmon1].owner = _Eirbmons[idEirbmon2].owner;\n            _Eirbmons[idEirbmon2].owner = owner1;\n    }\n    // Changer le status pour que l'eirbmon peut tre vendu. \n      function ableSaleEirbmon(uint eirbmonId) public {\n            require(isExisted(eirbmonId),\"eirbmon does not exist\");\n            require (msg.sender == _Eirbmons[eirbmonId].owner,\"Sender is not the owner\");\n            _Eirbmons[eirbmonId].canBeSelled = true;\n            _Eirbmons[eirbmonId].price = getValue(eirbmonId);\n    }\n\n      function saleEirbmon(uint eirbmonId,uint price) public {\n            ableSaleEirbmon(eirbmonId);\n            _Eirbmons[eirbmonId].price = 1000000000000000000*price;\n    }\n\n      function byEirbmon(uint eirbmonId) public payable {\n            require(_Eirbmons[eirbmonId].canBeSelled,\"this eirbmon can't be selled\");\n            require(_Eirbmons[eirbmonId].owner!=msg.sender,\"You can't bye your Eirbmon\");\n            require(_Eirbmons[eirbmonId].price < msg.value,\"this eirbmon can't be selled\");\n            require (_registeredAccounts[msg.sender],\"Sender does not exist\");\n           //transfer Ether\n            _Eirbmons[eirbmonId].owner.transfer(_Eirbmons[eirbmonId].price);\n            msg.sender.transfer(msg.value-_Eirbmons[eirbmonId].price);\n            //transfer Eirbmon\n            _Eirbmons[eirbmonId].owner = msg.sender;\n            //reset Eirbmon fields\n            _Eirbmons[eirbmonId].canBeSelled = false;\n    }\n\n    function getEirbmonAge (uint Id) public view returns(uint256 time){\n        return block.timestamp - _Eirbmons[Id].birthDate;\n    }\n     \n    function getAtk(uint id) public view returns(uint[3] memory)  {\n        return _Eirbmons[id].atk;\n    }\n\n    function getValueFromWeight(uint sumArray,string[] memory valueArray,uint[] memory weightArray,string memory research ) public pure returns(uint) {\n        for(uint i = 0;i < valueArray.length;i++){\n            if(keccak256(abi.encodePacked(valueArray[i])) == keccak256(abi.encodePacked(research))){\n                return sumArray*(11-weightArray[i])/10;\n            }\n        }\n    }\n\n    function getValue(uint _EirbmonId) public view returns(uint){\n        return _Eirbmons[_EirbmonId].evolve*2 + _Eirbmons[_EirbmonId].atk[0] + _Eirbmons[_EirbmonId].atk[1] + _Eirbmons[_EirbmonId].atk[2]+ getValueFromWeight(sumNameWeight,allName,allNameWeight,_Eirbmons[_EirbmonId].name) + getValueFromWeight(sumFieldWeight,allField,allFieldWeight,_Eirbmons[_EirbmonId].field) + _Eirbmons[_EirbmonId].hp/7 ;\n    }\n\n      function evolveEirbmon(uint eirbmonId, string memory evolutionName) public {\n            require(_Eirbmons[eirbmonId].owner==msg.sender,\"The Eirbmon is not yours\");\n            _Eirbmons[eirbmonId].name = evolutionName;\n            _Eirbmons[eirbmonId].evolve = _Eirbmons[eirbmonId].evolve + 1;\n            _Eirbmons[eirbmonId].atk[1] = min(_Eirbmons[eirbmonId].atk[1] + 2,9);\n            _Eirbmons[eirbmonId].atk[2] = min(_Eirbmons[eirbmonId].atk[2] + 2,9);\n            _Eirbmons[eirbmonId].atk[0] = min(_Eirbmons[eirbmonId].atk[0] + 2,9);\n            _Eirbmons[eirbmonId].hp = _Eirbmons[eirbmonId].hp + _Eirbmons[eirbmonId].evolve*40;\n            _Eirbmons[eirbmonId].canBeExhangedTo = 0;\n            _Eirbmons[eirbmonId].canBeSelled = false;\n            _Eirbmons[eirbmonId].value = getValue(eirbmonId);\n\n    }\n\n       function min(uint a, uint b) private pure returns (uint) {\n        return a < b ? a : b;\n    }\n\n}\n\n\n// lorsque le joueur commence, il a les choix entre 3 eirbmons, \n// lorsqu'il en choisit 1, il en devient le proprio et cela cr alors 1 nouvel Eirbmon\n// qui dpend : du hash du block prcdent, de l'adresse du joueur fois id de l'eirbmon modulo 10, et le 3e chiffre et la multi des 2 premiers modulo 10\n",
  "sourcePath": "/home/david/Documents/Cours_1Enseirb/3a/projet_s9/dev/Blockchain/contracts/Eirbmon.sol",
  "compiler": {
    "name": "solc",
    "version": "0.5.12+commit.7709ece9.Emscripten.clang"
  },
  "schemaVersion": "3.0.19",
  "updatedAt": "2019-12-29T16:39:00.982Z",
  "networkType": "ethereum",
  "devdoc": {
    "methods": {}
  },
  "userdoc": {
    "methods": {}
  }
}