{
  "contractName": "Eirbmon",
  "abi": [
    {
      "constant": true,
      "inputs": [],
      "name": "registeredCount",
      "outputs": [
        {
          "name": "",
          "type": "uint256"
        }
      ],
      "payable": false,
      "stateMutability": "view",
      "type": "function"
    },
    {
      "constant": true,
      "inputs": [
        {
          "name": "",
          "type": "address"
        }
      ],
      "name": "_registeredAccounts",
      "outputs": [
        {
          "name": "",
          "type": "bool"
        }
      ],
      "payable": false,
      "stateMutability": "view",
      "type": "function"
    },
    {
      "constant": true,
      "inputs": [],
      "name": "eirbmonsCount",
      "outputs": [
        {
          "name": "",
          "type": "uint256"
        }
      ],
      "payable": false,
      "stateMutability": "view",
      "type": "function"
    },
    {
      "constant": true,
      "inputs": [
        {
          "name": "",
          "type": "uint256"
        }
      ],
      "name": "_Eirbmons",
      "outputs": [
        {
          "name": "id",
          "type": "uint256"
        },
        {
          "name": "name",
          "type": "string"
        },
        {
          "name": "owner",
          "type": "address"
        },
        {
          "name": "level",
          "type": "uint256"
        },
        {
          "name": "field",
          "type": "string"
        },
        {
          "name": "atk",
          "type": "string"
        },
        {
          "name": "hp",
          "type": "uint256"
        }
      ],
      "payable": false,
      "stateMutability": "view",
      "type": "function"
    },
    {
      "constant": true,
      "inputs": [],
      "name": "rnd",
      "outputs": [
        {
          "name": "",
          "type": "uint256"
        }
      ],
      "payable": false,
      "stateMutability": "view",
      "type": "function"
    },
    {
      "inputs": [],
      "payable": false,
      "stateMutability": "nonpayable",
      "type": "constructor"
    },
    {
      "anonymous": false,
      "inputs": [
        {
          "indexed": false,
          "name": "message",
          "type": "string"
        }
      ],
      "name": "SendEvent",
      "type": "event"
    },
    {
      "constant": false,
      "inputs": [
        {
          "name": "name",
          "type": "string"
        },
        {
          "name": "owner",
          "type": "address"
        },
        {
          "name": "field",
          "type": "string"
        },
        {
          "name": "atk",
          "type": "string"
        },
        {
          "name": "hp",
          "type": "uint256"
        }
      ],
      "name": "addEirbmonToChain",
      "outputs": [],
      "payable": false,
      "stateMutability": "nonpayable",
      "type": "function"
    },
    {
      "constant": false,
      "inputs": [],
      "name": "initAccount",
      "outputs": [],
      "payable": false,
      "stateMutability": "nonpayable",
      "type": "function"
    },
    {
      "constant": true,
      "inputs": [
        {
          "name": "valueArray",
          "type": "string[]"
        },
        {
          "name": "weightArray",
          "type": "uint256[]"
        },
        {
          "name": "randNameWeight",
          "type": "uint256"
        }
      ],
      "name": "getValueFromRand",
      "outputs": [
        {
          "name": "",
          "type": "string"
        }
      ],
      "payable": false,
      "stateMutability": "pure",
      "type": "function"
    },
    {
      "constant": true,
      "inputs": [
        {
          "name": "_array",
          "type": "uint256[]"
        }
      ],
      "name": "sumArray",
      "outputs": [
        {
          "name": "",
          "type": "uint256"
        }
      ],
      "payable": false,
      "stateMutability": "pure",
      "type": "function"
    },
    {
      "constant": true,
      "inputs": [],
      "name": "getEirbmonCount",
      "outputs": [
        {
          "name": "",
          "type": "uint256"
        }
      ],
      "payable": false,
      "stateMutability": "view",
      "type": "function"
    },
    {
      "constant": true,
      "inputs": [
        {
          "name": "owner",
          "type": "address"
        }
      ],
      "name": "getEirbmon",
      "outputs": [
        {
          "components": [
            {
              "name": "id",
              "type": "uint256"
            },
            {
              "name": "name",
              "type": "string"
            },
            {
              "name": "owner",
              "type": "address"
            },
            {
              "name": "level",
              "type": "uint256"
            },
            {
              "name": "field",
              "type": "string"
            },
            {
              "name": "atk",
              "type": "string"
            },
            {
              "name": "hp",
              "type": "uint256"
            }
          ],
          "name": "",
          "type": "tuple[]"
        }
      ],
      "payable": false,
      "stateMutability": "view",
      "type": "function"
    },
    {
      "constant": true,
      "inputs": [
        {
          "name": "_EirbmonId",
          "type": "uint256"
        }
      ],
      "name": "isExisted",
      "outputs": [
        {
          "name": "",
          "type": "bool"
        }
      ],
      "payable": false,
      "stateMutability": "view",
      "type": "function"
    },
    {
      "constant": true,
      "inputs": [
        {
          "name": "_EirbmonId",
          "type": "uint256"
        }
      ],
      "name": "isOrphan",
      "outputs": [
        {
          "name": "",
          "type": "bool"
        }
      ],
      "payable": false,
      "stateMutability": "view",
      "type": "function"
    },
    {
      "constant": true,
      "inputs": [],
      "name": "getBlockNumber",
      "outputs": [
        {
          "name": "",
          "type": "uint256"
        }
      ],
      "payable": false,
      "stateMutability": "view",
      "type": "function"
    },
    {
      "constant": false,
      "inputs": [
        {
          "name": "_EirbmonId",
          "type": "uint256"
        }
      ],
      "name": "catchEirbmon",
      "outputs": [
        {
          "name": "",
          "type": "bytes32"
        }
      ],
      "payable": false,
      "stateMutability": "nonpayable",
      "type": "function"
    }
  ],
  "bytecode": "0x6080604052600160005560405180608001604052806040518060400160405280600781526020017f726f756c6164650000000000000000000000000000000000000000000000000081525081526020016040518060400160405280600d81526020017f706574697465206269c3a872650000000000000000000000000000000000000081525081526020016040518060400160405280600681526020017f627261737365000000000000000000000000000000000000000000000000000081525081526020016040518060400160405280600a81526020017f726174747261706167650000000000000000000000000000000000000000000081525081525060019060046200011092919062000f1f565b506040518060800160405280600a60ff168152602001600660ff168152602001600360ff168152602001600160ff1681525060029060046200015492919062000f86565b506040518060c001604052806040518060400160405280600381526020017f525349000000000000000000000000000000000000000000000000000000000081525081526020016040518060400160405280600381526020017f534545000000000000000000000000000000000000000000000000000000000081525081526020016040518060400160405280600481526020017f456c65630000000000000000000000000000000000000000000000000000000081525081526020016040518060400160405280600781526020017f4d61746d6563610000000000000000000000000000000000000000000000000081525081526020016040518060400160405280600481526020017f496e666f0000000000000000000000000000000000000000000000000000000081525081526020016040518060400160405280600781526020017f54656c65636f6d000000000000000000000000000000000000000000000000008152508152506003906006620002d292919062000fdd565b506040518060c00160405280600a60ff168152602001600860ff168152602001600660ff168152602001600460ff168152602001600260ff168152602001600160ff1681525060049060066200032a92919062001044565b5060405180608001604052806040518060400160405280600481526020017f6e6f6d310000000000000000000000000000000000000000000000000000000081525081526020016040518060400160405280600481526020017f6e6f6d320000000000000000000000000000000000000000000000000000000081525081526020016040518060400160405280600481526020017f6e6f6d330000000000000000000000000000000000000000000000000000000081525081526020016040518060400160405280600481526020017f6e6f6d340000000000000000000000000000000000000000000000000000000081525081525060059060046200043292919062000f1f565b506040518060800160405280600a60ff168152602001600660ff168152602001600360ff168152602001600160ff1681525060069060046200047692919062000f86565b50600060075560006008553480156200048e57600080fd5b50620005446040518060400160405280600781526020017f50696b6163687500000000000000000000000000000000000000000000000000815250336040518060400160405280600781526020017f74656c65636f6d000000000000000000000000000000000000000000000000008152506040518060400160405280600781526020017f726f756c6164650000000000000000000000000000000000000000000000000081525060646200077b60201b60201c565b620005f96040518060400160405280600781526020017f526f75636f756c00000000000000000000000000000000000000000000000000815250336040518060400160405280600481526020017f656c6563000000000000000000000000000000000000000000000000000000008152506040518060400160405280600d81526020017f706574697465206269c3a872650000000000000000000000000000000000000081525060646200077b60201b60201c565b620006af6040518060400160405280600781526020017f526f75636f756c0000000000000000000000000000000000000000000000000081525060006040518060400160405280600481526020017f696e666f000000000000000000000000000000000000000000000000000000008152506040518060400160405280600d81526020017f706574697465206269c3a872650000000000000000000000000000000000000081525060646200077b60201b60201c565b620007656040518060400160405280600781526020017f50696b616368750000000000000000000000000000000000000000000000000081525060006040518060400160405280600381526020017f53454500000000000000000000000000000000000000000000000000000000008152506040518060400160405280600d81526020017f706574697465206269c3a872650000000000000000000000000000000000000081525060646200077b60201b60201c565b62000775620008ba60201b60201c565b620011c7565b6007600081548092919060010191905055506040518060e0016040528060075481526020018681526020018573ffffffffffffffffffffffffffffffffffffffff1681526020016000815260200184815260200183815260200182815250600960006007548152602001908152602001600020600082015181600001556020820151816001019080519060200190620008169291906200109b565b5060408201518160020160006101000a81548173ffffffffffffffffffffffffffffffffffffffff021916908373ffffffffffffffffffffffffffffffffffffffff160217905550606082015181600301556080820151816004019080519060200190620008869291906200109b565b5060a0820151816005019080519060200190620008a59291906200109b565b5060c082015181600601559050505050505050565b600060016200092160028054806020026020016040519081016040528092919081815260200182805480156200091057602002820191906000526020600020905b815481526020019060010190808311620008fb575b505050505062000e6b60201b60201c565b6b010000000000000000000000600143034060001c816200093e57fe5b04816200094757fe5b06019050606062000a996001805480602002602001604051908101604052809291908181526020016000905b8282101562000a35578382906000526020600020018054600181600116156101000203166002900480601f01602080910402602001604051908101604052809291908181526020018280546001816001161561010002031660029004801562000a205780601f10620009f45761010080835404028352916020019162000a20565b820191906000526020600020905b81548152906001019060200180831162000a0257829003601f168201915b50505050508152602001906001019062000973565b50505050600280548060200260200160405190810160405280929190818152602001828054801562000a8757602002820191906000526020600020905b81548152602001906001019080831162000a72575b50505050508462000eb060201b60201c565b9050600062000b00600480548060200260200160405190810160405280929190818152602001828054801562000aef57602002820191906000526020600020905b81548152602001906001019080831162000ada575b505050505062000e6b60201b60201c565b760100000000000000000000000000000000000000000000600143034060001c8162000b2857fe5b048162000b3157fe5b069050606062000c826003805480602002602001604051908101604052809291908181526020016000905b8282101562000c1e578382906000526020600020018054600181600116156101000203166002900480601f01602080910402602001604051908101604052809291908181526020018280546001816001161561010002031660029004801562000c095780601f1062000bdd5761010080835404028352916020019162000c09565b820191906000526020600020905b81548152906001019060200180831162000beb57829003601f168201915b50505050508152602001906001019062000b5c565b50505050600480548060200260200160405190810160405280929190818152602001828054801562000c7057602002820191906000526020600020905b81548152602001906001019080831162000c5b575b50505050508462000eb060201b60201c565b9050600062000ce9600680548060200260200160405190810160405280929190818152602001828054801562000cd857602002820191906000526020600020905b81548152602001906001019080831162000cc3575b505050505062000e6b60201b60201c565b600143034060001c8162000cf957fe5b069050606062000e4a6005805480602002602001604051908101604052809291908181526020016000905b8282101562000de6578382906000526020600020018054600181600116156101000203166002900480601f01602080910402602001604051908101604052809291908181526020018280546001816001161561010002031660029004801562000dd15780601f1062000da55761010080835404028352916020019162000dd1565b820191906000526020600020905b81548152906001019060200180831162000db357829003601f168201915b50505050508152602001906001019062000d24565b50505050600680548060200260200160405190810160405280929190818152602001828054801562000e3857602002820191906000526020600020905b81548152602001906001019080831162000e23575b50505050508462000eb060201b60201c565b905062000e63816000858860646200077b60201b60201c565b505050505050565b6000806000905060005b835181101562000ea65783818151811062000e8c57fe5b602002602001015182019150808060010191505062000e75565b5080915050919050565b6060600080905060008090505b845181101562000f155784818151811062000ed457fe5b60200260200101518201915081841162000f075785818151811062000ef557fe5b60200260200101519250505062000f18565b808060010191505062000ebd565b50505b9392505050565b82805482825590600052602060002090810192821562000f73579160200282015b8281111562000f7257825182908051906020019062000f619291906200109b565b509160200191906001019062000f40565b5b50905062000f82919062001122565b5090565b82805482825590600052602060002090810192821562000fca579160200282015b8281111562000fc9578251829060ff1690559160200191906001019062000fa7565b5b50905062000fd9919062001153565b5090565b82805482825590600052602060002090810192821562001031579160200282015b82811115620010305782518290805190602001906200101f9291906200109b565b509160200191906001019062000ffe565b5b50905062001040919062001122565b5090565b82805482825590600052602060002090810192821562001088579160200282015b8281111562001087578251829060ff1690559160200191906001019062001065565b5b50905062001097919062001153565b5090565b828054600181600116156101000203166002900490600052602060002090601f016020900481019282601f10620010de57805160ff19168380011785556200110f565b828001600101855582156200110f579182015b828111156200110e578251825591602001919060010190620010f1565b5b5090506200111e919062001153565b5090565b6200115091905b808211156200114c57600081816200114291906200117b565b5060010162001129565b5090565b90565b6200117891905b80821115620011745760008160009055506001016200115a565b5090565b90565b50805460018160011615610100020316600290046000825580601f10620011a35750620011c4565b601f016020900490600052602060002090810190620011c3919062001153565b5b50565b611d5280620011d76000396000f3fe608060405234801561001057600080fd5b50600436106100f45760003560e01c80635c824d7a11610097578063cbb3abd111610066578063cbb3abd114610299578063e1ba8bba146102cf578063fec1439c146102ff578063fff39a511461031d576100f4565b80635c824d7a146101eb57806380aa3ee61461021b578063819308a71461024b578063c80f760c1461027b576100f4565b806332834b48116100d357806332834b481461017757806342cbb15c146101935780634c12569d146101b15780634ec1ce21146101e1576100f4565b80621931d0146100f95780631e2aea0614610129578063210ff9bb14610159575b600080fd5b610113600480360361010e9190810190611580565b61033b565b60405161012091906119c9565b60405180910390f35b610143600480360361013e9190810190611628565b6106c4565b6040516101509190611a63565b60405180910390f35b610161610706565b60405161016e9190611a63565b60405180910390f35b610191600480360361018c9190810190611669565b61070c565b005b61019b610845565b6040516101a89190611a63565b60405180910390f35b6101cb60048036036101c691908101906115a9565b61084d565b6040516101d89190611a21565b60405180910390f35b6101e96108b6565b005b61020560048036036102009190810190611580565b610a14565b60405161021291906119eb565b60405180910390f35b61023560048036036102309190810190611728565b610a34565b60405161024291906119eb565b60405180910390f35b61026560048036036102609190810190611728565b610aa2565b6040516102729190611a06565b60405180910390f35b610283610b14565b6040516102909190611a63565b60405180910390f35b6102b360048036036102ae9190810190611728565b610b1a565b6040516102c69796959493929190611a7e565b60405180910390f35b6102e960048036036102e49190810190611728565b610d44565b6040516102f691906119eb565b60405180910390f35b610307610d53565b6040516103149190611a63565b60405180910390f35b610325610d59565b6040516103329190611a63565b60405180910390f35b6060600a60008373ffffffffffffffffffffffffffffffffffffffff1673ffffffffffffffffffffffffffffffffffffffff16815260200190815260200160002060009054906101000a900460ff1661039357600080fd5b6060600080905060008090505b6007548110156106b9578473ffffffffffffffffffffffffffffffffffffffff166009600083815260200190815260200160002060020160009054906101000a900473ffffffffffffffffffffffffffffffffffffffff1673ffffffffffffffffffffffffffffffffffffffff1614156106ac57600960008281526020019081526020016000206040518060e001604052908160008201548152602001600182018054600181600116156101000203166002900480601f0160208091040260200160405190810160405280929190818152602001828054600181600116156101000203166002900480156104d55780601f106104aa576101008083540402835291602001916104d5565b820191906000526020600020905b8154815290600101906020018083116104b857829003601f168201915b505050505081526020016002820160009054906101000a900473ffffffffffffffffffffffffffffffffffffffff1673ffffffffffffffffffffffffffffffffffffffff1673ffffffffffffffffffffffffffffffffffffffff16815260200160038201548152602001600482018054600181600116156101000203166002900480601f0160208091040260200160405190810160405280929190818152602001828054600181600116156101000203166002900480156105d75780601f106105ac576101008083540402835291602001916105d7565b820191906000526020600020905b8154815290600101906020018083116105ba57829003601f168201915b50505050508152602001600582018054600181600116156101000203166002900480601f0160208091040260200160405190810160405280929190818152602001828054600181600116156101000203166002900480156106795780601f1061064e57610100808354040283529160200191610679565b820191906000526020600020905b81548152906001019060200180831161065c57829003601f168201915b5050505050815260200160068201548152505083838151811061069857fe5b602002602001018190525081806001019250505b80806001019150506103a0565b508192505050919050565b6000806000905060005b83518110156106fc578381815181106106e357fe5b60200260200101518201915080806001019150506106ce565b5080915050919050565b60085481565b6007600081548092919060010191905055506040518060e0016040528060075481526020018681526020018573ffffffffffffffffffffffffffffffffffffffff16815260200160008152602001848152602001838152602001828152506009600060075481526020019081526020016000206000820151816000015560208201518160010190805190602001906107a5929190611312565b5060408201518160020160006101000a81548173ffffffffffffffffffffffffffffffffffffffff021916908373ffffffffffffffffffffffffffffffffffffffff160217905550606082015181600301556080820151816004019080519060200190610813929190611312565b5060a0820151816005019080519060200190610830929190611312565b5060c082015181600601559050505050505050565b600043905090565b6060600080905060008090505b84518110156108ac5784818151811061086f57fe5b60200260200101518201915081841161089f5785818151811061088e57fe5b6020026020010151925050506108af565b808060010191505061085a565b50505b9392505050565b600a60003373ffffffffffffffffffffffffffffffffffffffff1673ffffffffffffffffffffffffffffffffffffffff16815260200190815260200160002060009054906101000a900460ff161561090d57600080fd5b6001600a60003373ffffffffffffffffffffffffffffffffffffffff1673ffffffffffffffffffffffffffffffffffffffff16815260200190815260200160002060006101000a81548160ff021916908315150217905550610a126040518060400160405280600481526020017f6e6f6d3100000000000000000000000000000000000000000000000000000000815250336040518060400160405280600381526020017f52534900000000000000000000000000000000000000000000000000000000008152506040518060400160405280600781526020017f726f756c61646500000000000000000000000000000000000000000000000000815250602861070c565b565b600a6020528060005260406000206000915054906101000a900460ff1681565b60008073ffffffffffffffffffffffffffffffffffffffff166009600084815260200190815260200160002060020160009054906101000a900473ffffffffffffffffffffffffffffffffffffffff1673ffffffffffffffffffffffffffffffffffffffff16149050919050565b6000610aad82610d44565b610ab657600080fd5b610abf82610a34565b610ac857600080fd5b610ad0610d63565b610ada33836112b9565b7f01929b1546ac5c8cbd09f19de437245776c852d26202ac70ef8ede5dbb2e29b3604051610b0790611a43565b60405180910390a1919050565b60075481565b6009602052806000526040600020600091509050806000015490806001018054600181600116156101000203166002900480601f016020809104026020016040519081016040528092919081815260200182805460018160011615610100020316600290048015610bcc5780601f10610ba157610100808354040283529160200191610bcc565b820191906000526020600020905b815481529060010190602001808311610baf57829003601f168201915b5050505050908060020160009054906101000a900473ffffffffffffffffffffffffffffffffffffffff1690806003015490806004018054600181600116156101000203166002900480601f016020809104026020016040519081016040528092919081815260200182805460018160011615610100020316600290048015610c965780601f10610c6b57610100808354040283529160200191610c96565b820191906000526020600020905b815481529060010190602001808311610c7957829003601f168201915b505050505090806005018054600181600116156101000203166002900480601f016020809104026020016040519081016040528092919081815260200182805460018160011615610100020316600290048015610d345780601f10610d0957610100808354040283529160200191610d34565b820191906000526020600020905b815481529060010190602001808311610d1757829003601f168201915b5050505050908060060154905087565b60006007548211159050919050565b60005481565b6000600754905090565b60006001610dc06002805480602002602001604051908101604052809291908181526020018280548015610db657602002820191906000526020600020905b815481526020019060010190808311610da2575b50505050506106c4565b6b010000000000000000000000600143034060001c81610ddc57fe5b0481610de457fe5b060190506060610f266001805480602002602001604051908101604052809291908181526020016000905b82821015610ecb578382906000526020600020018054600181600116156101000203166002900480601f016020809104026020016040519081016040528092919081815260200182805460018160011615610100020316600290048015610eb75780601f10610e8c57610100808354040283529160200191610eb7565b820191906000526020600020905b815481529060010190602001808311610e9a57829003601f168201915b505050505081526020019060010190610e0f565b505050506002805480602002602001604051908101604052809291908181526020018280548015610f1b57602002820191906000526020600020905b815481526020019060010190808311610f07575b50505050508461084d565b90506000610f836004805480602002602001604051908101604052809291908181526020018280548015610f7957602002820191906000526020600020905b815481526020019060010190808311610f65575b50505050506106c4565b760100000000000000000000000000000000000000000000600143034060001c81610faa57fe5b0481610fb257fe5b06905060606110f36003805480602002602001604051908101604052809291908181526020016000905b82821015611098578382906000526020600020018054600181600116156101000203166002900480601f0160208091040260200160405190810160405280929190818152602001828054600181600116156101000203166002900480156110845780601f1061105957610100808354040283529160200191611084565b820191906000526020600020905b81548152906001019060200180831161106757829003601f168201915b505050505081526020019060010190610fdc565b5050505060048054806020026020016040519081016040528092919081815260200182805480156110e857602002820191906000526020600020905b8154815260200190600101908083116110d4575b50505050508461084d565b90506000611150600680548060200260200160405190810160405280929190818152602001828054801561114657602002820191906000526020600020905b815481526020019060010190808311611132575b50505050506106c4565b600143034060001c8161115f57fe5b06905060606112a06005805480602002602001604051908101604052809291908181526020016000905b82821015611245578382906000526020600020018054600181600116156101000203166002900480601f0160208091040260200160405190810160405280929190818152602001828054600181600116156101000203166002900480156112315780601f1061120657610100808354040283529160200191611231565b820191906000526020600020905b81548152906001019060200180831161121457829003601f168201915b505050505081526020019060010190611189565b50505050600680548060200260200160405190810160405280929190818152602001828054801561129557602002820191906000526020600020905b815481526020019060010190808311611281575b50505050508461084d565b90506112b18160008588606461070c565b505050505050565b816009600083815260200190815260200160002060020160006101000a81548173ffffffffffffffffffffffffffffffffffffffff021916908373ffffffffffffffffffffffffffffffffffffffff1602179055505050565b828054600181600116156101000203166002900490600052602060002090601f016020900481019282601f1061135357805160ff1916838001178555611381565b82800160010185558215611381579182015b82811115611380578251825591602001919060010190611365565b5b50905061138e9190611392565b5090565b6113b491905b808211156113b0576000816000905550600101611398565b5090565b90565b6000813590506113c681611cea565b92915050565b600082601f8301126113dd57600080fd5b81356113f06113eb82611b2f565b611b02565b9150818183526020840193506020810190508360005b83811015611436578135860161141c88826114c3565b845260208401935060208301925050600181019050611406565b5050505092915050565b600082601f83011261145157600080fd5b813561146461145f82611b57565b611b02565b9150818183526020840193506020810190508385602084028201111561148957600080fd5b60005b838110156114b9578161149f888261156b565b84526020840193506020830192505060018101905061148c565b5050505092915050565b600082601f8301126114d457600080fd5b81356114e76114e282611b7f565b611b02565b9150808252602083016020830185838301111561150357600080fd5b61150e838284611c97565b50505092915050565b600082601f83011261152857600080fd5b813561153b61153682611bab565b611b02565b9150808252602083016020830185838301111561155757600080fd5b611562838284611c97565b50505092915050565b60008135905061157a81611d01565b92915050565b60006020828403121561159257600080fd5b60006115a0848285016113b7565b91505092915050565b6000806000606084860312156115be57600080fd5b600084013567ffffffffffffffff8111156115d857600080fd5b6115e4868287016113cc565b935050602084013567ffffffffffffffff81111561160157600080fd5b61160d86828701611440565b925050604061161e8682870161156b565b9150509250925092565b60006020828403121561163a57600080fd5b600082013567ffffffffffffffff81111561165457600080fd5b61166084828501611440565b91505092915050565b600080600080600060a0868803121561168157600080fd5b600086013567ffffffffffffffff81111561169b57600080fd5b6116a788828901611517565b95505060206116b8888289016113b7565b945050604086013567ffffffffffffffff8111156116d557600080fd5b6116e188828901611517565b935050606086013567ffffffffffffffff8111156116fe57600080fd5b61170a88828901611517565b925050608061171b8882890161156b565b9150509295509295909350565b60006020828403121561173a57600080fd5b60006117488482850161156b565b91505092915050565b600061175d8383611901565b905092915050565b61176e81611c45565b82525050565b61177d81611c45565b82525050565b600061178e82611be4565b6117988185611c12565b9350836020820285016117aa85611bd7565b8060005b858110156117e657848403895281516117c78582611751565b94506117d283611c05565b925060208a019950506001810190506117ae565b50829750879550505050505092915050565b61180181611c57565b82525050565b61181081611c63565b82525050565b600061182182611bfa565b61182b8185611c34565b935061183b818560208601611ca6565b61184481611cd9565b840191505092915050565b600061185a82611bef565b6118648185611c23565b9350611874818560208601611ca6565b61187d81611cd9565b840191505092915050565b600061189382611bef565b61189d8185611c34565b93506118ad818560208601611ca6565b6118b681611cd9565b840191505092915050565b60006118ce600783611c34565b91507f63617463686564000000000000000000000000000000000000000000000000006000830152602082019050919050565b600060e08301600083015161191960008601826119ab565b5060208301518482036020860152611931828261184f565b91505060408301516119466040860182611765565b50606083015161195960608601826119ab565b5060808301518482036080860152611971828261184f565b91505060a083015184820360a086015261198b828261184f565b91505060c08301516119a060c08601826119ab565b508091505092915050565b6119b481611c8d565b82525050565b6119c381611c8d565b82525050565b600060208201905081810360008301526119e38184611783565b905092915050565b6000602082019050611a0060008301846117f8565b92915050565b6000602082019050611a1b6000830184611807565b92915050565b60006020820190508181036000830152611a3b8184611816565b905092915050565b60006020820190508181036000830152611a5c816118c1565b9050919050565b6000602082019050611a7860008301846119ba565b92915050565b600060e082019050611a93600083018a6119ba565b8181036020830152611aa58189611888565b9050611ab46040830188611774565b611ac160608301876119ba565b8181036080830152611ad38186611888565b905081810360a0830152611ae78185611888565b9050611af660c08301846119ba565b98975050505050505050565b6000604051905081810181811067ffffffffffffffff82111715611b2557600080fd5b8060405250919050565b600067ffffffffffffffff821115611b4657600080fd5b602082029050602081019050919050565b600067ffffffffffffffff821115611b6e57600080fd5b602082029050602081019050919050565b600067ffffffffffffffff821115611b9657600080fd5b601f19601f8301169050602081019050919050565b600067ffffffffffffffff821115611bc257600080fd5b601f19601f8301169050602081019050919050565b6000602082019050919050565b600081519050919050565b600081519050919050565b600081519050919050565b6000602082019050919050565b600082825260208201905092915050565b600082825260208201905092915050565b600082825260208201905092915050565b6000611c5082611c6d565b9050919050565b60008115159050919050565b6000819050919050565b600073ffffffffffffffffffffffffffffffffffffffff82169050919050565b6000819050919050565b82818337600083830152505050565b60005b83811015611cc4578082015181840152602081019050611ca9565b83811115611cd3576000848401525b50505050565b6000601f19601f8301169050919050565b611cf381611c45565b8114611cfe57600080fd5b50565b611d0a81611c8d565b8114611d1557600080fd5b5056fea265627a7a723058201df85f8adf3d5dc574e911add4dbe33f82c2d42224de8611e956b48647c76f706c6578706572696d656e74616cf50037",
  "source": "pragma solidity ^0.5.8;\r\npragma experimental ABIEncoderV2;\r\n\r\n\r\ncontract Eirbmon{\r\n\r\n    struct _Eirbmon {\r\n        uint id;\r\n        string name;\r\n        address owner;\r\n        uint level;\r\n        string field;\r\n        string atk;\r\n        uint hp;\r\n    }\r\n    event SendEvent(string message);\r\n \r\n    uint public rnd = 1;\r\n\r\n    string[] private allAtk = [\"roulade\",\"petite bire\",\"brasse\",\"rattrapage\"];\r\n    uint[] private allAtkWeight = [0xa,0x6,0x3,0x1]; // poids entre 1 et 10 avec 1=> trs rare\r\n\r\n    string[] private allField = [\"RSI\",\"SEE\",\"Elec\",\"Matmeca\",\"Info\",\"Telecom\"];\r\n    uint[] private allFieldWeight = [0xa,0x8,0x6,0x4,0x2,0x1]; // poids entre 1 et 10 avec 1=> trs rare\r\n \r\n    string[] private allName = [\"nom1\",\"nom2\",\"nom3\",\"nom4\"];\r\n    uint[] private allNameWeight = [0xa,0x6,0x3,0x1]; // poids entre 1 et 10 avec 1=> trs rare\r\n\r\n    uint public eirbmonsCount = 0;\r\n    uint public registeredCount = 0;\r\n\r\n\r\n    mapping(uint => _Eirbmon) public _Eirbmons;\r\n    mapping(address => bool) public _registeredAccounts;\r\n\r\n    constructor () public {\r\n        addEirbmonToChain(\"Pikachu\",msg.sender,\"telecom\",\"roulade\",100);\r\n        addEirbmonToChain(\"Roucoul\",msg.sender,\"elec\",\"petite bire\",100);\r\n        addEirbmonToChain(\"Roucoul\",0x0000000000000000000000000000000000000000,\"info\",\"petite bire\",100);\r\n        addEirbmonToChain(\"Pikachu\",0x0000000000000000000000000000000000000000,\"SEE\",\"petite bire\",100);\r\n        generateAnNewEirbmon();\r\n    }\r\n\r\n    // ajoute un Eirbmon  la chaine\r\n    function  addEirbmonToChain(string memory name,address owner, string memory field, string memory atk, uint hp) public {\r\n        eirbmonsCount++;\r\n        _Eirbmons[eirbmonsCount] = _Eirbmon(eirbmonsCount,name,owner,0,field,atk,hp);\r\n    }\r\n \r\n    function initAccount() public {\r\n        require(!_registeredAccounts[msg.sender]);\r\n        _registeredAccounts[msg.sender] = true;\r\n        addEirbmonToChain(\"nom1\",msg.sender,\"RSI\",\"roulade\",40);\r\n    }\r\n\r\n    // gnre un nouvel Eirbmon random\r\n    function generateAnNewEirbmon() private {\r\n        // gnre un nombre entre 1 et la somme des poids  partir des 44 premiers nombres hex du hash\r\n        uint randAtkWeight = uint(uint(blockhash(block.number-1))/((0xf+1)**22))%sumArray(allAtkWeight)+1;\r\n        string memory selectedAtk = getValueFromRand(allAtk,allAtkWeight,randAtkWeight);\r\n\r\n        uint randFieldWeight = uint(uint(blockhash(block.number-1))/((0xf+1)**44))%sumArray(allFieldWeight);\r\n        string memory selectedField = getValueFromRand(allField,allFieldWeight,randFieldWeight);\r\n\r\n        uint randNameWeight = uint(uint(blockhash(block.number-1)))%sumArray(allNameWeight);\r\n        string memory selectedName = getValueFromRand(allName,allNameWeight,randNameWeight);\r\n\r\n        addEirbmonToChain(selectedName,0x0000000000000000000000000000000000000000,selectedField,selectedAtk,100);\r\n    }\r\n\r\n    // renvoie la valeur associ au nombre random pass en arguments en prenant en compte les poids de chaque valeur \r\n    function getValueFromRand(string[] memory valueArray,uint[] memory weightArray,uint randNameWeight) public pure returns(string memory) {\r\n        uint sum = 0x0;\r\n        for(uint i = 0;i < weightArray.length;i++){\r\n            sum += weightArray[i];\r\n            if(randNameWeight <= sum){\r\n                return valueArray[i];\r\n            }\r\n        }\r\n    }\r\n\r\n    //Fait la somme de tous les lments d'un tableau \r\n    function sumArray(uint[] memory _array) public pure returns(uint) {\r\n        uint sum = 0x0;\r\n         for(uint i;i < _array.length;i++){\r\n            sum += _array[i];\r\n        }\r\n        return sum;\r\n    }\r\n\r\n\r\n    // renvoie le nombre d'Eirbmon total\r\n    function getEirbmonCount() public view returns(uint)  {\r\n        return eirbmonsCount;\r\n    }\r\n\r\n    // renvoie les Eirbmons d'un compte\r\n    //attention  ne pas utiliser cet appel dans les fonctions de type write.\r\n    function getEirbmon(address owner) public view returns(_Eirbmon[] memory )  {\r\n            require(_registeredAccounts[owner]);\r\n            _Eirbmon[] memory ownerEirbmons;\r\n            uint j = 0;\r\n            for(uint i = 0; i < eirbmonsCount; i++){\r\n               if(_Eirbmons[i].owner == owner){\r\n                   ownerEirbmons[j] = _Eirbmons[i];\r\n                   j++;\r\n               }\r\n            }\r\n            return ownerEirbmons;\r\n    }\r\n\r\n    function isExisted(uint _EirbmonId) public view returns (bool){\r\n        return _EirbmonId<=eirbmonsCount;\r\n    }\r\n    function isOrphan(uint _EirbmonId) public view returns (bool){\r\n        return _Eirbmons[_EirbmonId].owner == 0x0000000000000000000000000000000000000000;\r\n    }\r\n\r\n    function getBlockNumber() public view returns(uint){\r\n        return block.number;\r\n    }\r\n    \r\n    function changeOwner(address owner,uint _EirbmonId) private {\r\n            _Eirbmons[_EirbmonId].owner = owner;\r\n    }\r\n\r\n    function catchEirbmon(uint _EirbmonId) public returns  (bytes32) {\r\n            require(isExisted(_EirbmonId));\r\n            require(isOrphan(_EirbmonId));\r\n            generateAnNewEirbmon();\r\n            changeOwner(msg.sender,_EirbmonId);\r\n            emit SendEvent(\"catched\");\r\n    }\r\n}\r\n\r\n\r\n// lorsque le joueur commence, il a les choix entre 3 eirbmons, \r\n// lorsqu'il en choisit 1, il en devient le proprio et cela cr alors 1 nouvel Eirbmon\r\n// qui dpend : du hash du block prcdent, de l'adresse du joueur fois id de l'eirbmon modulo 10, et le 3e chiffre et la multi des 2 premiers modulo 10\r\n",
  "sourcePath": "F:/Utilisateurs/Documents/GitHub/dev/Blockchain/contracts/Eirbmon.sol",
  "compiler": {
    "name": "solc",
    "version": "0.5.8+commit.23d335f2.Emscripten.clang"
  },
  "schemaVersion": "3.0.16",
  "updatedAt": "2019-12-01T20:58:56.457Z",
  "devdoc": {
    "methods": {}
  },
  "userdoc": {
    "methods": {}
  }
}