{
  "contractName": "Eirbmon",
  "abi": [
    {
      "constant": true,
      "inputs": [],
      "name": "registeredCount",
      "outputs": [
        {
          "name": "",
          "type": "uint256"
        }
      ],
      "payable": false,
      "stateMutability": "view",
      "type": "function"
    },
    {
      "constant": true,
      "inputs": [
        {
          "name": "",
          "type": "address"
        }
      ],
      "name": "_registeredAccounts",
      "outputs": [
        {
          "name": "",
          "type": "bool"
        }
      ],
      "payable": false,
      "stateMutability": "view",
      "type": "function"
    },
    {
      "constant": true,
      "inputs": [],
      "name": "eirbmonsCount",
      "outputs": [
        {
          "name": "",
          "type": "uint256"
        }
      ],
      "payable": false,
      "stateMutability": "view",
      "type": "function"
    },
    {
      "constant": true,
      "inputs": [
        {
          "name": "",
          "type": "uint256"
        }
      ],
      "name": "_Eirbmons",
      "outputs": [
        {
          "name": "id",
          "type": "uint256"
        },
        {
          "name": "name",
          "type": "string"
        },
        {
          "name": "owner",
          "type": "address"
        },
        {
          "name": "level",
          "type": "uint256"
        },
        {
          "name": "field",
          "type": "string"
        },
        {
          "name": "atk",
          "type": "string"
        },
        {
          "name": "hp",
          "type": "uint256"
        }
      ],
      "payable": false,
      "stateMutability": "view",
      "type": "function"
    },
    {
      "constant": true,
      "inputs": [],
      "name": "rnd",
      "outputs": [
        {
          "name": "",
          "type": "uint256"
        }
      ],
      "payable": false,
      "stateMutability": "view",
      "type": "function"
    },
    {
      "inputs": [],
      "payable": false,
      "stateMutability": "nonpayable",
      "type": "constructor"
    },
    {
      "anonymous": false,
      "inputs": [
        {
          "indexed": false,
          "name": "message",
          "type": "string"
        }
      ],
      "name": "SendEvent",
      "type": "event"
    },
    {
      "constant": false,
      "inputs": [
        {
          "name": "name",
          "type": "string"
        },
        {
          "name": "owner",
          "type": "address"
        },
        {
          "name": "field",
          "type": "string"
        },
        {
          "name": "atk",
          "type": "string"
        },
        {
          "name": "hp",
          "type": "uint256"
        }
      ],
      "name": "addEirbmonToChain",
      "outputs": [],
      "payable": false,
      "stateMutability": "nonpayable",
      "type": "function"
    },
    {
      "constant": false,
      "inputs": [],
      "name": "initAccount",
      "outputs": [],
      "payable": false,
      "stateMutability": "nonpayable",
      "type": "function"
    },
    {
      "constant": true,
      "inputs": [
        {
          "name": "valueArray",
          "type": "string[]"
        },
        {
          "name": "weightArray",
          "type": "uint256[]"
        },
        {
          "name": "randNameWeight",
          "type": "uint256"
        }
      ],
      "name": "getValueFromRand",
      "outputs": [
        {
          "name": "",
          "type": "string"
        }
      ],
      "payable": false,
      "stateMutability": "pure",
      "type": "function"
    },
    {
      "constant": true,
      "inputs": [
        {
          "name": "_array",
          "type": "uint256[]"
        }
      ],
      "name": "sumArray",
      "outputs": [
        {
          "name": "",
          "type": "uint256"
        }
      ],
      "payable": false,
      "stateMutability": "pure",
      "type": "function"
    },
    {
      "constant": true,
      "inputs": [],
      "name": "getEirbmonCount",
      "outputs": [
        {
          "name": "",
          "type": "uint256"
        }
      ],
      "payable": false,
      "stateMutability": "view",
      "type": "function"
    },
    {
      "constant": true,
      "inputs": [
        {
          "name": "owner",
          "type": "address"
        }
      ],
      "name": "getEirbmon",
      "outputs": [
        {
          "components": [
            {
              "name": "id",
              "type": "uint256"
            },
            {
              "name": "name",
              "type": "string"
            },
            {
              "name": "owner",
              "type": "address"
            },
            {
              "name": "level",
              "type": "uint256"
            },
            {
              "name": "field",
              "type": "string"
            },
            {
              "name": "atk",
              "type": "string"
            },
            {
              "name": "hp",
              "type": "uint256"
            }
          ],
          "name": "",
          "type": "tuple[]"
        }
      ],
      "payable": false,
      "stateMutability": "view",
      "type": "function"
    },
    {
      "constant": true,
      "inputs": [
        {
          "name": "_EirbmonId",
          "type": "uint256"
        }
      ],
      "name": "isExisted",
      "outputs": [
        {
          "name": "",
          "type": "bool"
        }
      ],
      "payable": false,
      "stateMutability": "view",
      "type": "function"
    },
    {
      "constant": true,
      "inputs": [
        {
          "name": "_EirbmonId",
          "type": "uint256"
        }
      ],
      "name": "isOrphan",
      "outputs": [
        {
          "name": "",
          "type": "bool"
        }
      ],
      "payable": false,
      "stateMutability": "view",
      "type": "function"
    },
    {
      "constant": true,
      "inputs": [],
      "name": "getBlockNumber",
      "outputs": [
        {
          "name": "",
          "type": "uint256"
        }
      ],
      "payable": false,
      "stateMutability": "view",
      "type": "function"
    },
    {
      "constant": false,
      "inputs": [
        {
          "name": "_EirbmonId",
          "type": "uint256"
        }
      ],
      "name": "catchEirbmon",
      "outputs": [
        {
          "name": "",
          "type": "bytes32"
        }
      ],
      "payable": false,
      "stateMutability": "nonpayable",
      "type": "function"
    }
  ],
  "bytecode": "0x6080604052600160005560405180608001604052806040518060400160405280600781526020017f726f756c6164650000000000000000000000000000000000000000000000000081525081526020016040518060400160405280600d81526020017f706574697465206269c3a872650000000000000000000000000000000000000081525081526020016040518060400160405280600681526020017f627261737365000000000000000000000000000000000000000000000000000081525081526020016040518060400160405280600a81526020017f726174747261706167650000000000000000000000000000000000000000000081525081525060019060046200011092919062000c49565b506040518060800160405280600a60ff168152602001600660ff168152602001600360ff168152602001600160ff1681525060029060046200015492919062000cb0565b506040518060c001604052806040518060400160405280600381526020017f525349000000000000000000000000000000000000000000000000000000000081525081526020016040518060400160405280600381526020017f534545000000000000000000000000000000000000000000000000000000000081525081526020016040518060400160405280600481526020017f456c65630000000000000000000000000000000000000000000000000000000081525081526020016040518060400160405280600781526020017f4d61746d6563610000000000000000000000000000000000000000000000000081525081526020016040518060400160405280600481526020017f496e666f0000000000000000000000000000000000000000000000000000000081525081526020016040518060400160405280600781526020017f54656c65636f6d000000000000000000000000000000000000000000000000008152508152506003906006620002d292919062000d07565b506040518060c00160405280600a60ff168152602001600860ff168152602001600660ff168152602001600460ff168152602001600260ff168152602001600160ff1681525060049060066200032a92919062000d6e565b5060405180608001604052806040518060400160405280600481526020017f6e6f6d310000000000000000000000000000000000000000000000000000000081525081526020016040518060400160405280600481526020017f6e6f6d320000000000000000000000000000000000000000000000000000000081525081526020016040518060400160405280600481526020017f6e6f6d330000000000000000000000000000000000000000000000000000000081525081526020016040518060400160405280600481526020017f6e6f6d340000000000000000000000000000000000000000000000000000000081525081525060059060046200043292919062000c49565b506040518060800160405280600a60ff168152602001600660ff168152602001600360ff168152602001600160ff1681525060069060046200047692919062000cb0565b50600060075560006008553480156200048e57600080fd5b506200049f620004a560201b60201c565b62000ef1565b600060016200050c6002805480602002602001604051908101604052809291908181526020018280548015620004fb57602002820191906000526020600020905b815481526020019060010190808311620004e6575b505050505062000a5660201b60201c565b6b010000000000000000000000600143034060001c816200052957fe5b04816200053257fe5b060190506060620006846001805480602002602001604051908101604052809291908181526020016000905b8282101562000620578382906000526020600020018054600181600116156101000203166002900480601f0160208091040260200160405190810160405280929190818152602001828054600181600116156101000203166002900480156200060b5780601f10620005df576101008083540402835291602001916200060b565b820191906000526020600020905b815481529060010190602001808311620005ed57829003601f168201915b5050505050815260200190600101906200055e565b5050505060028054806020026020016040519081016040528092919081815260200182805480156200067257602002820191906000526020600020905b8154815260200190600101908083116200065d575b50505050508462000a9b60201b60201c565b90506000620006eb6004805480602002602001604051908101604052809291908181526020018280548015620006da57602002820191906000526020600020905b815481526020019060010190808311620006c5575b505050505062000a5660201b60201c565b760100000000000000000000000000000000000000000000600143034060001c816200071357fe5b04816200071c57fe5b06905060606200086d6003805480602002602001604051908101604052809291908181526020016000905b8282101562000809578382906000526020600020018054600181600116156101000203166002900480601f016020809104026020016040519081016040528092919081815260200182805460018160011615610100020316600290048015620007f45780601f10620007c857610100808354040283529160200191620007f4565b820191906000526020600020905b815481529060010190602001808311620007d657829003601f168201915b50505050508152602001906001019062000747565b5050505060048054806020026020016040519081016040528092919081815260200182805480156200085b57602002820191906000526020600020905b81548152602001906001019080831162000846575b50505050508462000a9b60201b60201c565b90506000620008d46006805480602002602001604051908101604052809291908181526020018280548015620008c357602002820191906000526020600020905b815481526020019060010190808311620008ae575b505050505062000a5660201b60201c565b600143034060001c81620008e457fe5b069050606062000a356005805480602002602001604051908101604052809291908181526020016000905b82821015620009d1578382906000526020600020018054600181600116156101000203166002900480601f016020809104026020016040519081016040528092919081815260200182805460018160011615610100020316600290048015620009bc5780601f106200099057610100808354040283529160200191620009bc565b820191906000526020600020905b8154815290600101906020018083116200099e57829003601f168201915b5050505050815260200190600101906200090f565b50505050600680548060200260200160405190810160405280929190818152602001828054801562000a2357602002820191906000526020600020905b81548152602001906001019080831162000a0e575b50505050508462000a9b60201b60201c565b905062000a4e8160008588606462000b0a60201b60201c565b505050505050565b6000806000905060005b835181101562000a915783818151811062000a7757fe5b602002602001015182019150808060010191505062000a60565b5080915050919050565b6060600080905060008090505b845181101562000b005784818151811062000abf57fe5b60200260200101518201915081841162000af25785818151811062000ae057fe5b60200260200101519250505062000b03565b808060010191505062000aa8565b50505b9392505050565b6007600081548092919060010191905055506040518060e0016040528060075481526020018681526020018573ffffffffffffffffffffffffffffffffffffffff168152602001600081526020018481526020018381526020018281525060096000600754815260200190815260200160002060008201518160000155602082015181600101908051906020019062000ba592919062000dc5565b5060408201518160020160006101000a81548173ffffffffffffffffffffffffffffffffffffffff021916908373ffffffffffffffffffffffffffffffffffffffff16021790555060608201518160030155608082015181600401908051906020019062000c1592919062000dc5565b5060a082015181600501908051906020019062000c3492919062000dc5565b5060c082015181600601559050505050505050565b82805482825590600052602060002090810192821562000c9d579160200282015b8281111562000c9c57825182908051906020019062000c8b92919062000dc5565b509160200191906001019062000c6a565b5b50905062000cac919062000e4c565b5090565b82805482825590600052602060002090810192821562000cf4579160200282015b8281111562000cf3578251829060ff1690559160200191906001019062000cd1565b5b50905062000d03919062000e7d565b5090565b82805482825590600052602060002090810192821562000d5b579160200282015b8281111562000d5a57825182908051906020019062000d4992919062000dc5565b509160200191906001019062000d28565b5b50905062000d6a919062000e4c565b5090565b82805482825590600052602060002090810192821562000db2579160200282015b8281111562000db1578251829060ff1690559160200191906001019062000d8f565b5b50905062000dc1919062000e7d565b5090565b828054600181600116156101000203166002900490600052602060002090601f016020900481019282601f1062000e0857805160ff191683800117855562000e39565b8280016001018555821562000e39579182015b8281111562000e3857825182559160200191906001019062000e1b565b5b50905062000e48919062000e7d565b5090565b62000e7a91905b8082111562000e76576000818162000e6c919062000ea5565b5060010162000e53565b5090565b90565b62000ea291905b8082111562000e9e57600081600090555060010162000e84565b5090565b90565b50805460018160011615610100020316600290046000825580601f1062000ecd575062000eee565b601f01602090049060005260206000209081019062000eed919062000e7d565b5b50565b611d528062000f016000396000f3fe608060405234801561001057600080fd5b50600436106100f45760003560e01c80635c824d7a11610097578063cbb3abd111610066578063cbb3abd114610299578063e1ba8bba146102cf578063fec1439c146102ff578063fff39a511461031d576100f4565b80635c824d7a146101eb57806380aa3ee61461021b578063819308a71461024b578063c80f760c1461027b576100f4565b806332834b48116100d357806332834b481461017757806342cbb15c146101935780634c12569d146101b15780634ec1ce21146101e1576100f4565b80621931d0146100f95780631e2aea0614610129578063210ff9bb14610159575b600080fd5b610113600480360361010e9190810190611580565b61033b565b60405161012091906119c9565b60405180910390f35b610143600480360361013e9190810190611628565b6106c4565b6040516101509190611a63565b60405180910390f35b610161610706565b60405161016e9190611a63565b60405180910390f35b610191600480360361018c9190810190611669565b61070c565b005b61019b610845565b6040516101a89190611a63565b60405180910390f35b6101cb60048036036101c691908101906115a9565b61084d565b6040516101d89190611a21565b60405180910390f35b6101e96108b6565b005b61020560048036036102009190810190611580565b610a14565b60405161021291906119eb565b60405180910390f35b61023560048036036102309190810190611728565b610a34565b60405161024291906119eb565b60405180910390f35b61026560048036036102609190810190611728565b610aa2565b6040516102729190611a06565b60405180910390f35b610283610b14565b6040516102909190611a63565b60405180910390f35b6102b360048036036102ae9190810190611728565b610b1a565b6040516102c69796959493929190611a7e565b60405180910390f35b6102e960048036036102e49190810190611728565b610d44565b6040516102f691906119eb565b60405180910390f35b610307610d53565b6040516103149190611a63565b60405180910390f35b610325610d59565b6040516103329190611a63565b60405180910390f35b6060600a60008373ffffffffffffffffffffffffffffffffffffffff1673ffffffffffffffffffffffffffffffffffffffff16815260200190815260200160002060009054906101000a900460ff1661039357600080fd5b6060600080905060008090505b6007548110156106b9578473ffffffffffffffffffffffffffffffffffffffff166009600083815260200190815260200160002060020160009054906101000a900473ffffffffffffffffffffffffffffffffffffffff1673ffffffffffffffffffffffffffffffffffffffff1614156106ac57600960008281526020019081526020016000206040518060e001604052908160008201548152602001600182018054600181600116156101000203166002900480601f0160208091040260200160405190810160405280929190818152602001828054600181600116156101000203166002900480156104d55780601f106104aa576101008083540402835291602001916104d5565b820191906000526020600020905b8154815290600101906020018083116104b857829003601f168201915b505050505081526020016002820160009054906101000a900473ffffffffffffffffffffffffffffffffffffffff1673ffffffffffffffffffffffffffffffffffffffff1673ffffffffffffffffffffffffffffffffffffffff16815260200160038201548152602001600482018054600181600116156101000203166002900480601f0160208091040260200160405190810160405280929190818152602001828054600181600116156101000203166002900480156105d75780601f106105ac576101008083540402835291602001916105d7565b820191906000526020600020905b8154815290600101906020018083116105ba57829003601f168201915b50505050508152602001600582018054600181600116156101000203166002900480601f0160208091040260200160405190810160405280929190818152602001828054600181600116156101000203166002900480156106795780601f1061064e57610100808354040283529160200191610679565b820191906000526020600020905b81548152906001019060200180831161065c57829003601f168201915b5050505050815260200160068201548152505083838151811061069857fe5b602002602001018190525081806001019250505b80806001019150506103a0565b508192505050919050565b6000806000905060005b83518110156106fc578381815181106106e357fe5b60200260200101518201915080806001019150506106ce565b5080915050919050565b60085481565b6007600081548092919060010191905055506040518060e0016040528060075481526020018681526020018573ffffffffffffffffffffffffffffffffffffffff16815260200160008152602001848152602001838152602001828152506009600060075481526020019081526020016000206000820151816000015560208201518160010190805190602001906107a5929190611312565b5060408201518160020160006101000a81548173ffffffffffffffffffffffffffffffffffffffff021916908373ffffffffffffffffffffffffffffffffffffffff160217905550606082015181600301556080820151816004019080519060200190610813929190611312565b5060a0820151816005019080519060200190610830929190611312565b5060c082015181600601559050505050505050565b600043905090565b6060600080905060008090505b84518110156108ac5784818151811061086f57fe5b60200260200101518201915081841161089f5785818151811061088e57fe5b6020026020010151925050506108af565b808060010191505061085a565b50505b9392505050565b600a60003373ffffffffffffffffffffffffffffffffffffffff1673ffffffffffffffffffffffffffffffffffffffff16815260200190815260200160002060009054906101000a900460ff161561090d57600080fd5b6001600a60003373ffffffffffffffffffffffffffffffffffffffff1673ffffffffffffffffffffffffffffffffffffffff16815260200190815260200160002060006101000a81548160ff021916908315150217905550610a126040518060400160405280600481526020017f6e6f6d3100000000000000000000000000000000000000000000000000000000815250336040518060400160405280600381526020017f52534900000000000000000000000000000000000000000000000000000000008152506040518060400160405280600781526020017f726f756c61646500000000000000000000000000000000000000000000000000815250602861070c565b565b600a6020528060005260406000206000915054906101000a900460ff1681565b60008073ffffffffffffffffffffffffffffffffffffffff166009600084815260200190815260200160002060020160009054906101000a900473ffffffffffffffffffffffffffffffffffffffff1673ffffffffffffffffffffffffffffffffffffffff16149050919050565b6000610aad82610d44565b610ab657600080fd5b610abf82610a34565b610ac857600080fd5b610ad0610d63565b610ada33836112b9565b7f01929b1546ac5c8cbd09f19de437245776c852d26202ac70ef8ede5dbb2e29b3604051610b0790611a43565b60405180910390a1919050565b60075481565b6009602052806000526040600020600091509050806000015490806001018054600181600116156101000203166002900480601f016020809104026020016040519081016040528092919081815260200182805460018160011615610100020316600290048015610bcc5780601f10610ba157610100808354040283529160200191610bcc565b820191906000526020600020905b815481529060010190602001808311610baf57829003601f168201915b5050505050908060020160009054906101000a900473ffffffffffffffffffffffffffffffffffffffff1690806003015490806004018054600181600116156101000203166002900480601f016020809104026020016040519081016040528092919081815260200182805460018160011615610100020316600290048015610c965780601f10610c6b57610100808354040283529160200191610c96565b820191906000526020600020905b815481529060010190602001808311610c7957829003601f168201915b505050505090806005018054600181600116156101000203166002900480601f016020809104026020016040519081016040528092919081815260200182805460018160011615610100020316600290048015610d345780601f10610d0957610100808354040283529160200191610d34565b820191906000526020600020905b815481529060010190602001808311610d1757829003601f168201915b5050505050908060060154905087565b60006007548211159050919050565b60005481565b6000600754905090565b60006001610dc06002805480602002602001604051908101604052809291908181526020018280548015610db657602002820191906000526020600020905b815481526020019060010190808311610da2575b50505050506106c4565b6b010000000000000000000000600143034060001c81610ddc57fe5b0481610de457fe5b060190506060610f266001805480602002602001604051908101604052809291908181526020016000905b82821015610ecb578382906000526020600020018054600181600116156101000203166002900480601f016020809104026020016040519081016040528092919081815260200182805460018160011615610100020316600290048015610eb75780601f10610e8c57610100808354040283529160200191610eb7565b820191906000526020600020905b815481529060010190602001808311610e9a57829003601f168201915b505050505081526020019060010190610e0f565b505050506002805480602002602001604051908101604052809291908181526020018280548015610f1b57602002820191906000526020600020905b815481526020019060010190808311610f07575b50505050508461084d565b90506000610f836004805480602002602001604051908101604052809291908181526020018280548015610f7957602002820191906000526020600020905b815481526020019060010190808311610f65575b50505050506106c4565b760100000000000000000000000000000000000000000000600143034060001c81610faa57fe5b0481610fb257fe5b06905060606110f36003805480602002602001604051908101604052809291908181526020016000905b82821015611098578382906000526020600020018054600181600116156101000203166002900480601f0160208091040260200160405190810160405280929190818152602001828054600181600116156101000203166002900480156110845780601f1061105957610100808354040283529160200191611084565b820191906000526020600020905b81548152906001019060200180831161106757829003601f168201915b505050505081526020019060010190610fdc565b5050505060048054806020026020016040519081016040528092919081815260200182805480156110e857602002820191906000526020600020905b8154815260200190600101908083116110d4575b50505050508461084d565b90506000611150600680548060200260200160405190810160405280929190818152602001828054801561114657602002820191906000526020600020905b815481526020019060010190808311611132575b50505050506106c4565b600143034060001c8161115f57fe5b06905060606112a06005805480602002602001604051908101604052809291908181526020016000905b82821015611245578382906000526020600020018054600181600116156101000203166002900480601f0160208091040260200160405190810160405280929190818152602001828054600181600116156101000203166002900480156112315780601f1061120657610100808354040283529160200191611231565b820191906000526020600020905b81548152906001019060200180831161121457829003601f168201915b505050505081526020019060010190611189565b50505050600680548060200260200160405190810160405280929190818152602001828054801561129557602002820191906000526020600020905b815481526020019060010190808311611281575b50505050508461084d565b90506112b18160008588606461070c565b505050505050565b816009600083815260200190815260200160002060020160006101000a81548173ffffffffffffffffffffffffffffffffffffffff021916908373ffffffffffffffffffffffffffffffffffffffff1602179055505050565b828054600181600116156101000203166002900490600052602060002090601f016020900481019282601f1061135357805160ff1916838001178555611381565b82800160010185558215611381579182015b82811115611380578251825591602001919060010190611365565b5b50905061138e9190611392565b5090565b6113b491905b808211156113b0576000816000905550600101611398565b5090565b90565b6000813590506113c681611cea565b92915050565b600082601f8301126113dd57600080fd5b81356113f06113eb82611b2f565b611b02565b9150818183526020840193506020810190508360005b83811015611436578135860161141c88826114c3565b845260208401935060208301925050600181019050611406565b5050505092915050565b600082601f83011261145157600080fd5b813561146461145f82611b57565b611b02565b9150818183526020840193506020810190508385602084028201111561148957600080fd5b60005b838110156114b9578161149f888261156b565b84526020840193506020830192505060018101905061148c565b5050505092915050565b600082601f8301126114d457600080fd5b81356114e76114e282611b7f565b611b02565b9150808252602083016020830185838301111561150357600080fd5b61150e838284611c97565b50505092915050565b600082601f83011261152857600080fd5b813561153b61153682611bab565b611b02565b9150808252602083016020830185838301111561155757600080fd5b611562838284611c97565b50505092915050565b60008135905061157a81611d01565b92915050565b60006020828403121561159257600080fd5b60006115a0848285016113b7565b91505092915050565b6000806000606084860312156115be57600080fd5b600084013567ffffffffffffffff8111156115d857600080fd5b6115e4868287016113cc565b935050602084013567ffffffffffffffff81111561160157600080fd5b61160d86828701611440565b925050604061161e8682870161156b565b9150509250925092565b60006020828403121561163a57600080fd5b600082013567ffffffffffffffff81111561165457600080fd5b61166084828501611440565b91505092915050565b600080600080600060a0868803121561168157600080fd5b600086013567ffffffffffffffff81111561169b57600080fd5b6116a788828901611517565b95505060206116b8888289016113b7565b945050604086013567ffffffffffffffff8111156116d557600080fd5b6116e188828901611517565b935050606086013567ffffffffffffffff8111156116fe57600080fd5b61170a88828901611517565b925050608061171b8882890161156b565b9150509295509295909350565b60006020828403121561173a57600080fd5b60006117488482850161156b565b91505092915050565b600061175d8383611901565b905092915050565b61176e81611c45565b82525050565b61177d81611c45565b82525050565b600061178e82611be4565b6117988185611c12565b9350836020820285016117aa85611bd7565b8060005b858110156117e657848403895281516117c78582611751565b94506117d283611c05565b925060208a019950506001810190506117ae565b50829750879550505050505092915050565b61180181611c57565b82525050565b61181081611c63565b82525050565b600061182182611bfa565b61182b8185611c34565b935061183b818560208601611ca6565b61184481611cd9565b840191505092915050565b600061185a82611bef565b6118648185611c23565b9350611874818560208601611ca6565b61187d81611cd9565b840191505092915050565b600061189382611bef565b61189d8185611c34565b93506118ad818560208601611ca6565b6118b681611cd9565b840191505092915050565b60006118ce600783611c34565b91507f63617463686564000000000000000000000000000000000000000000000000006000830152602082019050919050565b600060e08301600083015161191960008601826119ab565b5060208301518482036020860152611931828261184f565b91505060408301516119466040860182611765565b50606083015161195960608601826119ab565b5060808301518482036080860152611971828261184f565b91505060a083015184820360a086015261198b828261184f565b91505060c08301516119a060c08601826119ab565b508091505092915050565b6119b481611c8d565b82525050565b6119c381611c8d565b82525050565b600060208201905081810360008301526119e38184611783565b905092915050565b6000602082019050611a0060008301846117f8565b92915050565b6000602082019050611a1b6000830184611807565b92915050565b60006020820190508181036000830152611a3b8184611816565b905092915050565b60006020820190508181036000830152611a5c816118c1565b9050919050565b6000602082019050611a7860008301846119ba565b92915050565b600060e082019050611a93600083018a6119ba565b8181036020830152611aa58189611888565b9050611ab46040830188611774565b611ac160608301876119ba565b8181036080830152611ad38186611888565b905081810360a0830152611ae78185611888565b9050611af660c08301846119ba565b98975050505050505050565b6000604051905081810181811067ffffffffffffffff82111715611b2557600080fd5b8060405250919050565b600067ffffffffffffffff821115611b4657600080fd5b602082029050602081019050919050565b600067ffffffffffffffff821115611b6e57600080fd5b602082029050602081019050919050565b600067ffffffffffffffff821115611b9657600080fd5b601f19601f8301169050602081019050919050565b600067ffffffffffffffff821115611bc257600080fd5b601f19601f8301169050602081019050919050565b6000602082019050919050565b600081519050919050565b600081519050919050565b600081519050919050565b6000602082019050919050565b600082825260208201905092915050565b600082825260208201905092915050565b600082825260208201905092915050565b6000611c5082611c6d565b9050919050565b60008115159050919050565b6000819050919050565b600073ffffffffffffffffffffffffffffffffffffffff82169050919050565b6000819050919050565b82818337600083830152505050565b60005b83811015611cc4578082015181840152602081019050611ca9565b83811115611cd3576000848401525b50505050565b6000601f19601f8301169050919050565b611cf381611c45565b8114611cfe57600080fd5b50565b611d0a81611c8d565b8114611d1557600080fd5b5056fea265627a7a7230582041da36a6ae437ec882383295fb09d9f853e03e5918669ca68df3a113885ad9586c6578706572696d656e74616cf50037",
  "source": "pragma solidity ^0.5.8;\npragma experimental ABIEncoderV2;\n\n\ncontract Eirbmon{\n\n    struct _Eirbmon {\n        uint id;\n        string name;\n        address owner;\n        uint level;\n        string field;\n        string atk;\n        uint hp;\n    }\n    event SendEvent(string message);\n \n    uint public rnd = 1;\n\n    string[] private allAtk = [\"roulade\",\"petite bire\",\"brasse\",\"rattrapage\"];\n    uint[] private allAtkWeight = [0xa,0x6,0x3,0x1]; // poids entre 1 et 10 avec 1=> trs rare\n\n    string[] private allField = [\"RSI\",\"SEE\",\"Elec\",\"Matmeca\",\"Info\",\"Telecom\"];\n    uint[] private allFieldWeight = [0xa,0x8,0x6,0x4,0x2,0x1]; // poids entre 1 et 10 avec 1=> trs rare\n \n    string[] private allName = [\"nom1\",\"nom2\",\"nom3\",\"nom4\"];\n    uint[] private allNameWeight = [0xa,0x6,0x3,0x1]; // poids entre 1 et 10 avec 1=> trs rare\n\n    uint public eirbmonsCount = 0;\n    uint public registeredCount = 0;\n\n\n    mapping(uint => _Eirbmon) public _Eirbmons;\n    mapping(address => bool) public _registeredAccounts;\n\n    constructor () public {\n        generateAnNewEirbmon();\n    }\n\n    // ajoute un Eirbmon  la chaine\n    function  addEirbmonToChain(string memory name,address owner, string memory field, string memory atk, uint hp) public {\n        eirbmonsCount++;\n        _Eirbmons[eirbmonsCount] = _Eirbmon(eirbmonsCount,name,owner,0,field,atk,hp);\n    }\n \n    function initAccount() public {\n        require(!_registeredAccounts[msg.sender]);\n        _registeredAccounts[msg.sender] = true;\n        addEirbmonToChain(\"nom1\",msg.sender,\"RSI\",\"roulade\",40);\n    }\n\n    // gnre un nouvel Eirbmon random\n    function generateAnNewEirbmon() private {\n        // gnre un nombre entre 1 et la somme des poids  partir des 44 premiers nombres hex du hash\n        uint randAtkWeight = uint(uint(blockhash(block.number-1))/((0xf+1)**22))%sumArray(allAtkWeight)+1;\n        string memory selectedAtk = getValueFromRand(allAtk,allAtkWeight,randAtkWeight);\n\n        uint randFieldWeight = uint(uint(blockhash(block.number-1))/((0xf+1)**44))%sumArray(allFieldWeight);\n        string memory selectedField = getValueFromRand(allField,allFieldWeight,randFieldWeight);\n\n        uint randNameWeight = uint(uint(blockhash(block.number-1)))%sumArray(allNameWeight);\n        string memory selectedName = getValueFromRand(allName,allNameWeight,randNameWeight);\n\n        addEirbmonToChain(selectedName,0x0000000000000000000000000000000000000000,selectedField,selectedAtk,100);\n    }\n\n    // renvoie la valeur associ au nombre random pass en arguments en prenant en compte les poids de chaque valeur \n    function getValueFromRand(string[] memory valueArray,uint[] memory weightArray,uint randNameWeight) public pure returns(string memory) {\n        uint sum = 0x0;\n        for(uint i = 0;i < weightArray.length;i++){\n            sum += weightArray[i];\n            if(randNameWeight <= sum){\n                return valueArray[i];\n            }\n        }\n    }\n\n    //Fait la somme de tous les lments d'un tableau \n    function sumArray(uint[] memory _array) public pure returns(uint) {\n        uint sum = 0x0;\n         for(uint i;i < _array.length;i++){\n            sum += _array[i];\n        }\n        return sum;\n    }\n\n\n    // renvoie le nombre d'Eirbmon total\n    function getEirbmonCount() public view returns(uint)  {\n        return eirbmonsCount;\n    }\n\n    // renvoie les Eirbmons d'un compte\n    //attention  ne pas utiliser cet appel dans les fonctions de type write.\n    function getEirbmon(address owner) public view returns(_Eirbmon[] memory )  {\n            require(_registeredAccounts[owner]);\n            _Eirbmon[] memory ownerEirbmons;\n            uint j = 0;\n            for(uint i = 0; i < eirbmonsCount; i++){\n               if(_Eirbmons[i].owner == owner){\n                   ownerEirbmons[j] = _Eirbmons[i];\n                   j++;\n               }\n            }\n            return ownerEirbmons;\n    }\n\n    function isExisted(uint _EirbmonId) public view returns (bool){\n        return _EirbmonId<=eirbmonsCount;\n    }\n    function isOrphan(uint _EirbmonId) public view returns (bool){\n        return _Eirbmons[_EirbmonId].owner == 0x0000000000000000000000000000000000000000;\n    }\n\n    function getBlockNumber() public view returns(uint){\n        return block.number;\n    }\n    \n    function changeOwner(address owner,uint _EirbmonId) private {\n            _Eirbmons[_EirbmonId].owner = owner;\n    }\n\n    function catchEirbmon(uint _EirbmonId) public returns  (bytes32) {\n            require(isExisted(_EirbmonId));\n            require(isOrphan(_EirbmonId));\n            generateAnNewEirbmon();\n            changeOwner(msg.sender,_EirbmonId);\n            emit SendEvent(\"catched\");\n    }\n}\n\n\n// lorsque le joueur commence, il a les choix entre 3 eirbmons, \n// lorsqu'il en choisit 1, il en devient le proprio et cela cr alors 1 nouvel Eirbmon\n// qui dpend : du hash du block prcdent, de l'adresse du joueur fois id de l'eirbmon modulo 10, et le 3e chiffre et la multi des 2 premiers modulo 10\n",
  "sourcePath": "/home/atia/Desktop/projetS9/EirbMon/Blockchain/contracts/Eirbmon.sol",
  "compiler": {
    "name": "solc",
    "version": "0.5.8+commit.23d335f2.Emscripten.clang"
  },
  "schemaVersion": "3.0.16",
  "updatedAt": "2019-11-30T08:57:10.723Z",
  "devdoc": {
    "methods": {}
  },
  "userdoc": {
    "methods": {}
  }
}