{
  "contractName": "Eirbmon",
  "abi": [
    {
      "inputs": [],
      "payable": false,
      "stateMutability": "nonpayable",
      "type": "constructor"
    },
    {
      "anonymous": false,
      "inputs": [
        {
          "indexed": false,
          "internalType": "string",
          "name": "message",
          "type": "string"
        }
      ],
      "name": "SendEvent",
      "type": "event"
    },
    {
      "constant": true,
      "inputs": [
        {
          "internalType": "uint256",
          "name": "",
          "type": "uint256"
        }
      ],
      "name": "_Eirbmons",
      "outputs": [
        {
          "internalType": "uint256",
          "name": "id",
          "type": "uint256"
        },
        {
          "internalType": "string",
          "name": "name",
          "type": "string"
        },
        {
          "internalType": "address payable",
          "name": "owner",
          "type": "address"
        },
        {
          "internalType": "uint256",
          "name": "evolve",
          "type": "uint256"
        },
        {
          "internalType": "string",
          "name": "field",
          "type": "string"
        },
        {
          "internalType": "uint256",
          "name": "hp",
          "type": "uint256"
        },
        {
          "internalType": "uint256",
          "name": "canBeExhangedTo",
          "type": "uint256"
        },
        {
          "internalType": "uint256",
          "name": "price",
          "type": "uint256"
        },
        {
          "internalType": "bool",
          "name": "canBeSelled",
          "type": "bool"
        },
        {
          "internalType": "uint256",
          "name": "value",
          "type": "uint256"
        },
        {
          "internalType": "uint256",
          "name": "birthDate",
          "type": "uint256"
        }
      ],
      "payable": false,
      "stateMutability": "view",
      "type": "function"
    },
    {
      "constant": true,
      "inputs": [
        {
          "internalType": "address",
          "name": "",
          "type": "address"
        }
      ],
      "name": "_registeredAccounts",
      "outputs": [
        {
          "internalType": "bool",
          "name": "",
          "type": "bool"
        }
      ],
      "payable": false,
      "stateMutability": "view",
      "type": "function"
    },
    {
      "constant": true,
      "inputs": [],
      "name": "eirbmonsCount",
      "outputs": [
        {
          "internalType": "uint256",
          "name": "",
          "type": "uint256"
        }
      ],
      "payable": false,
      "stateMutability": "view",
      "type": "function"
    },
    {
      "constant": true,
      "inputs": [],
      "name": "registeredCount",
      "outputs": [
        {
          "internalType": "uint256",
          "name": "",
          "type": "uint256"
        }
      ],
      "payable": false,
      "stateMutability": "view",
      "type": "function"
    },
    {
      "constant": false,
      "inputs": [
        {
          "internalType": "string",
          "name": "name",
          "type": "string"
        },
        {
          "internalType": "address payable",
          "name": "owner",
          "type": "address"
        },
        {
          "internalType": "string",
          "name": "field",
          "type": "string"
        },
        {
          "internalType": "uint256",
          "name": "atk1",
          "type": "uint256"
        },
        {
          "internalType": "uint256",
          "name": "atk2",
          "type": "uint256"
        },
        {
          "internalType": "uint256",
          "name": "atk3",
          "type": "uint256"
        },
        {
          "internalType": "uint256",
          "name": "hp",
          "type": "uint256"
        },
        {
          "internalType": "uint256",
          "name": "value",
          "type": "uint256"
        }
      ],
      "name": "addEirbmonToChain",
      "outputs": [],
      "payable": false,
      "stateMutability": "nonpayable",
      "type": "function"
    },
    {
      "constant": false,
      "inputs": [],
      "name": "initAccount",
      "outputs": [],
      "payable": false,
      "stateMutability": "nonpayable",
      "type": "function"
    },
    {
      "constant": true,
      "inputs": [
        {
          "internalType": "uint256[]",
          "name": "weightArray",
          "type": "uint256[]"
        },
        {
          "internalType": "uint256",
          "name": "randNameWeight",
          "type": "uint256"
        }
      ],
      "name": "getValueFromRand",
      "outputs": [
        {
          "internalType": "uint256",
          "name": "",
          "type": "uint256"
        }
      ],
      "payable": false,
      "stateMutability": "pure",
      "type": "function"
    },
    {
      "constant": true,
      "inputs": [],
      "name": "getEirbmonCount",
      "outputs": [
        {
          "internalType": "uint256",
          "name": "",
          "type": "uint256"
        }
      ],
      "payable": false,
      "stateMutability": "view",
      "type": "function"
    },
    {
      "constant": true,
      "inputs": [
        {
          "internalType": "address",
          "name": "owner",
          "type": "address"
        }
      ],
      "name": "getEirbmon",
      "outputs": [
        {
          "components": [
            {
              "internalType": "uint256",
              "name": "id",
              "type": "uint256"
            },
            {
              "internalType": "string",
              "name": "name",
              "type": "string"
            },
            {
              "internalType": "address payable",
              "name": "owner",
              "type": "address"
            },
            {
              "internalType": "uint256",
              "name": "evolve",
              "type": "uint256"
            },
            {
              "internalType": "string",
              "name": "field",
              "type": "string"
            },
            {
              "internalType": "uint256[3]",
              "name": "atk",
              "type": "uint256[3]"
            },
            {
              "internalType": "uint256",
              "name": "hp",
              "type": "uint256"
            },
            {
              "internalType": "uint256",
              "name": "canBeExhangedTo",
              "type": "uint256"
            },
            {
              "internalType": "uint256",
              "name": "price",
              "type": "uint256"
            },
            {
              "internalType": "bool",
              "name": "canBeSelled",
              "type": "bool"
            },
            {
              "internalType": "uint256",
              "name": "value",
              "type": "uint256"
            },
            {
              "internalType": "uint256",
              "name": "birthDate",
              "type": "uint256"
            }
          ],
          "internalType": "struct Eirbmon._Eirbmon[]",
          "name": "",
          "type": "tuple[]"
        }
      ],
      "payable": false,
      "stateMutability": "view",
      "type": "function"
    },
    {
      "constant": true,
      "inputs": [
        {
          "internalType": "uint256",
          "name": "_eirbmonId",
          "type": "uint256"
        }
      ],
      "name": "getAtks",
      "outputs": [
        {
          "internalType": "uint256[3]",
          "name": "",
          "type": "uint256[3]"
        }
      ],
      "payable": false,
      "stateMutability": "view",
      "type": "function"
    },
    {
      "constant": true,
      "inputs": [
        {
          "internalType": "uint256",
          "name": "_EirbmonId",
          "type": "uint256"
        }
      ],
      "name": "isExisted",
      "outputs": [
        {
          "internalType": "bool",
          "name": "",
          "type": "bool"
        }
      ],
      "payable": false,
      "stateMutability": "view",
      "type": "function"
    },
    {
      "constant": true,
      "inputs": [
        {
          "internalType": "uint256",
          "name": "_EirbmonId",
          "type": "uint256"
        }
      ],
      "name": "isOrphan",
      "outputs": [
        {
          "internalType": "bool",
          "name": "",
          "type": "bool"
        }
      ],
      "payable": false,
      "stateMutability": "view",
      "type": "function"
    },
    {
      "constant": false,
      "inputs": [
        {
          "internalType": "uint256",
          "name": "_EirbmonId",
          "type": "uint256"
        }
      ],
      "name": "catchEirbmon",
      "outputs": [
        {
          "internalType": "bytes32",
          "name": "",
          "type": "bytes32"
        }
      ],
      "payable": false,
      "stateMutability": "nonpayable",
      "type": "function"
    },
    {
      "constant": false,
      "inputs": [
        {
          "internalType": "uint256",
          "name": "myEirbmonId",
          "type": "uint256"
        },
        {
          "internalType": "uint256",
          "name": "hisEirbmonId",
          "type": "uint256"
        }
      ],
      "name": "exchangeMyEirbmonTo",
      "outputs": [],
      "payable": false,
      "stateMutability": "nonpayable",
      "type": "function"
    },
    {
      "constant": false,
      "inputs": [
        {
          "internalType": "uint256",
          "name": "eirbmonId",
          "type": "uint256"
        }
      ],
      "name": "ableSaleEirbmon",
      "outputs": [],
      "payable": false,
      "stateMutability": "nonpayable",
      "type": "function"
    },
    {
      "constant": false,
      "inputs": [
        {
          "internalType": "uint256",
          "name": "eirbmonId",
          "type": "uint256"
        }
      ],
      "name": "cancelEirbmonSelling",
      "outputs": [],
      "payable": false,
      "stateMutability": "nonpayable",
      "type": "function"
    },
    {
      "constant": false,
      "inputs": [
        {
          "internalType": "uint256",
          "name": "eirbmonId",
          "type": "uint256"
        },
        {
          "internalType": "uint256",
          "name": "price",
          "type": "uint256"
        }
      ],
      "name": "saleEirbmon",
      "outputs": [],
      "payable": false,
      "stateMutability": "nonpayable",
      "type": "function"
    },
    {
      "constant": false,
      "inputs": [
        {
          "internalType": "uint256",
          "name": "eirbmonId",
          "type": "uint256"
        }
      ],
      "name": "byEirbmon",
      "outputs": [],
      "payable": true,
      "stateMutability": "payable",
      "type": "function"
    },
    {
      "constant": true,
      "inputs": [
        {
          "internalType": "uint256",
          "name": "Id",
          "type": "uint256"
        }
      ],
      "name": "getEirbmonAge",
      "outputs": [
        {
          "internalType": "uint256",
          "name": "time",
          "type": "uint256"
        }
      ],
      "payable": false,
      "stateMutability": "view",
      "type": "function"
    },
    {
      "constant": true,
      "inputs": [
        {
          "internalType": "uint256",
          "name": "id",
          "type": "uint256"
        }
      ],
      "name": "getAtk",
      "outputs": [
        {
          "internalType": "uint256[3]",
          "name": "",
          "type": "uint256[3]"
        }
      ],
      "payable": false,
      "stateMutability": "view",
      "type": "function"
    },
    {
      "constant": true,
      "inputs": [
        {
          "internalType": "uint256",
          "name": "sumArray",
          "type": "uint256"
        },
        {
          "internalType": "string[]",
          "name": "valueArray",
          "type": "string[]"
        },
        {
          "internalType": "uint256[]",
          "name": "weightArray",
          "type": "uint256[]"
        },
        {
          "internalType": "string",
          "name": "research",
          "type": "string"
        }
      ],
      "name": "getValueFromWeight",
      "outputs": [
        {
          "internalType": "uint256",
          "name": "",
          "type": "uint256"
        }
      ],
      "payable": false,
      "stateMutability": "pure",
      "type": "function"
    },
    {
      "constant": true,
      "inputs": [
        {
          "internalType": "uint256",
          "name": "_EirbmonId",
          "type": "uint256"
        }
      ],
      "name": "getValue",
      "outputs": [
        {
          "internalType": "uint256",
          "name": "",
          "type": "uint256"
        }
      ],
      "payable": false,
      "stateMutability": "view",
      "type": "function"
    },
    {
      "constant": false,
      "inputs": [
        {
          "internalType": "uint256",
          "name": "eirbmonId",
          "type": "uint256"
        },
        {
          "internalType": "string",
          "name": "evolutionName",
          "type": "string"
        }
      ],
      "name": "evolveEirbmon",
      "outputs": [],
      "payable": false,
      "stateMutability": "nonpayable",
      "type": "function"
    }
  ],
  "bytecode": "0x6080604052604051806101400160405280600160ff168152602001600260ff168152602001600360ff168152602001600460ff168152602001600560ff168152602001600660ff168152602001600760ff168152602001600860ff168152602001600960ff168152602001600a60ff16815250600090600a6200008492919062000b78565b506040518060c001604052806040518060400160405280600381526020017f525349000000000000000000000000000000000000000000000000000000000081525081526020016040518060400160405280600381526020017f534545000000000000000000000000000000000000000000000000000000000081525081526020016040518060400160405280600481526020017f456c65630000000000000000000000000000000000000000000000000000000081525081526020016040518060400160405280600781526020017f4d61746d6563610000000000000000000000000000000000000000000000000081525081526020016040518060400160405280600481526020017f496e666f0000000000000000000000000000000000000000000000000000000081525081526020016040518060400160405280600781526020017f54656c65636f6d0000000000000000000000000000000000000000000000000081525081525060019060066200020292919062000bcf565b506040518060c00160405280600a60ff168152602001600860ff168152602001600660ff168152602001600460ff168152602001600260ff168152602001600160ff1681525060029060066200025a92919062000c36565b50601f60035560405180608001604052806040518060400160405280600781526020017f526f75636f756c0000000000000000000000000000000000000000000000000081525081526020016040518060400160405280600981526020017f53616c616d65636865000000000000000000000000000000000000000000000081525081526020016040518060400160405280600881526020017f436172617075636500000000000000000000000000000000000000000000000081525081526020016040518060400160405280600781526020017f50696b616368750000000000000000000000000000000000000000000000000081525081525060049060046200036792919062000c8d565b506040518060800160405280600a60ff168152602001600660ff168152602001600360ff168152602001600160ff168152506005906004620003ab92919062000cf4565b50601460065560006007556000600855348015620003c857600080fd5b50620004506040518060400160405280600781526020017f50696b6163687500000000000000000000000000000000000000000000000000815250336040518060400160405280600781526020017f54656c65636f6d000000000000000000000000000000000000000000000000008152506001600260036064603b620004fd60201b60201c565b620004d76040518060400160405280600781526020017f526f75636f756c00000000000000000000000000000000000000000000000000815250336040518060400160405280600481526020017f496e666f0000000000000000000000000000000000000000000000000000000081525060016002600360646026620004fd60201b60201c565b620004e7620006c460201b60201c565b620004f7620006c460201b60201c565b62000ebc565b60076000815480929190600101919050555060405180610180016040528060075481526020018981526020018873ffffffffffffffffffffffffffffffffffffffff168152602001600081526020018781526020016040518060600160405280888152602001878152602001868152508152602001838152602001600081526020016000815260200160001515815260200182815260200142815250600960006007548152602001908152602001600020600082015181600001556020820151816001019080519060200190620005d692919062000d4b565b5060408201518160020160006101000a81548173ffffffffffffffffffffffffffffffffffffffff021916908373ffffffffffffffffffffffffffffffffffffffff1602179055506060820151816003015560808201518160040190805190602001906200064692919062000d4b565b5060a0820151816005019060036200066092919062000dd2565b5060c0820151816008015560e0820151816009015561010082015181600a015561012082015181600b0160006101000a81548160ff02191690831515021790555061014082015181600c015561016082015181600d01559050505050505050505050565b6000620006f6602d62100000600143034060001c81620006e057fe5b0481620006e957fe5b0662000ac160201b60201c565b905060006200072d602d65010000000000600143034060001c816200071757fe5b04816200072057fe5b0662000ac160201b60201c565b9050600062000767602d68010000000000000000600143034060001c816200075157fe5b04816200075a57fe5b0662000ac160201b60201c565b905060006001600354700100000000000000000000000000000000600143034060001c816200079257fe5b04816200079b57fe5b060190506000620008056002805480602002602001604051908101604052809291908181526020018280548015620007f357602002820191906000526020600020905b815481526020019060010190808311620007de575b50505050508362000b1e60201b60201c565b9050600060016006547801000000000000000000000000000000000000000000000000600143034060001c816200083857fe5b04816200084157fe5b060190506000620008ab60058054806020026020016040519081016040528092919081815260200182805480156200089957602002820191906000526020600020905b81548152602001906001019080831162000884575b50505050508362000b1e60201b60201c565b90506000600a608c600143034060001c81620008c357fe5b060190506000600a60028681548110620008d957fe5b9060005260206000200154600b036003540281620008f357fe5b04600a600585815481106200090457fe5b9060005260206000200154600b0360065402816200091e57fe5b04600784816200092a57fe5b04898b8d0101010101905062000ab6600484815481106200094757fe5b906000526020600020018054600181600116156101000203166002900480601f016020809104026020016040519081016040528092919081815260200182805460018160011615610100020316600290048015620009e95780601f10620009bd57610100808354040283529160200191620009e9565b820191906000526020600020905b815481529060010190602001808311620009cb57829003601f168201915b5050505050600060018881548110620009fe57fe5b906000526020600020018054600181600116156101000203166002900480601f01602080910402602001604051908101604052809291908181526020018280546001816001161561010002031660029004801562000aa05780601f1062000a745761010080835404028352916020019162000aa0565b820191906000526020600020905b81548152906001019060200180831162000a8257829003601f168201915b50505050508c8c8c8888620004fd60201b60201c565b505050505050505050565b6000806000905060008090505b602d81101562000b16576000818154811062000ae657fe5b90600052602060002001548201915081841162000b0857809250505062000b19565b808060010191505062000ace565b50505b919050565b6000806000905060008090505b845181101562000b6f5784818151811062000b4257fe5b60200260200101518201915081841162000b6157809250505062000b72565b808060010191505062000b2b565b50505b92915050565b82805482825590600052602060002090810192821562000bbc579160200282015b8281111562000bbb578251829060ff1690559160200191906001019062000b99565b5b50905062000bcb919062000e17565b5090565b82805482825590600052602060002090810192821562000c23579160200282015b8281111562000c2257825182908051906020019062000c1192919062000d4b565b509160200191906001019062000bf0565b5b50905062000c32919062000e3f565b5090565b82805482825590600052602060002090810192821562000c7a579160200282015b8281111562000c79578251829060ff1690559160200191906001019062000c57565b5b50905062000c89919062000e17565b5090565b82805482825590600052602060002090810192821562000ce1579160200282015b8281111562000ce057825182908051906020019062000ccf92919062000d4b565b509160200191906001019062000cae565b5b50905062000cf0919062000e3f565b5090565b82805482825590600052602060002090810192821562000d38579160200282015b8281111562000d37578251829060ff1690559160200191906001019062000d15565b5b50905062000d47919062000e17565b5090565b828054600181600116156101000203166002900490600052602060002090601f016020900481019282601f1062000d8e57805160ff191683800117855562000dbf565b8280016001018555821562000dbf579182015b8281111562000dbe57825182559160200191906001019062000da1565b5b50905062000dce919062000e17565b5090565b826003810192821562000e04579160200282015b8281111562000e0357825182559160200191906001019062000de6565b5b50905062000e13919062000e17565b5090565b62000e3c91905b8082111562000e3857600081600090555060010162000e1e565b5090565b90565b62000e6d91905b8082111562000e69576000818162000e5f919062000e70565b5060010162000e46565b5090565b90565b50805460018160011615610100020316600290046000825580601f1062000e98575062000eb9565b601f01602090049060005260206000209081019062000eb8919062000e17565b5b50565b6139768062000ecc6000396000f3fe60806040526004361061013f5760003560e01c806380aa3ee6116100b6578063c80f760c1161006f578063c80f760c14610494578063cbb3abd1146104bf578063d4a1471214610506578063e1ba8bba1461052f578063edcacf381461056c578063fff39a51146105a95761013f565b806380aa3ee61461036f578063819308a7146103ac578063853a5c54146103e95780638a939e6a14610426578063976d56c714610442578063c54160bc1461046b5761013f565b8063210ff9bb11610108578063210ff9bb1461024d5780632f5c098b14610278578063407a1b90146102a15780634ec1ce21146102de57806354835809146102f55780635c824d7a146103325761013f565b80621931d0146101445780630abc5de5146101815780630ff4c916146101aa5780631f9e2723146101e7578063203f075314610210575b600080fd5b34801561015057600080fd5b5061016b60048036036101669190810190612aaf565b6105d4565b6040516101789190613405565b60405180910390f35b34801561018d57600080fd5b506101a860048036036101a39190810190612d36565b610944565b005b3480156101b657600080fd5b506101d160048036036101cc9190810190612c0e565b610976565b6040516101de91906135b8565b60405180910390f35b3480156101f357600080fd5b5061020e60048036036102099190810190612ce2565b610e06565b005b34801561021c57600080fd5b5061023760048036036102329190810190612c0e565b6110cf565b60405161024491906135b8565b60405180910390f35b34801561025957600080fd5b506102626110f1565b60405161026f91906135b8565b60405180910390f35b34801561028457600080fd5b5061029f600480360361029a9190810190612c0e565b6110f7565b005b3480156102ad57600080fd5b506102c860048036036102c39190810190612c0e565b611278565b6040516102d59190613427565b60405180910390f35b3480156102ea57600080fd5b506102f36112d9565b005b34801561030157600080fd5b5061031c60048036036103179190810190612c37565b611411565b60405161032991906135b8565b60405180910390f35b34801561033e57600080fd5b5061035960048036036103549190810190612aaf565b6114cb565b6040516103669190613442565b60405180910390f35b34801561037b57600080fd5b5061039660048036036103919190810190612c0e565b6114eb565b6040516103a39190613442565b60405180910390f35b3480156103b857600080fd5b506103d360048036036103ce9190810190612c0e565b611559565b6040516103e0919061345d565b60405180910390f35b3480156103f557600080fd5b50610410600480360361040b9190810190612ad8565b611637565b60405161041d91906135b8565b60405180910390f35b610440600480360361043b9190810190612c0e565b61168c565b005b34801561044e57600080fd5b5061046960048036036104649190810190612c0e565b6119f2565b005b34801561047757600080fd5b50610492600480360361048d9190810190612b2c565b611b4b565b005b3480156104a057600080fd5b506104a9611d0c565b6040516104b691906135b8565b60405180910390f35b3480156104cb57600080fd5b506104e660048036036104e19190810190612c0e565b611d12565b6040516104fd9b9a999897969594939291906135d3565b60405180910390f35b34801561051257600080fd5b5061052d60048036036105289190810190612d36565b611ec9565b005b34801561053b57600080fd5b5061055660048036036105519190810190612c0e565b6120ab565b6040516105639190613442565b60405180910390f35b34801561057857600080fd5b50610593600480360361058e9190810190612c0e565b6120ba565b6040516105a09190613427565b60405180910390f35b3480156105b557600080fd5b506105be61211b565b6040516105cb91906135b8565b60405180910390f35b6060600a60008373ffffffffffffffffffffffffffffffffffffffff1673ffffffffffffffffffffffffffffffffffffffff16815260200190815260200160002060009054906101000a900460ff1661062c57600080fd5b6060600080905060008090505b600754811015610939578473ffffffffffffffffffffffffffffffffffffffff166009600083815260200190815260200160002060020160009054906101000a900473ffffffffffffffffffffffffffffffffffffffff1673ffffffffffffffffffffffffffffffffffffffff16141561092c57600960008281526020019081526020016000206040518061018001604052908160008201548152602001600182018054600181600116156101000203166002900480601f01602080910402602001604051908101604052809291908181526020018280546001816001161561010002031660029004801561076f5780601f106107445761010080835404028352916020019161076f565b820191906000526020600020905b81548152906001019060200180831161075257829003601f168201915b505050505081526020016002820160009054906101000a900473ffffffffffffffffffffffffffffffffffffffff1673ffffffffffffffffffffffffffffffffffffffff1673ffffffffffffffffffffffffffffffffffffffff16815260200160038201548152602001600482018054600181600116156101000203166002900480601f0160208091040260200160405190810160405280929190818152602001828054600181600116156101000203166002900480156108715780601f1061084657610100808354040283529160200191610871565b820191906000526020600020905b81548152906001019060200180831161085457829003601f168201915b50505050508152602001600582016003806020026040519081016040528092919082600380156108b6576020028201915b8154815260200190600101908083116108a2575b505050505081526020016008820154815260200160098201548152602001600a8201548152602001600b820160009054906101000a900460ff16151515158152602001600c8201548152602001600d8201548152505083838151811061091857fe5b602002602001018190525081806001019250505b8080600101915050610639565b508192505050919050565b61094d826119f2565b80670de0b6b3a76400000260096000848152602001908152602001600020600a01819055505050565b6000600760096000848152602001908152602001600020600801548161099857fe5b04610b866003546001805480602002602001604051908101604052809291908181526020016000905b82821015610a7d578382906000526020600020018054600181600116156101000203166002900480601f016020809104026020016040519081016040528092919081815260200182805460018160011615610100020316600290048015610a695780601f10610a3e57610100808354040283529160200191610a69565b820191906000526020600020905b815481529060010190602001808311610a4c57829003601f168201915b5050505050815260200190600101906109c1565b505050506002805480602002602001604051908101604052809291908181526020018280548015610acd57602002820191906000526020600020905b815481526020019060010190808311610ab9575b5050505050600960008881526020019081526020016000206004018054600181600116156101000203166002900480601f016020809104026020016040519081016040528092919081815260200182805460018160011615610100020316600290048015610b7c5780601f10610b5157610100808354040283529160200191610b7c565b820191906000526020600020905b815481529060010190602001808311610b5f57829003601f168201915b5050505050611411565b610d736006546004805480602002602001604051908101604052809291908181526020016000905b82821015610c6a578382906000526020600020018054600181600116156101000203166002900480601f016020809104026020016040519081016040528092919081815260200182805460018160011615610100020316600290048015610c565780601f10610c2b57610100808354040283529160200191610c56565b820191906000526020600020905b815481529060010190602001808311610c3957829003601f168201915b505050505081526020019060010190610bae565b505050506005805480602002602001604051908101604052809291908181526020018280548015610cba57602002820191906000526020600020905b815481526020019060010190808311610ca6575b5050505050600960008981526020019081526020016000206001018054600181600116156101000203166002900480601f016020809104026020016040519081016040528092919081815260200182805460018160011615610100020316600290048015610d695780601f10610d3e57610100808354040283529160200191610d69565b820191906000526020600020905b815481529060010190602001808311610d4c57829003601f168201915b5050505050611411565b60096000868152602001908152602001600020600501600260038110610d9557fe5b015460096000878152602001908152602001600020600501600160038110610db957fe5b015460096000888152602001908152602001600020600501600060038110610ddd57fe5b01546002600960008a815260200190815260200160002060030154020101010101019050919050565b3373ffffffffffffffffffffffffffffffffffffffff166009600084815260200190815260200160002060020160009054906101000a900473ffffffffffffffffffffffffffffffffffffffff1673ffffffffffffffffffffffffffffffffffffffff1614610eaa576040517f08c379a0000000000000000000000000000000000000000000000000000000008152600401610ea190613498565b60405180910390fd5b80600960008481526020019081526020016000206001019080519060200190610ed492919061274a565b5060016009600084815260200190815260200160002060030154016009600084815260200190815260200160002060030181905550610f3a600260096000858152602001908152602001600020600501600160038110610f3057fe5b0154016009612125565b60096000848152602001908152602001600020600501600160038110610f5c57fe5b0181905550610f92600260096000858152602001908152602001600020600501600260038110610f8857fe5b0154016009612125565b60096000848152602001908152602001600020600501600260038110610fb457fe5b0181905550610fea600260096000858152602001908152602001600020600501600060038110610fe057fe5b0154016009612125565b6009600084815260200190815260200160002060050160006003811061100c57fe5b01819055506028600960008481526020019081526020016000206003015402600960008481526020019081526020016000206008015401600960008481526020019081526020016000206008018190555060006009600084815260200190815260200160002060090181905550600060096000848152602001908152602001600020600b0160006101000a81548160ff0219169083151502179055506110b182610976565b60096000848152602001908152602001600020600c01819055505050565b600060096000838152602001908152602001600020600d015442039050919050565b60085481565b611100816120ab565b61113f576040517f08c379a000000000000000000000000000000000000000000000000000000000815260040161113690613538565b60405180910390fd5b6009600082815260200190815260200160002060020160009054906101000a900473ffffffffffffffffffffffffffffffffffffffff1673ffffffffffffffffffffffffffffffffffffffff163373ffffffffffffffffffffffffffffffffffffffff16146111e3576040517f08c379a00000000000000000000000000000000000000000000000000000000081526004016111da90613578565b60405180910390fd5b60096000828152602001908152602001600020600b0160009054906101000a900460ff16611246576040517f08c379a000000000000000000000000000000000000000000000000000000000815260040161123d90613518565b60405180910390fd5b600060096000838152602001908152602001600020600b0160006101000a81548160ff02191690831515021790555050565b6112806127ca565b600960008381526020019081526020016000206005016003806020026040519081016040528092919082600380156112cd576020028201915b8154815260200190600101908083116112b9575b50505050509050919050565b600a60003373ffffffffffffffffffffffffffffffffffffffff1673ffffffffffffffffffffffffffffffffffffffff16815260200190815260200160002060009054906101000a900460ff161561133057600080fd5b6001600a60003373ffffffffffffffffffffffffffffffffffffffff1673ffffffffffffffffffffffffffffffffffffffff16815260200190815260200160002060006101000a81548160ff0219169083151502179055506114076040518060400160405280600781526020017f526f75636f756c00000000000000000000000000000000000000000000000000815250336040518060400160405280600381526020017f525349000000000000000000000000000000000000000000000000000000000081525060016002600360286004611b4b565b61140f61213e565b565b600080600090505b84518110156114c1578260405160200161143391906133ee565b6040516020818303038152906040528051906020012085828151811061145557fe5b602002602001015160405160200161146d91906133d7565b6040516020818303038152906040528051906020012014156114b457600a84828151811061149757fe5b6020026020010151600b038702816114ab57fe5b049150506114c3565b8080600101915050611419565b505b949350505050565b600a6020528060005260406000206000915054906101000a900460ff1681565b60008073ffffffffffffffffffffffffffffffffffffffff166009600084815260200190815260200160002060020160009054906101000a900473ffffffffffffffffffffffffffffffffffffffff1673ffffffffffffffffffffffffffffffffffffffff16149050919050565b6000611564826120ab565b6115a3576040517f08c379a000000000000000000000000000000000000000000000000000000000815260040161159a90613538565b60405180910390fd5b6115ac826114eb565b6115eb576040517f08c379a00000000000000000000000000000000000000000000000000000000081526004016115e290613478565b60405180910390fd5b6115f361213e565b6115fd33836124ed565b7f01929b1546ac5c8cbd09f19de437245776c852d26202ac70ef8ede5dbb2e29b360405161162a906134f8565b60405180910390a1919050565b6000806000905060008090505b84518110156116835784818151811061165957fe5b602002602001015182019150818411611676578092505050611686565b8080600101915050611644565b50505b92915050565b60096000828152602001908152602001600020600b0160009054906101000a900460ff166116ef576040517f08c379a00000000000000000000000000000000000000000000000000000000081526004016116e6906134b8565b60405180910390fd5b3373ffffffffffffffffffffffffffffffffffffffff166009600083815260200190815260200160002060020160009054906101000a900473ffffffffffffffffffffffffffffffffffffffff1673ffffffffffffffffffffffffffffffffffffffff161415611794576040517f08c379a000000000000000000000000000000000000000000000000000000000815260040161178b90613598565b60405180910390fd5b3460096000838152602001908152602001600020600a015411156117ed576040517f08c379a00000000000000000000000000000000000000000000000000000000081526004016117e4906134b8565b60405180910390fd5b600a60003373ffffffffffffffffffffffffffffffffffffffff1673ffffffffffffffffffffffffffffffffffffffff16815260200190815260200160002060009054906101000a900460ff16611879576040517f08c379a0000000000000000000000000000000000000000000000000000000008152600401611870906134d8565b60405180910390fd5b6009600082815260200190815260200160002060020160009054906101000a900473ffffffffffffffffffffffffffffffffffffffff1673ffffffffffffffffffffffffffffffffffffffff166108fc60096000848152602001908152602001600020600a01549081150290604051600060405180830381858888f1935050505015801561190b573d6000803e3d6000fd5b503373ffffffffffffffffffffffffffffffffffffffff166108fc60096000848152602001908152602001600020600a015434039081150290604051600060405180830381858888f1935050505015801561196a573d6000803e3d6000fd5b50336009600083815260200190815260200160002060020160006101000a81548173ffffffffffffffffffffffffffffffffffffffff021916908373ffffffffffffffffffffffffffffffffffffffff160217905550600060096000838152602001908152602001600020600b0160006101000a81548160ff02191690831515021790555050565b6119fb816120ab565b611a3a576040517f08c379a0000000000000000000000000000000000000000000000000000000008152600401611a3190613538565b60405180910390fd5b6009600082815260200190815260200160002060020160009054906101000a900473ffffffffffffffffffffffffffffffffffffffff1673ffffffffffffffffffffffffffffffffffffffff163373ffffffffffffffffffffffffffffffffffffffff1614611ade576040517f08c379a0000000000000000000000000000000000000000000000000000000008152600401611ad590613578565b60405180910390fd5b600160096000838152602001908152602001600020600b0160006101000a81548160ff02191690831515021790555060096000828152602001908152602001600020600c0154670de0b6b3a76400000260096000838152602001908152602001600020600a018190555050565b60076000815480929190600101919050555060405180610180016040528060075481526020018981526020018873ffffffffffffffffffffffffffffffffffffffff168152602001600081526020018781526020016040518060600160405280888152602001878152602001868152508152602001838152602001600081526020016000815260200160001515815260200182815260200142815250600960006007548152602001908152602001600020600082015181600001556020820151816001019080519060200190611c229291906127ec565b5060408201518160020160006101000a81548173ffffffffffffffffffffffffffffffffffffffff021916908373ffffffffffffffffffffffffffffffffffffffff160217905550606082015181600301556080820151816004019080519060200190611c909291906127ec565b5060a082015181600501906003611ca892919061286c565b5060c0820151816008015560e0820151816009015561010082015181600a015561012082015181600b0160006101000a81548160ff02191690831515021790555061014082015181600c015561016082015181600d01559050505050505050505050565b60075481565b6009602052806000526040600020600091509050806000015490806001018054600181600116156101000203166002900480601f016020809104026020016040519081016040528092919081815260200182805460018160011615610100020316600290048015611dc45780601f10611d9957610100808354040283529160200191611dc4565b820191906000526020600020905b815481529060010190602001808311611da757829003601f168201915b5050505050908060020160009054906101000a900473ffffffffffffffffffffffffffffffffffffffff1690806003015490806004018054600181600116156101000203166002900480601f016020809104026020016040519081016040528092919081815260200182805460018160011615610100020316600290048015611e8e5780601f10611e6357610100808354040283529160200191611e8e565b820191906000526020600020905b815481529060010190602001808311611e7157829003601f168201915b50505050509080600801549080600901549080600a01549080600b0160009054906101000a900460ff169080600c01549080600d015490508b565b600a60003373ffffffffffffffffffffffffffffffffffffffff1673ffffffffffffffffffffffffffffffffffffffff16815260200190815260200160002060009054906101000a900460ff16611f55576040517f08c379a0000000000000000000000000000000000000000000000000000000008152600401611f4c906134d8565b60405180910390fd5b6009600083815260200190815260200160002060020160009054906101000a900473ffffffffffffffffffffffffffffffffffffffff1673ffffffffffffffffffffffffffffffffffffffff163373ffffffffffffffffffffffffffffffffffffffff1614611ff9576040517f08c379a0000000000000000000000000000000000000000000000000000000008152600401611ff090613578565b60405180910390fd5b612002816114eb565b15612042576040517f08c379a000000000000000000000000000000000000000000000000000000000815260040161203990613558565b60405180910390fd5b816009600083815260200190815260200160002060090154141561208b576000600960008381526020019081526020016000206009018190555061208682826125d2565b6120a7565b8060096000848152602001908152602001600020600901819055505b5050565b60006007548211159050919050565b6120c26127ca565b6009600083815260200190815260200160002060050160038060200260405190810160405280929190826003801561210f576020028201915b8154815260200190600101908083116120fb575b50505050509050919050565b6000600754905090565b60008183106121345781612136565b825b905092915050565b6000612166602d62100000600143034060001c8161215857fe5b048161216057fe5b066126f2565b90506000612193602d65010000000000600143034060001c8161218557fe5b048161218d57fe5b066126f2565b905060006121c3602d68010000000000000000600143034060001c816121b557fe5b04816121bd57fe5b066126f2565b905060006001600354700100000000000000000000000000000000600143034060001c816121ed57fe5b04816121f557fe5b060190506000612255600280548060200260200160405190810160405280929190818152602001828054801561224a57602002820191906000526020600020905b815481526020019060010190808311612236575b505050505083611637565b9050600060016006547801000000000000000000000000000000000000000000000000600143034060001c8161228757fe5b048161228f57fe5b0601905060006122ef60058054806020026020016040519081016040528092919081815260200182805480156122e457602002820191906000526020600020905b8154815260200190600101908083116122d0575b505050505083611637565b90506000600a608c600143034060001c8161230657fe5b060190506000600a6002868154811061231b57fe5b9060005260206000200154600b03600354028161233457fe5b04600a6005858154811061234457fe5b9060005260206000200154600b03600654028161235d57fe5b046007848161236857fe5b04898b8d010101010190506124e26004848154811061238357fe5b906000526020600020018054600181600116156101000203166002900480601f0160208091040260200160405190810160405280929190818152602001828054600181600116156101000203166002900480156124215780601f106123f657610100808354040283529160200191612421565b820191906000526020600020905b81548152906001019060200180831161240457829003601f168201915b505050505060006001888154811061243557fe5b906000526020600020018054600181600116156101000203166002900480601f0160208091040260200160405190810160405280929190818152602001828054600181600116156101000203166002900480156124d35780601f106124a8576101008083540402835291602001916124d3565b820191906000526020600020905b8154815290600101906020018083116124b657829003601f168201915b50505050508c8c8c8888611b4b565b505050505050505050565b600a60008373ffffffffffffffffffffffffffffffffffffffff1673ffffffffffffffffffffffffffffffffffffffff16815260200190815260200160002060009054906101000a900460ff16612579576040517f08c379a0000000000000000000000000000000000000000000000000000000008152600401612570906134d8565b60405180910390fd5b816009600083815260200190815260200160002060020160006101000a81548173ffffffffffffffffffffffffffffffffffffffff021916908373ffffffffffffffffffffffffffffffffffffffff1602179055505050565b60006009600084815260200190815260200160002060020160009054906101000a900473ffffffffffffffffffffffffffffffffffffffff1690506009600083815260200190815260200160002060020160009054906101000a900473ffffffffffffffffffffffffffffffffffffffff166009600085815260200190815260200160002060020160006101000a81548173ffffffffffffffffffffffffffffffffffffffff021916908373ffffffffffffffffffffffffffffffffffffffff160217905550806009600084815260200190815260200160002060020160006101000a81548173ffffffffffffffffffffffffffffffffffffffff021916908373ffffffffffffffffffffffffffffffffffffffff160217905550505050565b6000806000905060008090505b602d811015612742576000818154811061271557fe5b906000526020600020015482019150818411612735578092505050612745565b80806001019150506126ff565b50505b919050565b828054600181600116156101000203166002900490600052602060002090601f016020900481019282601f1061278b57805160ff19168380011785556127b9565b828001600101855582156127b9579182015b828111156127b857825182559160200191906001019061279d565b5b5090506127c691906128ac565b5090565b6040518060600160405280600390602082028038833980820191505090505090565b828054600181600116156101000203166002900490600052602060002090601f016020900481019282601f1061282d57805160ff191683800117855561285b565b8280016001018555821561285b579182015b8281111561285a57825182559160200191906001019061283f565b5b50905061286891906128ac565b5090565b826003810192821561289b579160200282015b8281111561289a57825182559160200191906001019061287f565b5b5090506128a891906128ac565b5090565b6128ce91905b808211156128ca5760008160009055506001016128b2565b5090565b90565b6000813590506128e0816138ee565b92915050565b6000813590506128f581613905565b92915050565b600082601f83011261290c57600080fd5b813561291f61291a826136b9565b61368c565b9150818183526020840193506020810190508360005b83811015612965578135860161294b88826129f2565b845260208401935060208301925050600181019050612935565b5050505092915050565b600082601f83011261298057600080fd5b813561299361298e826136e1565b61368c565b915081818352602084019350602081019050838560208402820111156129b857600080fd5b60005b838110156129e857816129ce8882612a9a565b8452602084019350602083019250506001810190506129bb565b5050505092915050565b600082601f830112612a0357600080fd5b8135612a16612a1182613709565b61368c565b91508082526020830160208301858383011115612a3257600080fd5b612a3d83828461389b565b50505092915050565b600082601f830112612a5757600080fd5b8135612a6a612a6582613735565b61368c565b91508082526020830160208301858383011115612a8657600080fd5b612a9183828461389b565b50505092915050565b600081359050612aa98161391c565b92915050565b600060208284031215612ac157600080fd5b6000612acf848285016128d1565b91505092915050565b60008060408385031215612aeb57600080fd5b600083013567ffffffffffffffff811115612b0557600080fd5b612b118582860161296f565b9250506020612b2285828601612a9a565b9150509250929050565b600080600080600080600080610100898b031215612b4957600080fd5b600089013567ffffffffffffffff811115612b6357600080fd5b612b6f8b828c01612a46565b9850506020612b808b828c016128e6565b975050604089013567ffffffffffffffff811115612b9d57600080fd5b612ba98b828c01612a46565b9650506060612bba8b828c01612a9a565b9550506080612bcb8b828c01612a9a565b94505060a0612bdc8b828c01612a9a565b93505060c0612bed8b828c01612a9a565b92505060e0612bfe8b828c01612a9a565b9150509295985092959890939650565b600060208284031215612c2057600080fd5b6000612c2e84828501612a9a565b91505092915050565b60008060008060808587031215612c4d57600080fd5b6000612c5b87828801612a9a565b945050602085013567ffffffffffffffff811115612c7857600080fd5b612c84878288016128fb565b935050604085013567ffffffffffffffff811115612ca157600080fd5b612cad8782880161296f565b925050606085013567ffffffffffffffff811115612cca57600080fd5b612cd687828801612a46565b91505092959194509250565b60008060408385031215612cf557600080fd5b6000612d0385828601612a9a565b925050602083013567ffffffffffffffff811115612d2057600080fd5b612d2c85828601612a46565b9150509250929050565b60008060408385031215612d4957600080fd5b6000612d5785828601612a9a565b9250506020612d6885828601612a9a565b9150509250929050565b6000612d7e83836132ac565b905092915050565b6000612d9283836133b9565b60208301905092915050565b612da781613849565b82525050565b612db681613849565b82525050565b6000612dc782613785565b612dd181856137e3565b935083602082028501612de385613761565b8060005b85811015612e1f5784840389528151612e008582612d72565b9450612e0b836137bc565b925060208a01995050600181019050612de7565b50829750879550505050505092915050565b612e3a8161379b565b612e4481846137ff565b9250612e4f8261377b565b8060005b83811015612e80578151612e678782612d86565b9650612e72836137d6565b925050600181019050612e53565b505050505050565b612e9181613790565b612e9b81846137f4565b9250612ea682613771565b8060005b83811015612ed7578151612ebe8782612d86565b9650612ec9836137c9565b925050600181019050612eaa565b505050505050565b612ee88161385b565b82525050565b612ef78161385b565b82525050565b612f0681613867565b82525050565b6000612f17826137b1565b612f21818561382c565b9350612f318185602086016138aa565b80840191505092915050565b6000612f48826137a6565b612f52818561380a565b9350612f628185602086016138aa565b612f6b816138dd565b840191505092915050565b6000612f81826137a6565b612f8b818561381b565b9350612f9b8185602086016138aa565b612fa4816138dd565b840191505092915050565b6000612fba826137a6565b612fc4818561382c565b9350612fd48185602086016138aa565b80840191505092915050565b6000612fed601e8361381b565b91507f74686520656972626d6f6e20796f752077616e74206973206f727068616e00006000830152602082019050919050565b600061302d60188361381b565b91507f54686520456972626d6f6e206973206e6f7420796f75727300000000000000006000830152602082019050919050565b600061306d601c8361381b565b91507f7468697320656972626d6f6e2063616e27742062652073656c6c6564000000006000830152602082019050919050565b60006130ad60158361381b565b91507f53656e64657220646f6573206e6f7420657869737400000000000000000000006000830152602082019050919050565b60006130ed60078361381b565b91507f63617463686564000000000000000000000000000000000000000000000000006000830152602082019050919050565b600061312d60218361381b565b91507f74686520656972626d6f6e206973206e6f74206f6e2073656c6c696e6720796560008301527f74000000000000000000000000000000000000000000000000000000000000006020830152604082019050919050565b600061319360168361381b565b91507f656972626d6f6e20646f6573206e6f74206578697374000000000000000000006000830152602082019050919050565b60006131d3602a8361381b565b91507f74686520656972626d6f6e20796f752077616e7420746f2065786368616e676560008301527f206973206f727068616e000000000000000000000000000000000000000000006020830152604082019050919050565b600061323960178361381b565b91507f53656e646572206973206e6f7420746865206f776e65720000000000000000006000830152602082019050919050565b6000613279601a8361381b565b91507f596f752063616e27742062796520796f757220456972626d6f6e0000000000006000830152602082019050919050565b60006101c0830160008301516132c560008601826133b9565b50602083015184820360208601526132dd8282612f3d565b91505060408301516132f26040860182612d9e565b50606083015161330560608601826133b9565b506080830151848203608086015261331d8282612f3d565b91505060a083015161333260a0860182612e88565b5060c08301516133466101008601826133b9565b5060e083015161335a6101208601826133b9565b5061010083015161336f6101408601826133b9565b50610120830151613384610160860182612edf565b506101408301516133996101808601826133b9565b506101608301516133ae6101a08601826133b9565b508091505092915050565b6133c281613891565b82525050565b6133d181613891565b82525050565b60006133e38284612faf565b915081905092915050565b60006133fa8284612f0c565b915081905092915050565b6000602082019050818103600083015261341f8184612dbc565b905092915050565b600060608201905061343c6000830184612e31565b92915050565b60006020820190506134576000830184612eee565b92915050565b60006020820190506134726000830184612efd565b92915050565b6000602082019050818103600083015261349181612fe0565b9050919050565b600060208201905081810360008301526134b181613020565b9050919050565b600060208201905081810360008301526134d181613060565b9050919050565b600060208201905081810360008301526134f1816130a0565b9050919050565b60006020820190508181036000830152613511816130e0565b9050919050565b6000602082019050818103600083015261353181613120565b9050919050565b6000602082019050818103600083015261355181613186565b9050919050565b60006020820190508181036000830152613571816131c6565b9050919050565b600060208201905081810360008301526135918161322c565b9050919050565b600060208201905081810360008301526135b18161326c565b9050919050565b60006020820190506135cd60008301846133c8565b92915050565b6000610160820190506135e9600083018e6133c8565b81810360208301526135fb818d612f76565b905061360a604083018c612dad565b613617606083018b6133c8565b8181036080830152613629818a612f76565b905061363860a08301896133c8565b61364560c08301886133c8565b61365260e08301876133c8565b613660610100830186612eee565b61366e6101208301856133c8565b61367c6101408301846133c8565b9c9b505050505050505050505050565b6000604051905081810181811067ffffffffffffffff821117156136af57600080fd5b8060405250919050565b600067ffffffffffffffff8211156136d057600080fd5b602082029050602081019050919050565b600067ffffffffffffffff8211156136f857600080fd5b602082029050602081019050919050565b600067ffffffffffffffff82111561372057600080fd5b601f19601f8301169050602081019050919050565b600067ffffffffffffffff82111561374c57600080fd5b601f19601f8301169050602081019050919050565b6000819050602082019050919050565b6000819050919050565b6000819050919050565b600081519050919050565b600060039050919050565b600060039050919050565b600081519050919050565b600081519050919050565b6000602082019050919050565b6000602082019050919050565b6000602082019050919050565b600082825260208201905092915050565b600081905092915050565b600081905092915050565b600082825260208201905092915050565b600082825260208201905092915050565b600081905092915050565b600061384282613871565b9050919050565b600061385482613871565b9050919050565b60008115159050919050565b6000819050919050565b600073ffffffffffffffffffffffffffffffffffffffff82169050919050565b6000819050919050565b82818337600083830152505050565b60005b838110156138c85780820151818401526020810190506138ad565b838111156138d7576000848401525b50505050565b6000601f19601f8301169050919050565b6138f781613837565b811461390257600080fd5b50565b61390e81613849565b811461391957600080fd5b50565b61392581613891565b811461393057600080fd5b5056fea365627a7a72315820a0f6d255c7b5ea78dd7b4ae3a09ee02dd9b9959e2574de51828bb6fb0e717ff56c6578706572696d656e74616cf564736f6c634300050c0040",
  "source": "pragma solidity ^0.5.8;\npragma experimental ABIEncoderV2;\n\n\ncontract Eirbmon{\n\n    struct _Eirbmon {\n        uint id;\n        string name;\n        address payable owner;\n        uint evolve;\n        string field;\n        uint[3] atk;\n        uint hp;\n        uint canBeExhangedTo;\n        uint price;\n        bool canBeSelled;\n        uint value;\n        uint256 birthDate;\n    }\n    event SendEvent(string message);\n \n\n    uint[] private allAtkWeight = [0x1,0x2,0x3,0x4,0x5,0x6,0x7,0x8,0x9,0xa]; // poids entre 1 et 10 avec 1=> trs rare\n\n    string[] private allField = [\"RSI\",\"SEE\",\"Elec\",\"Matmeca\",\"Info\",\"Telecom\"];\n    uint[] private allFieldWeight = [0xa,0x8,0x6,0x4,0x2,0x1]; // poids entre 1 et 10 avec 1=> trs rare\n    uint sumFieldWeight = 31;\n\n    string[] private allName = [\"Roucoul\",\"Salameche\",\"Carapuce\",\"Pikachu\"];\n    uint[] private allNameWeight = [0xa,0x6,0x3,0x1]; // poids entre 1 et 10 avec 1=> trs rare\n    uint sumNameWeight = 20;\n\n    uint public eirbmonsCount = 0;\n    uint public registeredCount = 0;\n\n\n    mapping(uint => _Eirbmon) public _Eirbmons;\n    mapping(address => bool) public _registeredAccounts;\n\n    constructor () public {\n        addEirbmonToChain(\"Pikachu\",msg.sender,\"Telecom\",1,2,3,100,19+30+10);\n        addEirbmonToChain(\"Roucoul\",msg.sender,\"Info\",1,2,3,100,0+28+10);\n        generateAnNewEirbmon();\n        generateAnNewEirbmon();\n    }\n\n    // ajoute un Eirbmon  la chaine\n    function  addEirbmonToChain(string memory name,address payable owner, string memory field, uint atk1, uint atk2, uint atk3, uint hp,uint value) public {\n        eirbmonsCount++;\n        _Eirbmons[eirbmonsCount] = _Eirbmon(eirbmonsCount,name,owner,0,field,[atk1,atk2,atk3],hp,0,0,false,value,now);\n   }\n \n    function initAccount() public {\n        require(!_registeredAccounts[msg.sender]);\n        _registeredAccounts[msg.sender] = true;\n        addEirbmonToChain(\"Roucoul\",msg.sender,\"RSI\",1,2,3,40,0+0+4);\n         generateAnNewEirbmon();\n    }\n\n    \n    // gnre un nouvel Eirbmon random\n    function generateAnNewEirbmon() private {\n        // gnre un nombre entre 1 et la somme des poids  partir des 44 premiers nombres hex du hash\n        // uint randAtkWeight = uint(uint(blockhash(block.number-1))/((0xf+1)**16))%sumArray(allAtkWeight)+1;\n        // string memory selectedAtk = getValueFromRand(allAtk,allAtkWeight,randAtkWeight);\n\n        uint atk1 = chooseAtk(uint(uint(blockhash(block.number-1))/((0xf+1)**5))%0x2D);\n        uint atk2 = chooseAtk(uint(uint(blockhash(block.number-1))/((0xf+1)**10))%0x2D);\n        uint atk3 = chooseAtk(uint(uint(blockhash(block.number-1))/((0xf+1)**16))%0x2D);\n\n        uint randFieldWeight = uint(uint(blockhash(block.number-1))/((0xf+1)**32))%sumFieldWeight+1;\n        uint selectedField = getValueFromRand(allFieldWeight,randFieldWeight);\n\n\n        uint randNameWeight = uint(uint(blockhash(block.number-1))/((0xf+1)**48))%sumNameWeight+1;\n        uint selectedName = getValueFromRand(allNameWeight,randNameWeight);\n\n        uint randHp = uint(uint(blockhash(block.number-1))%0x8C + 10);\n\n\n        uint value = atk1 + atk2 + atk3 + randHp/7 + sumNameWeight*(11-allNameWeight[selectedName])/10 + sumFieldWeight*(11-allFieldWeight[selectedField])/10;\n\n        addEirbmonToChain(allName[selectedName],0x0000000000000000000000000000000000000000,allField[selectedField],atk1,atk2,atk3,randHp,value);\n    }\n\n    function chooseAtk(uint randNumber) private returns (uint){\n            uint sum = 0x0;\n            for(uint i = 0;i < 45;i++){\n                sum += allAtkWeight[i];\n                if(randNumber <= sum){\n                    return i;\n                }\n            }\n        }\n\n    // renvoie la valeur associ au nombre random pass en arguments en prenant en compte les poids de chaque valeur \n    function getValueFromRand(uint[] memory weightArray,uint randNameWeight) public pure returns(uint) {\n        uint sum = 0x0;\n        for(uint i = 0;i < weightArray.length;i++){\n            sum += weightArray[i];\n            if(randNameWeight <= sum){\n                return i;\n            }\n        }\n    }\n\n\n    // renvoie le nombre d'Eirbmon total\n    function getEirbmonCount() public view returns(uint)  {\n        return eirbmonsCount;\n    }\n\n    // renvoie les Eirbmons d'un compte\n    //attention  ne pas utiliser cet appel dans les fonctions de type write.\n    function getEirbmon(address owner) public view returns(_Eirbmon[] memory )  {\n            require(_registeredAccounts[owner]);\n            _Eirbmon[] memory ownerEirbmons;\n            uint j = 0;\n            for(uint i = 0; i < eirbmonsCount; i++){\n               if(_Eirbmons[i].owner == owner){\n                   ownerEirbmons[j] = _Eirbmons[i];\n                   j++;\n               }\n            }\n            return ownerEirbmons;\n    }\n    function getAtks(uint _eirbmonId) public view returns (uint[3] memory) {\n        return _Eirbmons[_eirbmonId].atk;\n    }\n\n    function isExisted(uint _EirbmonId) public view returns (bool){\n        return _EirbmonId<=eirbmonsCount;\n    }\n    function isOrphan(uint _EirbmonId) public view returns (bool){\n        return _Eirbmons[_EirbmonId].owner == 0x0000000000000000000000000000000000000000;\n    }\n    \n    function appropriateEirbmonToOwner(address payable owner,uint _EirbmonId) private {\n            require (_registeredAccounts[owner],\"Sender does not exist\");\n            _Eirbmons[_EirbmonId].owner = owner;\n    }\n\n    function catchEirbmon(uint _EirbmonId) public returns  (bytes32) {\n            require(isExisted(_EirbmonId),\"eirbmon does not exist\");\n            require(isOrphan(_EirbmonId),\"the eirbmon you want is orphan\");\n            generateAnNewEirbmon();\n            appropriateEirbmonToOwner(msg.sender,_EirbmonId);\n            emit SendEvent(\"catched\");\n    }\n\n\n     //Change the owner of an Eirbmon  \n    function exchangeMyEirbmonTo(uint myEirbmonId,uint hisEirbmonId ) public {\n         require (_registeredAccounts[msg.sender],\"Sender does not exist\");\n         require (msg.sender == _Eirbmons[myEirbmonId].owner,\"Sender is not the owner\");\n         require (!isOrphan(hisEirbmonId),\"the eirbmon you want to exchange is orphan\");\n         //Si l'autre joueur a accept de'changer son eirbmon avec le \n         if(_Eirbmons[hisEirbmonId].canBeExhangedTo==myEirbmonId){\n            _Eirbmons[hisEirbmonId].canBeExhangedTo = 0;\n            changeEirbmons(myEirbmonId,hisEirbmonId);\n        }\n        //Sinon on est le premier  dclarer d'avoir accpter un change d'eirbmons\n        else{\n           _Eirbmons[myEirbmonId].canBeExhangedTo = hisEirbmonId;\n            }\n    }\n\n    // changer les proprtaires des eirbmons\n      function changeEirbmons(uint idEirbmon1,uint idEirbmon2) private {\n            address payable owner1 = _Eirbmons[idEirbmon1].owner;\n            _Eirbmons[idEirbmon1].owner = _Eirbmons[idEirbmon2].owner;\n            _Eirbmons[idEirbmon2].owner = owner1;\n    }\n    // Changer le status pour que l'eirbmon peut tre vendu. \n      function ableSaleEirbmon(uint eirbmonId) public {\n            require(isExisted(eirbmonId),\"eirbmon does not exist\");\n            require (msg.sender == _Eirbmons[eirbmonId].owner,\"Sender is not the owner\");\n            // require (_Eirbmons[eirbmonId].canBeSelled == false,\"the eirbmon is already on selling\");\n            _Eirbmons[eirbmonId].canBeSelled = true;\n            _Eirbmons[eirbmonId].price = 1000000000000000000*_Eirbmons[eirbmonId].value;\n    }\n      function cancelEirbmonSelling(uint eirbmonId) public {\n            require(isExisted(eirbmonId),\"eirbmon does not exist\");\n            require (msg.sender == _Eirbmons[eirbmonId].owner,\"Sender is not the owner\");\n            require (_Eirbmons[eirbmonId].canBeSelled,\"the eirbmon is not on selling yet\");\n            _Eirbmons[eirbmonId].canBeSelled = false;\n    }\n\n      function saleEirbmon(uint eirbmonId,uint price) public {\n            ableSaleEirbmon(eirbmonId);\n            _Eirbmons[eirbmonId].price = 1000000000000000000*price;\n    }\n\n      function byEirbmon(uint eirbmonId) public payable {\n            require(_Eirbmons[eirbmonId].canBeSelled,\"this eirbmon can't be selled\");\n            require(_Eirbmons[eirbmonId].owner!=msg.sender,\"You can't bye your Eirbmon\");\n            require(_Eirbmons[eirbmonId].price <= msg.value,\"this eirbmon can't be selled\");\n            require (_registeredAccounts[msg.sender],\"Sender does not exist\");\n           //transfer Ether\n            _Eirbmons[eirbmonId].owner.transfer(_Eirbmons[eirbmonId].price);\n            msg.sender.transfer(msg.value-_Eirbmons[eirbmonId].price);\n            //transfer Eirbmon\n            _Eirbmons[eirbmonId].owner = msg.sender;\n            //reset Eirbmon fields\n            _Eirbmons[eirbmonId].canBeSelled = false;\n    }\n\n    function getEirbmonAge (uint Id) public view returns(uint256 time){\n        return block.timestamp - _Eirbmons[Id].birthDate;\n    }\n     \n    function getAtk(uint id) public view returns(uint[3] memory)  {\n        return _Eirbmons[id].atk;\n    }\n\n    function getValueFromWeight(uint sumArray,string[] memory valueArray,uint[] memory weightArray,string memory research ) public pure returns(uint) {\n        for(uint i = 0;i < valueArray.length;i++){\n            if(keccak256(abi.encodePacked(valueArray[i])) == keccak256(abi.encodePacked(research))){\n                return sumArray*(11-weightArray[i])/10;\n            }\n        }\n    }\n\n    function getValue(uint _EirbmonId) public view returns(uint){\n        return _Eirbmons[_EirbmonId].evolve*2 + _Eirbmons[_EirbmonId].atk[0] + _Eirbmons[_EirbmonId].atk[1] + _Eirbmons[_EirbmonId].atk[2]+ getValueFromWeight(sumNameWeight,allName,allNameWeight,_Eirbmons[_EirbmonId].name) + getValueFromWeight(sumFieldWeight,allField,allFieldWeight,_Eirbmons[_EirbmonId].field) + _Eirbmons[_EirbmonId].hp/7 ;\n    }\n\n      function evolveEirbmon(uint eirbmonId, string memory evolutionName) public {\n            require(_Eirbmons[eirbmonId].owner==msg.sender,\"The Eirbmon is not yours\");\n            _Eirbmons[eirbmonId].name = evolutionName;\n            _Eirbmons[eirbmonId].evolve = _Eirbmons[eirbmonId].evolve + 1;\n            _Eirbmons[eirbmonId].atk[1] = min(_Eirbmons[eirbmonId].atk[1] + 2,9);\n            _Eirbmons[eirbmonId].atk[2] = min(_Eirbmons[eirbmonId].atk[2] + 2,9);\n            _Eirbmons[eirbmonId].atk[0] = min(_Eirbmons[eirbmonId].atk[0] + 2,9);\n            _Eirbmons[eirbmonId].hp = _Eirbmons[eirbmonId].hp + _Eirbmons[eirbmonId].evolve*40;\n            _Eirbmons[eirbmonId].canBeExhangedTo = 0;\n            _Eirbmons[eirbmonId].canBeSelled = false;\n            _Eirbmons[eirbmonId].value = getValue(eirbmonId);\n\n    }\n\n       function min(uint a, uint b) private pure returns (uint) {\n        return a < b ? a : b;\n    }\n\n}\n\n\n// lorsque le joueur commence, il a les choix entre 3 eirbmons, \n// lorsqu'il en choisit 1, il en devient le proprio et cela cr alors 1 nouvel Eirbmon\n// qui dpend : du hash du block prcdent, de l'adresse du joueur fois id de l'eirbmon modulo 10, et le 3e chiffre et la multi des 2 premiers modulo 10\n",
  "sourcePath": "/home/david/Documents/Cours_1Enseirb/3a/projet_s9/dev/Blockchain/contracts/Eirbmon.sol",
  "compiler": {
    "name": "solc",
    "version": "0.5.12+commit.7709ece9.Emscripten.clang"
  },
  "schemaVersion": "3.0.19",
  "updatedAt": "2020-01-18T17:31:11.809Z",
  "networkType": "ethereum",
  "devdoc": {
    "methods": {}
  },
  "userdoc": {
    "methods": {}
  }
}