{
  "contractName": "Eirbmon",
  "abi": [
    {
      "constant": true,
      "inputs": [],
      "name": "registeredCount",
      "outputs": [
        {
          "name": "",
          "type": "uint256"
        }
      ],
      "payable": false,
      "stateMutability": "view",
      "type": "function"
    },
    {
      "constant": true,
      "inputs": [
        {
          "name": "",
          "type": "address"
        }
      ],
      "name": "_registeredAccounts",
      "outputs": [
        {
          "name": "",
          "type": "bool"
        }
      ],
      "payable": false,
      "stateMutability": "view",
      "type": "function"
    },
    {
      "constant": true,
      "inputs": [],
      "name": "eirbmonsCount",
      "outputs": [
        {
          "name": "",
          "type": "uint256"
        }
      ],
      "payable": false,
      "stateMutability": "view",
      "type": "function"
    },
    {
      "constant": true,
      "inputs": [
        {
          "name": "",
          "type": "uint256"
        }
      ],
      "name": "_Eirbmons",
      "outputs": [
        {
          "name": "id",
          "type": "uint256"
        },
        {
          "name": "name",
          "type": "string"
        },
        {
          "name": "owner",
          "type": "address"
        },
        {
          "name": "level",
          "type": "uint256"
        },
        {
          "name": "field",
          "type": "string"
        },
        {
          "name": "atk",
          "type": "string"
        },
        {
          "name": "hp",
          "type": "uint256"
        }
      ],
      "payable": false,
      "stateMutability": "view",
      "type": "function"
    },
    {
      "constant": true,
      "inputs": [],
      "name": "rnd",
      "outputs": [
        {
          "name": "",
          "type": "uint256"
        }
      ],
      "payable": false,
      "stateMutability": "view",
      "type": "function"
    },
    {
      "inputs": [],
      "payable": false,
      "stateMutability": "nonpayable",
      "type": "constructor"
    },
    {
      "constant": false,
      "inputs": [
        {
          "name": "name",
          "type": "string"
        },
        {
          "name": "owner",
          "type": "address"
        },
        {
          "name": "field",
          "type": "string"
        },
        {
          "name": "atk",
          "type": "string"
        },
        {
          "name": "hp",
          "type": "uint256"
        }
      ],
      "name": "addEirbmonToChain",
      "outputs": [],
      "payable": false,
      "stateMutability": "nonpayable",
      "type": "function"
    },
    {
      "constant": false,
      "inputs": [],
      "name": "initAccount",
      "outputs": [],
      "payable": false,
      "stateMutability": "nonpayable",
      "type": "function"
    },
    {
      "constant": false,
      "inputs": [
        {
          "name": "bloc",
          "type": "uint256"
        }
      ],
      "name": "generateAnNewEirbmon",
      "outputs": [],
      "payable": false,
      "stateMutability": "nonpayable",
      "type": "function"
    },
    {
      "constant": true,
      "inputs": [
        {
          "name": "valueArray",
          "type": "string[]"
        },
        {
          "name": "weightArray",
          "type": "uint256[]"
        },
        {
          "name": "randNameWeight",
          "type": "uint256"
        }
      ],
      "name": "getValueFromRand",
      "outputs": [
        {
          "name": "",
          "type": "string"
        }
      ],
      "payable": false,
      "stateMutability": "pure",
      "type": "function"
    },
    {
      "constant": true,
      "inputs": [
        {
          "name": "_array",
          "type": "uint256[]"
        }
      ],
      "name": "sumArray",
      "outputs": [
        {
          "name": "",
          "type": "uint256"
        }
      ],
      "payable": false,
      "stateMutability": "pure",
      "type": "function"
    },
    {
      "constant": true,
      "inputs": [],
      "name": "getEirbmonCount",
      "outputs": [
        {
          "name": "",
          "type": "uint256"
        }
      ],
      "payable": false,
      "stateMutability": "view",
      "type": "function"
    },
    {
      "constant": true,
      "inputs": [
        {
          "name": "owner",
          "type": "address"
        }
      ],
      "name": "getEirbmon",
      "outputs": [
        {
          "components": [
            {
              "name": "id",
              "type": "uint256"
            },
            {
              "name": "name",
              "type": "string"
            },
            {
              "name": "owner",
              "type": "address"
            },
            {
              "name": "level",
              "type": "uint256"
            },
            {
              "name": "field",
              "type": "string"
            },
            {
              "name": "atk",
              "type": "string"
            },
            {
              "name": "hp",
              "type": "uint256"
            }
          ],
          "name": "",
          "type": "tuple[]"
        }
      ],
      "payable": false,
      "stateMutability": "view",
      "type": "function"
    }
  ],
  "bytecode": "0x6080604052600160005560405180608001604052806040518060400160405280600781526020017f726f756c6164650000000000000000000000000000000000000000000000000081525081526020016040518060400160405280600d81526020017f706574697465206269c3a872650000000000000000000000000000000000000081525081526020016040518060400160405280600681526020017f627261737365000000000000000000000000000000000000000000000000000081525081526020016040518060400160405280600a81526020017f72617474726170616765000000000000000000000000000000000000000000008152508152506001906004620001109291906200068a565b506040518060800160405280600a60ff168152602001600660ff168152602001600360ff168152602001600160ff16815250600290600462000154929190620006f1565b506040518060c001604052806040518060400160405280600381526020017f525349000000000000000000000000000000000000000000000000000000000081525081526020016040518060400160405280600381526020017f534545000000000000000000000000000000000000000000000000000000000081525081526020016040518060400160405280600481526020017f456c65630000000000000000000000000000000000000000000000000000000081525081526020016040518060400160405280600781526020017f4d61746d6563610000000000000000000000000000000000000000000000000081525081526020016040518060400160405280600481526020017f496e666f0000000000000000000000000000000000000000000000000000000081525081526020016040518060400160405280600781526020017f54656c65636f6d000000000000000000000000000000000000000000000000008152508152506003906006620002d292919062000748565b506040518060c00160405280600a60ff168152602001600860ff168152602001600660ff168152602001600460ff168152602001600260ff168152602001600160ff1681525060049060066200032a929190620007af565b5060405180608001604052806040518060400160405280600481526020017f6e6f6d310000000000000000000000000000000000000000000000000000000081525081526020016040518060400160405280600481526020017f6e6f6d320000000000000000000000000000000000000000000000000000000081525081526020016040518060400160405280600481526020017f6e6f6d330000000000000000000000000000000000000000000000000000000081525081526020016040518060400160405280600481526020017f6e6f6d34000000000000000000000000000000000000000000000000000000008152508152506005906004620004329291906200068a565b506040518060800160405280600a60ff168152602001600660ff168152602001600360ff168152602001600160ff16815250600690600462000476929190620006f1565b50600060075560006008553480156200048e57600080fd5b50620005456040518060400160405280600481526020017f70696b610000000000000000000000000000000000000000000000000000000081525060006040518060400160405280600781526020017f74656c65636f6d000000000000000000000000000000000000000000000000008152506040518060400160405280600781526020017f726f756c6164650000000000000000000000000000000000000000000000000081525060646200054b60201b60201c565b62000932565b6007600081548092919060010191905055506040518060e0016040528060075481526020018681526020018573ffffffffffffffffffffffffffffffffffffffff1681526020016000815260200184815260200183815260200182815250600960006007548152602001908152602001600020600082015181600001556020820151816001019080519060200190620005e692919062000806565b5060408201518160020160006101000a81548173ffffffffffffffffffffffffffffffffffffffff021916908373ffffffffffffffffffffffffffffffffffffffff1602179055506060820151816003015560808201518160040190805190602001906200065692919062000806565b5060a08201518160050190805190602001906200067592919062000806565b5060c082015181600601559050505050505050565b828054828255906000526020600020908101928215620006de579160200282015b82811115620006dd578251829080519060200190620006cc92919062000806565b5091602001919060010190620006ab565b5b509050620006ed91906200088d565b5090565b82805482825590600052602060002090810192821562000735579160200282015b8281111562000734578251829060ff1690559160200191906001019062000712565b5b509050620007449190620008be565b5090565b8280548282559060005260206000209081019282156200079c579160200282015b828111156200079b5782518290805190602001906200078a92919062000806565b509160200191906001019062000769565b5b509050620007ab91906200088d565b5090565b828054828255906000526020600020908101928215620007f3579160200282015b82811115620007f2578251829060ff16905591602001919060010190620007d0565b5b509050620008029190620008be565b5090565b828054600181600116156101000203166002900490600052602060002090601f016020900481019282601f106200084957805160ff19168380011785556200087a565b828001600101855582156200087a579182015b82811115620008795782518255916020019190600101906200085c565b5b509050620008899190620008be565b5090565b620008bb91905b80821115620008b75760008181620008ad9190620008e6565b5060010162000894565b5090565b90565b620008e391905b80821115620008df576000816000905550600101620008c5565b5090565b90565b50805460018160011615610100020316600290046000825580601f106200090e57506200092f565b601f0160209004906000526020600020908101906200092e9190620008be565b5b50565b611a9980620009426000396000f3fe608060405234801561001057600080fd5b50600436106100b35760003560e01c80635c824d7a116100715780635c824d7a1461018c5780636db20bf0146101bc578063c80f760c146101d8578063cbb3abd1146101f6578063fec1439c1461022c578063fff39a511461024a576100b3565b80621931d0146100b85780631e2aea06146100e8578063210ff9bb1461011857806332834b48146101365780634c12569d146101525780634ec1ce2114610182575b600080fd5b6100d260048036036100cd919081019061135b565b610268565b6040516100df9190611755565b60405180910390f35b61010260048036036100fd9190810190611403565b6105f1565b60405161010f91906117b4565b60405180910390f35b610120610633565b60405161012d91906117b4565b60405180910390f35b610150600480360361014b9190810190611444565b610639565b005b61016c60048036036101679190810190611384565b610772565b6040516101799190611792565b60405180910390f35b61018a6107db565b005b6101a660048036036101a1919081019061135b565b610939565b6040516101b39190611777565b60405180910390f35b6101d660048036036101d19190810190611503565b610959565b005b6101e0610ead565b6040516101ed91906117b4565b60405180910390f35b610210600480360361020b9190810190611503565b610eb3565b60405161022397969594939291906117cf565b60405180910390f35b6102346110dd565b60405161024191906117b4565b60405180910390f35b6102526110e3565b60405161025f91906117b4565b60405180910390f35b6060600a60008373ffffffffffffffffffffffffffffffffffffffff1673ffffffffffffffffffffffffffffffffffffffff16815260200190815260200160002060009054906101000a900460ff166102c057600080fd5b6060600080905060008090505b6007548110156105e6578473ffffffffffffffffffffffffffffffffffffffff166009600083815260200190815260200160002060020160009054906101000a900473ffffffffffffffffffffffffffffffffffffffff1673ffffffffffffffffffffffffffffffffffffffff1614156105d957600960008281526020019081526020016000206040518060e001604052908160008201548152602001600182018054600181600116156101000203166002900480601f0160208091040260200160405190810160405280929190818152602001828054600181600116156101000203166002900480156104025780601f106103d757610100808354040283529160200191610402565b820191906000526020600020905b8154815290600101906020018083116103e557829003601f168201915b505050505081526020016002820160009054906101000a900473ffffffffffffffffffffffffffffffffffffffff1673ffffffffffffffffffffffffffffffffffffffff1673ffffffffffffffffffffffffffffffffffffffff16815260200160038201548152602001600482018054600181600116156101000203166002900480601f0160208091040260200160405190810160405280929190818152602001828054600181600116156101000203166002900480156105045780601f106104d957610100808354040283529160200191610504565b820191906000526020600020905b8154815290600101906020018083116104e757829003601f168201915b50505050508152602001600582018054600181600116156101000203166002900480601f0160208091040260200160405190810160405280929190818152602001828054600181600116156101000203166002900480156105a65780601f1061057b576101008083540402835291602001916105a6565b820191906000526020600020905b81548152906001019060200180831161058957829003601f168201915b505050505081526020016006820154815250508383815181106105c557fe5b602002602001018190525081806001019250505b80806001019150506102cd565b508192505050919050565b6000806000905060005b83518110156106295783818151811061061057fe5b60200260200101518201915080806001019150506105fb565b5080915050919050565b60085481565b6007600081548092919060010191905055506040518060e0016040528060075481526020018681526020018573ffffffffffffffffffffffffffffffffffffffff16815260200160008152602001848152602001838152602001828152506009600060075481526020019081526020016000206000820151816000015560208201518160010190805190602001906106d29291906110ed565b5060408201518160020160006101000a81548173ffffffffffffffffffffffffffffffffffffffff021916908373ffffffffffffffffffffffffffffffffffffffff1602179055506060820151816003015560808201518160040190805190602001906107409291906110ed565b5060a082015181600501908051906020019061075d9291906110ed565b5060c082015181600601559050505050505050565b6060600080905060008090505b84518110156107d15784818151811061079457fe5b6020026020010151820191508184116107c4578581815181106107b357fe5b6020026020010151925050506107d4565b808060010191505061077f565b50505b9392505050565b600a60003373ffffffffffffffffffffffffffffffffffffffff1673ffffffffffffffffffffffffffffffffffffffff16815260200190815260200160002060009054906101000a900460ff161561083257600080fd5b6001600a60003373ffffffffffffffffffffffffffffffffffffffff1673ffffffffffffffffffffffffffffffffffffffff16815260200190815260200160002060006101000a81548160ff0219169083151502179055506109376040518060400160405280600481526020017f6e6f6d3100000000000000000000000000000000000000000000000000000000815250336040518060400160405280600381526020017f52534900000000000000000000000000000000000000000000000000000000008152506040518060400160405280600781526020017f726f756c616465000000000000000000000000000000000000000000000000008152506028610639565b565b600a6020528060005260406000206000915054906101000a900460ff1681565b600060016109b660028054806020026020016040519081016040528092919081815260200182805480156109ac57602002820191906000526020600020905b815481526020019060010190808311610998575b50505050506105f1565b6b0100000000000000000000008443034060001c816109d157fe5b04816109d957fe5b060190506060610b1b6001805480602002602001604051908101604052809291908181526020016000905b82821015610ac0578382906000526020600020018054600181600116156101000203166002900480601f016020809104026020016040519081016040528092919081815260200182805460018160011615610100020316600290048015610aac5780601f10610a8157610100808354040283529160200191610aac565b820191906000526020600020905b815481529060010190602001808311610a8f57829003601f168201915b505050505081526020019060010190610a04565b505050506002805480602002602001604051908101604052809291908181526020018280548015610b1057602002820191906000526020600020905b815481526020019060010190808311610afc575b505050505084610772565b90506000610b786004805480602002602001604051908101604052809291908181526020018280548015610b6e57602002820191906000526020600020905b815481526020019060010190808311610b5a575b50505050506105f1565b7601000000000000000000000000000000000000000000008543034060001c81610b9e57fe5b0481610ba657fe5b0690506060610ce76003805480602002602001604051908101604052809291908181526020016000905b82821015610c8c578382906000526020600020018054600181600116156101000203166002900480601f016020809104026020016040519081016040528092919081815260200182805460018160011615610100020316600290048015610c785780601f10610c4d57610100808354040283529160200191610c78565b820191906000526020600020905b815481529060010190602001808311610c5b57829003601f168201915b505050505081526020019060010190610bd0565b505050506004805480602002602001604051908101604052809291908181526020018280548015610cdc57602002820191906000526020600020905b815481526020019060010190808311610cc8575b505050505084610772565b90506000610d446006805480602002602001604051908101604052809291908181526020018280548015610d3a57602002820191906000526020600020905b815481526020019060010190808311610d26575b50505050506105f1565b8643034060001c81610d5257fe5b0690506060610e936005805480602002602001604051908101604052809291908181526020016000905b82821015610e38578382906000526020600020018054600181600116156101000203166002900480601f016020809104026020016040519081016040528092919081815260200182805460018160011615610100020316600290048015610e245780601f10610df957610100808354040283529160200191610e24565b820191906000526020600020905b815481529060010190602001808311610e0757829003601f168201915b505050505081526020019060010190610d7c565b505050506006805480602002602001604051908101604052809291908181526020018280548015610e8857602002820191906000526020600020905b815481526020019060010190808311610e74575b505050505084610772565b9050610ea481600085886064610639565b50505050505050565b60075481565b6009602052806000526040600020600091509050806000015490806001018054600181600116156101000203166002900480601f016020809104026020016040519081016040528092919081815260200182805460018160011615610100020316600290048015610f655780601f10610f3a57610100808354040283529160200191610f65565b820191906000526020600020905b815481529060010190602001808311610f4857829003601f168201915b5050505050908060020160009054906101000a900473ffffffffffffffffffffffffffffffffffffffff1690806003015490806004018054600181600116156101000203166002900480601f01602080910402602001604051908101604052809291908181526020018280546001816001161561010002031660029004801561102f5780601f106110045761010080835404028352916020019161102f565b820191906000526020600020905b81548152906001019060200180831161101257829003601f168201915b505050505090806005018054600181600116156101000203166002900480601f0160208091040260200160405190810160405280929190818152602001828054600181600116156101000203166002900480156110cd5780601f106110a2576101008083540402835291602001916110cd565b820191906000526020600020905b8154815290600101906020018083116110b057829003601f168201915b5050505050908060060154905087565b60005481565b6000600754905090565b828054600181600116156101000203166002900490600052602060002090601f016020900481019282601f1061112e57805160ff191683800117855561115c565b8280016001018555821561115c579182015b8281111561115b578251825591602001919060010190611140565b5b509050611169919061116d565b5090565b61118f91905b8082111561118b576000816000905550600101611173565b5090565b90565b6000813590506111a181611a31565b92915050565b600082601f8301126111b857600080fd5b81356111cb6111c682611880565b611853565b9150818183526020840193506020810190508360005b8381101561121157813586016111f7888261129e565b8452602084019350602083019250506001810190506111e1565b5050505092915050565b600082601f83011261122c57600080fd5b813561123f61123a826118a8565b611853565b9150818183526020840193506020810190508385602084028201111561126457600080fd5b60005b83811015611294578161127a8882611346565b845260208401935060208301925050600181019050611267565b5050505092915050565b600082601f8301126112af57600080fd5b81356112c26112bd826118d0565b611853565b915080825260208301602083018583830111156112de57600080fd5b6112e98382846119de565b50505092915050565b600082601f83011261130357600080fd5b8135611316611311826118fc565b611853565b9150808252602083016020830185838301111561133257600080fd5b61133d8382846119de565b50505092915050565b60008135905061135581611a48565b92915050565b60006020828403121561136d57600080fd5b600061137b84828501611192565b91505092915050565b60008060006060848603121561139957600080fd5b600084013567ffffffffffffffff8111156113b357600080fd5b6113bf868287016111a7565b935050602084013567ffffffffffffffff8111156113dc57600080fd5b6113e88682870161121b565b92505060406113f986828701611346565b9150509250925092565b60006020828403121561141557600080fd5b600082013567ffffffffffffffff81111561142f57600080fd5b61143b8482850161121b565b91505092915050565b600080600080600060a0868803121561145c57600080fd5b600086013567ffffffffffffffff81111561147657600080fd5b611482888289016112f2565b955050602061149388828901611192565b945050604086013567ffffffffffffffff8111156114b057600080fd5b6114bc888289016112f2565b935050606086013567ffffffffffffffff8111156114d957600080fd5b6114e5888289016112f2565b92505060806114f688828901611346565b9150509295509295909350565b60006020828403121561151557600080fd5b600061152384828501611346565b91505092915050565b6000611538838361168d565b905092915050565b61154981611996565b82525050565b61155881611996565b82525050565b600061156982611935565b6115738185611963565b93508360208202850161158585611928565b8060005b858110156115c157848403895281516115a2858261152c565b94506115ad83611956565b925060208a01995050600181019050611589565b50829750879550505050505092915050565b6115dc816119a8565b82525050565b60006115ed8261194b565b6115f78185611985565b93506116078185602086016119ed565b61161081611a20565b840191505092915050565b600061162682611940565b6116308185611974565b93506116408185602086016119ed565b61164981611a20565b840191505092915050565b600061165f82611940565b6116698185611985565b93506116798185602086016119ed565b61168281611a20565b840191505092915050565b600060e0830160008301516116a56000860182611737565b50602083015184820360208601526116bd828261161b565b91505060408301516116d26040860182611540565b5060608301516116e56060860182611737565b50608083015184820360808601526116fd828261161b565b91505060a083015184820360a0860152611717828261161b565b91505060c083015161172c60c0860182611737565b508091505092915050565b611740816119d4565b82525050565b61174f816119d4565b82525050565b6000602082019050818103600083015261176f818461155e565b905092915050565b600060208201905061178c60008301846115d3565b92915050565b600060208201905081810360008301526117ac81846115e2565b905092915050565b60006020820190506117c96000830184611746565b92915050565b600060e0820190506117e4600083018a611746565b81810360208301526117f68189611654565b9050611805604083018861154f565b6118126060830187611746565b81810360808301526118248186611654565b905081810360a08301526118388185611654565b905061184760c0830184611746565b98975050505050505050565b6000604051905081810181811067ffffffffffffffff8211171561187657600080fd5b8060405250919050565b600067ffffffffffffffff82111561189757600080fd5b602082029050602081019050919050565b600067ffffffffffffffff8211156118bf57600080fd5b602082029050602081019050919050565b600067ffffffffffffffff8211156118e757600080fd5b601f19601f8301169050602081019050919050565b600067ffffffffffffffff82111561191357600080fd5b601f19601f8301169050602081019050919050565b6000602082019050919050565b600081519050919050565b600081519050919050565b600081519050919050565b6000602082019050919050565b600082825260208201905092915050565b600082825260208201905092915050565b600082825260208201905092915050565b60006119a1826119b4565b9050919050565b60008115159050919050565b600073ffffffffffffffffffffffffffffffffffffffff82169050919050565b6000819050919050565b82818337600083830152505050565b60005b83811015611a0b5780820151818401526020810190506119f0565b83811115611a1a576000848401525b50505050565b6000601f19601f8301169050919050565b611a3a81611996565b8114611a4557600080fd5b50565b611a51816119d4565b8114611a5c57600080fd5b5056fea265627a7a723058203847cec391126a64e89808fbee688d289c68bcb36aae50e5aeb4f0a3871bee066c6578706572696d656e74616cf50037",
  "source": "pragma solidity ^0.5.8;\npragma experimental ABIEncoderV2;\n\n\ncontract Eirbmon{\n\n    struct _Eirbmon {\n        uint id;\n        string name;\n        address owner;\n        uint level;\n        string field;\n        string atk;\n        uint hp;\n    }\n    uint public rnd = 1;\n\n    string[] private allAtk = [\"roulade\",\"petite bire\",\"brasse\",\"rattrapage\"];\n    uint[] private allAtkWeight = [0xa,0x6,0x3,0x1]; // poids entre 1 et 10 avec 1=> trs rare\n\n    string[] private allField = [\"RSI\",\"SEE\",\"Elec\",\"Matmeca\",\"Info\",\"Telecom\"];\n    uint[] private allFieldWeight = [0xa,0x8,0x6,0x4,0x2,0x1]; // poids entre 1 et 10 avec 1=> trs rare\n \n    string[] private allName = [\"nom1\",\"nom2\",\"nom3\",\"nom4\"];\n    uint[] private allNameWeight = [0xa,0x6,0x3,0x1]; // poids entre 1 et 10 avec 1=> trs rare\n\n    uint public eirbmonsCount = 0;\n    uint public registeredCount = 0;\n\n\n    mapping(uint => _Eirbmon) public _Eirbmons;\n    mapping(address => bool) public _registeredAccounts;\n\n    constructor () public {\n        addEirbmonToChain(\"pika\",0x0000000000000000000000000000000000000000,\"telecom\",\"roulade\",100);\n    }\n\n    // ajoute un Eirbmon  la chaine\n    function  addEirbmonToChain(string memory name,address owner, string memory field, string memory atk, uint hp) public {\n        eirbmonsCount++;\n        _Eirbmons[eirbmonsCount] = _Eirbmon(eirbmonsCount,name,owner,0,field,atk,hp);\n    }\n \n    function initAccount() public {\n        require(!_registeredAccounts[msg.sender]);\n        _registeredAccounts[msg.sender] = true;\n        addEirbmonToChain(\"nom1\",msg.sender,\"RSI\",\"roulade\",40);\n    }\n\n    // gnre un nouvel Eirbmon random\n    function generateAnNewEirbmon(uint bloc) public {\n        // gnre un nombre entre 1 et la somme des poids  partir des 44 premiers nombres hex du hash\n        uint randAtkWeight = uint(uint(blockhash(block.number-bloc))/((0xf+1)**22))%sumArray(allAtkWeight)+1;\n        string memory selectedAtk = getValueFromRand(allAtk,allAtkWeight,randAtkWeight);\n\n        uint randFieldWeight = uint(uint(blockhash(block.number-bloc))/((0xf+1)**44))%sumArray(allFieldWeight);\n        string memory selectedField = getValueFromRand(allField,allFieldWeight,randFieldWeight);\n\n        uint randNameWeight = uint(uint(blockhash(block.number-bloc)))%sumArray(allNameWeight);\n        string memory selectedName = getValueFromRand(allName,allNameWeight,randNameWeight);\n\n        addEirbmonToChain(selectedName,0x0000000000000000000000000000000000000000,selectedField,selectedAtk,100);\n    }\n\n    // renvoie la valeur associ au nombre random pass en arguments en prenant en compte les poids de chaque valeur \n    function getValueFromRand(string[] memory valueArray,uint[] memory weightArray,uint randNameWeight) public pure returns(string memory) {\n        uint sum = 0x0;\n        for(uint i = 0;i < weightArray.length;i++){\n            sum += weightArray[i];\n            if(randNameWeight <= sum){\n                return valueArray[i];\n            }\n        }\n    }\n\n    //Fait la somme de tous les lments d'un tableau \n    function sumArray(uint[] memory _array) public pure returns(uint) {\n        uint sum = 0x0;\n         for(uint i;i < _array.length;i++){\n            sum += _array[i];\n        }\n        return sum;\n    }\n\n\n    // renvoie le nombre d'Eirbmon total\n    function getEirbmonCount() public view returns(uint)  {\n        return eirbmonsCount;\n    }\n\n    // renvoie les Eirbmons d'un compte\n    //attention  ne pas utiliser cet appel dans les fonctions de type write.\n    function getEirbmon(address owner) public view returns(_Eirbmon[] memory )  {\n            require(_registeredAccounts[owner]);\n            _Eirbmon[] memory ownerEirbmons;\n            uint j = 0;\n            for(uint i = 0; i < eirbmonsCount; i++){\n               if(_Eirbmons[i].owner == owner){\n                   ownerEirbmons[j] = _Eirbmons[i];\n                   j++;\n               }\n            }\n            return ownerEirbmons;\n    }\n}\n\n\n// lorsque le joueur commence, il a les choix entre 3 eirbmons, \n// lorsqu'il en choisit 1, il en devient le proprio et cela cr alors 1 nouvel Eirbmon\n// qui dpend : du hash du block prcdent, de l'adresse du joueur fois id de l'eirbmon modulo 10, et le 3e chiffre et la multi des 2 premiers modulo 10",
  "sourcePath": "/home/atia/Desktop/projetS9/EirbMon/Blockchain/contracts/Eirbmon.sol",
  "compiler": {
    "name": "solc",
    "version": "0.5.8+commit.23d335f2.Emscripten.clang"
  },
  "schemaVersion": "3.0.16",
  "updatedAt": "2019-11-16T15:50:53.603Z",
  "devdoc": {
    "methods": {}
  },
  "userdoc": {
    "methods": {}
  }
}